:100000000C949E000C94C6000C94C6000C94C60080
:100010000C94C6000C94C6000C94C6000C94C60048
:100020000C94C6000C94C6000C94C6000C94C60038
:100030000C94C6000C94C6000C94C6000C94C60028
:100040000C94F0190C94C6000C94601A0C943A1A93
:100050000C94C6000C94C6000C94C6000C94C60008
:100060000C94921A0C94C600000000002400270093
:100070002A0000000008000201000003040700003D
:100080000000000000007E306D79335B5F707F7B85
:10009000771F0D3D4F4700000000000000000000EA
:1000A0000000000000000000000000000000000050
:1000B0000000800180007E306D79335B5F707F7B54
:1000C00000000000000000771F0D3D4F4700370083
:1000D00000000E00000067000000000000000000AB
:1000E00000000000000800771F0D3D4F470037005B
:1000F00000000E00151D6700000000000000000059
:1001000000000000000001020408102040800102ED
:10011000040810200102040810200000000025003F
:1001200028002B0004040404040404040202020254
:100130000202030303030303B11B062E11241FBE97
:10014000CFEFD8E0DEBFCDBF11E0A0E0B1E0EEE43C
:10015000F4E602C005900D92AC35B107D9F724E062
:10016000ACE5B1E001C01D92A43EB207E1F710E09A
:10017000CDE9D0E004C02197FE010E94DB30CC39EC
:10018000D107C9F70E94D51D0C941A320C940000B7
:10019000E6EBF4E083819481890F9927991F2581EB
:1001A000820F911D2681280F392F311D8781280F3D
:1001B000311D8085820F932F911D91958195910915
:1001C0009187828708954F925F926F927F928F926C
:1001D0009F92AF92BF92FF922091A2043091A3040C
:1001E0008217930708F043C02B0166247724852EDD
:1001F000962EA72EBB24B82DA42F2091A804F42C52
:10020000222391F0E22FF0E0E49DD001E59DB00DB6
:10021000F49DB00D1124FB2E289D40011124B92D11
:10022000249F90011124A32FE091AE042091A904F2
:100230003091AA045091AB04E51323C0FC01EE0FEA
:10024000FF1F8E0F9F1F820F931FE091AB04E80FDB
:10025000F92FF11DF082E091AC04E80FF92FF11DA8
:10026000B0832091AD04820F911DFC01A083FF900B
:10027000BF90AF909F908F907F906F905F904F90C6
:100280000895880F991F880F991F820F931FE80FF9
:10029000F92FF11D1082D9CF08950895909144024D
:1002A000809143022FEF3FEF981748F4E92FF0E0D9
:1002B000EF56FD4F208130E09F5F90934402C901CB
:1002C000089590914402809143022FEF3FEF9817D9
:1002D00048F4E92FF0E0EF56FD4F208130E09F5FBA
:1002E00090934402C901089590E0FC01EE58FF4F3D
:1002F0002491FC01EA5FFE4F3491FC01EC5DFE4F5E
:10030000E491EE23C9F0222339F0233001F1A8F45F
:10031000213019F1223029F1F0E0EE0FFF1FE65EE7
:10032000FE4FA591B4918FB7F894EC91611126C05E
:1003300030953E233C938FBF08952730A9F0283095
:10034000C9F0243049F7809180008F7D03C08091EF
:1003500080008F7780938000DFCF84B58F7784BD56
:10036000DBCF84B58F7DFBCF8091B0008F778093FA
:10037000B000D2CF8091B0008F7DF9CF3E2BDACF85
:10038000CF93DF9390E0FC01EA5FFE4F24918C5DF8
:100390009E4FFC0184918823D1F090E0880F991F33
:1003A000FC01E859FF4FA591B491FC01E65EFE4FB8
:1003B000C591D49161110EC09FB7F8948C91E22F32
:1003C000E0958E238C932881E223E8839FBFDF9101
:1003D000CF9108958FB7F894EC91E22BEC938FBFF7
:1003E000F6CF8E50806480937C0080917A00806488
:1003F00080937A0080917A0086FDFCCF809178000E
:100400009091790008953FB7F89480913B029091C4
:100410003C02A0913D02B0913E0226B5A89B05C0CA
:100420002F3F19F00196A11DB11D3FBFBA2FA92F73
:10043000982F8827BC01CD01620F711D811D911D70
:1004400042E0660F771F881F991F4A95D1F70895DC
:100450000F931F93CF93DF93CDB7DEB729970FB6D6
:10046000F894DEBF0FBECDBF8091A9049091AA047D
:10047000892B09F47CC00E9403020091AF04109103
:10048000B0042091B1043091B20460177107820763
:10049000930740F46093AF047093B0048093B10469
:1004A0009093B2040091AF041091B0042091B10474
:1004B0003091B204601B710B820B930B6C32714054
:1004C00081059105C0F2F8948091A4049091A5044F
:1004D0009A838983E091A904F091AA04DF0111961F
:1004E000808189879091A004E091B304F091B404D5
:1004F0008091B504992309F445C09081982B988781
:100500009081809589238F838F818C8388E08B8372
:1005100058856F8149853B812C8189819A815083DF
:1005200047FD252F3A952083262F39F0441F00C020
:1005300000006083000000C0F2CF38E04D9160837E
:100540000000019761F7F093B404E093B304498786
:100550003B832C839A83898378940E94030260935F
:10056000AF047093B0048093B1049093B2042996C1
:100570000FB6F894DEBF0FBECDBFDF91CF911F91B4
:100580000F9108959081982B988790818095892369
:100590008F838F818E8388E08D8358856F81498515
:1005A0003D812E8189819A81508347FD252F00C08E
:1005B00000C0208300C000C000C000C000C0608335
:1005C0000000262F3A9541F0441F000000C000C0F3
:1005D00000C000C000C0E8CF38E04D9100C060838B
:1005E00000C0019709F7F093B404E093B30449877E
:1005F0003D832E83AFCF8F929F92AF92BF92CF92C7
:10060000DF92EF92FF924B015C010E9403026B01AB
:100610007C010E9403026C197D098E099F09683EC6
:10062000734081059105A8F321E0821A9108A10881
:10063000B10888EEC80E83E0D81EE11CF11C8114BD
:100640009104A104B10429F7FF90EF90DF90CF90BF
:10065000BF90AF909F908F9008952FB7F8946091BE
:100660003702709138028091390290913A022FBF7F
:100670000895CF92DF92EF92FF92CF93DF936B01B9
:100680007C01EA010E942D03AB01BC01809118049A
:1006900090911904892BA9F0809128049091290444
:1006A000892BB1F18091380490913904892B99F10B
:1006B00090E080E0DF91CF91FF90EF90DF90CF90BE
:1006C0000895E8E1F4E080911604909117040196F2
:1006D00011F481E090E090931704809316048091C8
:1006E00016049091170497878687D183C08313825D
:1006F00012824483558366837783C086D186E286DF
:10070000F38621E030E0358724878E279F27D2CFDC
:10071000E8E2F4E0D8CFE8E3F4E0D5CF90915C01D3
:1007200021E0922790935C018091000282278093C0
:10073000000281E0089590915D0121E0922790935D
:100740005D018091B70282278093B70281E008950E
:100750008091DF0191E089278093DF0181E0089596
:10076000AF92BF92CF92DF92EF92FF920F931F93BF
:10077000CF93DF936C017B018B01040F151FEB01FD
:100780005E01AE18BF08C017D10759F06991D601B4
:10079000ED91FC910190F081E02DC6010995892B26
:1007A00079F7C501DF91CF911F910F91FF90EF90E5
:1007B000DF90CF90BF90AF900895FC01538D448D92
:1007C000252F30E0842F90E0821B930B541710F0FC
:1007D000CF96089501970895FC01918D828D981709
:1007E00061F0A28DAE0FBF2FB11D5D968C91928DE1
:1007F0009F5F9F73928F90E008958FEF9FEF089512
:10080000FC01918D828D981731F0828DE80FF11DDA
:10081000858D90E008958FEF9FEF0895FC01918DF5
:10082000228D892F90E0805C9F4F821B91098F73EE
:100830009927089588EB92E00E940E0421E0892B0D
:1008400009F420E0822F089580E090E0892B29F0C0
:100850000E941A0481110C9400000895FC01A48DDB
:10086000A80FB92FB11DA35ABF4F2C91848D90E0D2
:1008700001968F739927848FA689B7892C93A089B5
:10088000B1898C91837080648C93938D848D98133F
:1008900006C00288F389E02D80818F7D80830895D2
:1008A000EF92FF920F931F93CF93DF93EC0181E0C0
:1008B000888F9B8D8C8D98131AC0E889F989808167
:1008C00085FF15C09FB7F894EE89FF896083E8899A
:1008D000F98980818370806480839FBF81E090E08C
:1008E000DF91CF911F910F91FF90EF900895F62E19
:1008F0000B8D10E00F5F1F4F0F731127E02E8C8DB3
:100900008E110CC00FB607FCFACFE889F9898081F7
:1009100085FFF5CFCE010E942E04F1CFEB8DEC0FB9
:10092000FD2FF11DE35AFF4FF0829FB7F8940B8F14
:10093000EA89FB8980818062CFCF682F88EB92E0C3
:100940000C945004CF93DF93EC01888D8823B9F089
:10095000AA89BB89E889F9898C9185FD03C08081CA
:1009600086FD0DC00FB607FCF7CF8C9185FFF2CF47
:10097000808185FFEDCFCE010E942E04E9CFDF916B
:10098000CF9108950895E091440280914302E817C1
:1009900030F4F0E0EF56FD4F808190E008958FEF46
:1009A0009FEF08958091430290914402891B990B17
:1009B000089590E080E008952091BB01260F332731
:1009C000331F21323105ECF42091B102FC0190E09B
:1009D00080E0243069F082E00895A091BB0121916C
:1009E000AC0145565E4FA40FB52FB11D2C93019657
:1009F000861798F38091BB01680F6093BB0180E07C
:100A0000089581E00895CF92DF92EF92FF920F93C5
:100A10001F93CF93DF937C01CB018A012091470282
:100A2000222389F0EB016B01C40ED51ECC15DD0528
:100A300069F06991D701ED91FC910190F081E02D71
:100A4000C7010995F3CF642F0E94DC04C801DF9130
:100A5000CF911F910F91FF90EF90DF90CF9008956D
:100A6000CF93DF931F92CDB7DEB769832091470202
:100A70002223F9F020916A02203258F021E030E080
:100A8000FC013383228390E080E00F90DF91CF91CF
:100A9000089580914802E82FF0E0E75BFD4F9981CF
:100AA00090838F5F8093480280936A0281E090E098
:100AB000ECCF61E0CE0101960E94DC04F7CF1092EA
:100AC000B10281E08093900210928B0261E082E19A
:100AD0000E94740161E083E10E947401E9EBF0E09F
:100AE00080818E7F808380818D7F808388E4809366
:100AF000B80085E48093BC000895109244021092DF
:100B000043021092480210926A020E945F058CE430
:100B100091E090934202809341028DE491E09093A2
:100B2000400280933F020895CF93DF9391E090932A
:100B30009A018823B9F0C091B800D091BA00809191
:100B4000BC008A7B8093BC0060E082E10E9474015B
:100B500060E083E10E9474010E945F05D093BA00B7
:100B6000C093B800DF91CF9108958F929F92AF927A
:100B7000BF92CF92DF92EF92FF920F931F93CF938A
:100B8000DF93D82FC62F142F613208F09CC00E942B
:100B900003026B017C018091B10281116FC081E081
:100BA0008093B102109390029FEF90938F02109266
:100BB0008E029C0F90938D0280938C0280918C0208
:100BC000DD0FD82BD0938C0280918B02813009F0FD
:100BD0007CC010928B020E9403026B017C01809109
:100BE0008C028093BB008091B3029091B402A091DB
:100BF000B502B091B602892B8A2B8B2BA1F00E94F3
:100C000003020091B3021091B4022091B502309119
:100C1000B6026C197D098E099F0906171707280768
:100C2000390708F44CC08091BC0083FDD8CF85EC17
:100C30008093BC000E9403026B017C018091B10291
:100C4000813009F444C080918E028C1710F4C09159
:100C50008E02EBE6F2E0A1E9B2E080E08C1359C02D
:100C60008C2FDF91CF911F910F91FF90EF90DF902C
:100C7000CF90BF90AF909F908F9008958091B302D6
:100C80009091B402A091B502B091B602892B8A2B43
:100C90008B2B09F480CF0E9403028090B3029090C6
:100CA000B402A090B502B090B6026C197D098E090D
:100CB0009F0986169706A806B90608F06CCF8091A2
:100CC000B2020E949405C0E0CBCF85EEB1CF8091F7
:100CD000B3029091B402A091B502B091B602892BF3
:100CE0008A2B8B2B09F4AACF0E9403020091B30236
:100CF0001091B4022091B5023091B6026C197D09B1
:100D00008E099F09061717072807390708F096CF9D
:100D1000D6CF91919D938F5FA1CF8F929F92AF92EB
:100D2000BF92CF92DF92EF92FF920F931F93CF93D8
:100D3000DF93D0916A02D13208F0D7C0182FC0914A
:100D400069020E9403026B017C018091B102811152
:100D50006BC082E08093B102109390028FEF80937A
:100D60008F0210928E02D0938D02A9E4B2E0EBE6DE
:100D7000F2E080E0D81391C010928C0280918C0236
:100D8000CC0FC82BC0938C0280918B02813009F06C
:100D900088C010928B020E9403026B017C0180913B
:100DA0008C028093BB008091B3029091B402A09119
:100DB000B502B091B602892B8A2B8B2BA1F00E9431
:100DC00003020091B3021091B4022091B502309158
:100DD000B6026C197D098E099F09061717072807A7
:100DE000390708F442C08091BC0083FDD8CF85EC60
:100DF0008093BC000E9403026B017C018091B102D0
:100E0000823009F450C080918F028F3F09F46FC087
:100E100080918F02803209F46CC080918F02803300
:100E200009F469C084E026C08091B3029091B402B5
:100E3000A091B502B091B602892B8A2B8B2B09F4B5
:100E400084CF0E9403028090B3029090B402A090DD
:100E5000B502B090B6026C197D098E099F098616FD
:100E60009706A806B90608F070CF8091B2020E94DA
:100E7000940585E01092480210926A02109247028F
:100E8000DF91CF911F910F91FF90EF90DF90CF9066
:100E9000BF90AF909F908F9008959D9191938F5F99
:100EA00069CF85EEA5CF8091B3029091B402A09155
:100EB000B502B091B602892B8A2B8B2B09F49ECFF9
:100EC0000E9403020091B3021091B4022091B50276
:100ED0003091B6026C197D098E099F090617170714
:100EE0002807390708F08ACFC0CF81E0C3CF80E060
:100EF000C1CF82E0BFCF83E0BDCF1F93CF93DF93FD
:100F0000EA01122FDC0111968D919C91DC01ED918B
:100F1000FC910280F381E02D0995C817D90729F4C7
:100F2000812F0E948D0691E0811190E0892FDF9141
:100F3000CF911F910895CF93DF93EC018B8188238C
:100F4000A1F0888191E0909347028093690210920A
:100F5000480210926A0281E00E948D0691E08111A0
:100F600090E0892FDF91CF9108950E947D0581E067
:100F70008B83CE010E949B07982F8111E2CFF1CF86
:100F80009B01029740E054E660E070E087309105F5
:100F900080F4FC01E253F84F0C94DB30D507DE07F8
:100FA000E307E807ED07F207F60744E654E664E6D0
:100FB00070E0C9010E94E3000C94280240E054E66E
:100FC00064E670E0F6CF40E055EA6FEF70E0F1CFF5
:100FD00044E650E060E070E0ECCF40E050E064E6D2
:100FE00070E0E7CF40E050E0BA01E3CF42E352E3E4
:100FF00062E370E0DECF809100026EE070E081116C
:1010000004C082E090E00C94C00787E090E0FBCF42
:101010008091E201882331F062E070E084E090E0AA
:101020000E94C0078091E701882331F070E060E002
:1010300084E090E00E94C007809100026DE070E0C3
:10104000811104C082E090E00C94C00787E090E03A
:10105000FBCF962F50E070E060E0592B682BC90160
:101060000E94E3000C9428029C0140E060E080E0D4
:101070000C94290880913302833231F484E0809308
:101080002F021092E8010895843211F485E0F7CF21
:10109000853239F480913202863089F3109234021D
:1010A000F0CF823321F48DE080933402EACF803197
:1010B00081F580913202843111F48EE0F5CF8131D7
:1010C00011F481E0F1CF823111F489E0EDCF823269
:1010D00071F410920602109205021092040210920E
:1010E000030210920202109201028BE0DDCF8432E3
:1010F00011F482E0D9CF8B3241F483E08093340243
:101100001092E801109227020895843439F68AE09B
:10111000CBCF853119F680913202843211F485E00B
:10112000C3CF853211F486E0BFCF823609F0B6CF47
:1011300087E0BACFCF92DF92EF92FF920F931F9387
:10114000CF93DF9300D0CDB7DEB769834A83880F92
:10115000991F00919E0410919F04000F111FE8E455
:10116000F4E09F01285434402017310714F4119201
:10117000F8CF2981FC01E85BFB4F21838A818083C2
:1011800060E080919C040E9474011016110604F521
:1011900001501109F801E85BFB4FE080D0909A0400
:1011A000C090980488E0F82E6E2D661F6627661F93
:1011B0008C2D0E947401EE0C61E08D2D0E94740153
:1011C00060E08D2D0E947401FA94F110EDCFDDCF17
:1011D00061E080919C040F900F90DF91CF911F915F
:1011E0000F91FF90EF90DF90CF900C947401E091FD
:1011F0009E04F0919F048E179F07DCF46830710500
:10120000C4F44031B0F4DC0133E0AA0FBB1F3A95BF
:10121000E1F7E42FF0E0EA57FF4F449121114068D5
:10122000A85BBB4FA60FB71F50964C936F5F0C94F3
:101230009A0808950F931F93CF93DF93EC010197C2
:101240000997A0F420E040E064E070E090E080E0E6
:101250000E94F70820E04C2F65E070E090E080E00D
:10126000DF91CF911F910F910C94F708CA30D105EF
:10127000C4F02AE030E0CE01B9010E94C7308C01F1
:10128000CE01801B910BB9010E94C730462F20E090
:1012900064E070E090E080E00E94F70820E0402FDA
:1012A000DBCFDF91CF911F910F9108950F931F9383
:1012B000CF93DF93EC0101970997A0F420E040E081
:1012C00070E060E090E080E00E94F70820E04C2FA2
:1012D00061E070E090E080E0DF91CF911F910F918D
:1012E0000C94F708CA30D105C4F02AE030E0CE01F2
:1012F000B9010E94C7308C01CE01801B910BB9014E
:101300000E94C730462F20E070E060E090E080E06F
:101310000E94F70820E0402FDBCFDF91CF911F9193
:101320000F9108950F931F93CF93DF93EC010197D3
:101330000997A0F420E040E062E070E090E080E0F7
:101340000E94F70820E04C2F63E070E090E080E01E
:10135000DF91CF911F910F910C94F708CA30D105FE
:10136000C4F02AE030E0CE01B9010E94C7308C0100
:10137000CE01801B910BB9010E94C730462F20E09F
:1013800062E070E090E080E00E94F70820E0402FEB
:10139000DBCFDF91CF911F910F91089570E020E096
:1013A00090E00C94F70820919E0430919F048217DE
:1013B000930774F4FC0123E0EE0FFF1F2A95E1F779
:1013C000E85BFB4FE60FF71F408B6F5F0C949A08AA
:1013D0000895611102C0009771F440E064E070E08C
:1013E00090E080E00E94D30940E065E070E090E08A
:1013F00080E00C94D3090C941A09611102C0009783
:1014000071F440E070E060E090E080E00E94D30979
:1014100040E061E070E090E080E00C94D3090C942F
:101420005609CF92DF92EF92FF920F931F93CF93C3
:10143000DF938EE5E82E81E0F82EF701108211820D
:1014400012821382148215821682379621E0E639C1
:10145000F207A1F7EBE0F2E0AEE5B1E081E0408118
:1014600051816281738177FF20C07095609550959E
:1014700041955F4F6F4F7F4F4083518362837383EA
:101480008C934081518162817381403A96E859077B
:1014900091E0690771055CF0405A56486140710956
:1014A0004083518362837383ECCF1C92EACF91E037
:1014B0004081518162817381403127E25207610589
:1014C00071056CF011969C93119740515742610938
:1014D000710940835183628373839F5FE9CF91E0F9
:1014E0004081518162817381483E23E0520761054A
:1014F00071056CF012969C931297485E53406109F7
:10150000710940835183628373839F5FE9CF91E0C8
:1015100040815181628173814436510561057105B5
:101520006CF013969C931397445651096109710905
:1015300040835183628373839F5FEACF91E0408150
:101540005181628173814A305105610571056CF0EA
:1015500014969C9314974A5051096109710940836C
:101560005183628373839F5FEACF91E04081518111
:101570006281738114161506160617066CF415960B
:101580009C9315974150510961097109408351831A
:10159000628373839F5FEACF3496179691E0AF38EA
:1015A000B90709F05CCF01E010E0D12CC12CD0E0EC
:1015B000C0E0209721F5F701848D44E2813009F0E5
:1015C00044E770E060E0C8010E94D3092196C6306C
:1015D000D10579F72FEFC21AD20A0F5F1F4F87E0AC
:1015E000E80EF11C93E0C916D10409F7DF91CF9101
:1015F0001F910F91FF90EF90DF90CF900895809111
:101600003402833089F4F2E0CF16D10469F4C33098
:10161000D10551F421E040918B0163E070E083E05B
:1016200090E00E94F708D2CF20E0F701EC0FFD1FF9
:10163000448DBE01C801F5CFEF92FF921F93CF9367
:10164000DF9320919E0430919F0482179307B4F496
:10165000EC0123E0880F991F2A95E1F79C01285A95
:101660003B4F790111E0F70111927F0140E0612FBA
:10167000CE010E949A081F5F1930A9F7DF91CF9120
:101680001F91FF90EF9008950C941C0B20919E04E5
:1016900030919F0482179307A4F4E42F440FFF0BAB
:1016A000EA57FF4F4491FC0123E0EE0FFF1F2A95FC
:1016B000E1F7E85BFB4FE60FF71F408B6F5F0C9481
:1016C0009A080895462F20919E0430919F04821716
:1016D00093071CF46AE00C949A0808954F925F9265
:1016E0006F927F92AF92BF92CF92DF92EF92FF9272
:1016F0000F931F93CF93DF938C012A013B0177FE59
:101700004EC0CC24DD247601C418D508E608F708BD
:1017100044E270E060E00E94D309D701C60101975E
:10172000A109B1090997A105B10508F046C0BC2C73
:10173000A12C412C512C3201D0E0C0E020E04B2DF7
:1017400065E070E0C8010E94F70820E04C2F64E0DB
:1017500070E0C8010E94F70820E04D2F63E070E0C0
:10176000C8010E94F70820E0442D62E070E0C80143
:101770000E94F70820E04A2D61E070E0C801DF9187
:10178000CF911F910F91FF90EF90DF90CF90BF907E
:10179000AF907F906F905F904F900C94F70844E764
:1017A00070E060E00E94D3094114510461047104A7
:1017B00009F419C173016201B0CFD701C6010A97BC
:1017C000A109B1098A359105A105B10508F059C0F3
:1017D0003AE0432E512C612C712CC701B601A301B4
:1017E00092010E94B52FB62EA7019601261B370B3A
:1017F000480B590BCA01B901A30192010E94B52FF0
:10180000C22FA12C412C512C3201D0E080EAC81605
:1018100086E8D80681E0E806F1040CF48FCF40E0BA
:1018200070E060E0C8010E94D30940E261E070E02E
:10183000C8010E94460B41E362E070E0C8010E94CB
:10184000460B43E363E070E0C8010E94460B40E3AF
:1018500064E070E0C8010E94460B45E365E070E07B
:10186000C801DF91CF911F910F91FF90EF90DF9012
:10187000CF90BF90AF907F906F905F904F900C94FF
:10188000460BD701C60184569109A109B1098438D4
:101890009340A105B10508F52AE0422E512C612C98
:1018A000712CC701B601A30192010E94B52FB62E7B
:1018B000CA01B901A30192010E94B52FC62FC70129
:1018C000B60124E630E040E050E00E94B52FD22F70
:1018D000A12C412C512C320199CFD701C601885E31
:1018E0009340A109B10988329342A105B10568F579
:1018F0009AE0492E512C612C712CC701B601A3012D
:1019000092010E94B52FB62ECA01B901A30192011E
:101910000E94B52FC62FC701B60124E630E040E093
:1019200050E00E94B52FCA01B901A30192010E94A3
:10193000B52FD62FC701B60128EE33E040E050E0C6
:101940000E94B52F2901A12C61CFD701C60180517A
:101950009742A109B10980399F45A140B105D8F549
:101960008AE0482E512C612C712CC701B601A301CD
:1019700092010E94B52FB62ECA01B901A3019201AE
:101980000E94B52FC62FC701B60124E630E040E023
:1019900050E00E94B52FCA01B901A30192010E9433
:1019A000B52FD62FC701B60128EE33E040E050E056
:1019B0000E94B52FCA01B901A30192010E94B52F5F
:1019C0002B01C701B60120E137E240E050E00E9460
:1019D000B52FA22E1BCFA12C412C512C3201D0E0CF
:1019E000C0E0B12C13CFA12CD0E0C0E0B12CA6CE2A
:1019F000009771F440E062E070E090E080E00E94C7
:101A0000D30940E063E070E090E080E00C94D309FB
:101A10000C9492092F923F924F925F926F927F9215
:101A20008F929F92AF92BF92CF92DF92EF92FF92EE
:101A30000F931F93CF93DF93CDB7DEB72B970FB6DE
:101A4000F894DEBF0FBECDBF1C0160E170E087E0FF
:101A500090E00E94C00781E08093470289E680936E
:101A600069021092480210926A026BE385E593E0E6
:101A70000E94300580E00E948D0641E06EE089E61C
:101A80000E94B50510924402809343020E946101B6
:101A900089830E946101E12CF980E82AF92A0E94D9
:101AA000610189830E94610100E01981082B192BD3
:101AB0000E946101D82E0E946101DA821982298177
:101AC0003A81282B392B3B872A870E9461010E948B
:101AD00061010E9461018F830E9461019A83898361
:101AE0000E94610188870E9461019C838B830E9410
:101AF000610189870E9461019E838D839701285C23
:101B00003109032E000C440B550B305C4F4F5F4FD7
:101B1000A4EBB0E00E94D42F20E030E840E050E099
:101B20000E94B52F2A55310941095109263A8FEFF4
:101B300038070CF40AC12B35310514F02AE530E0E2
:101B4000B901330F880B990B0E94BC2E4B015C012D
:101B50009801285C3109032E000C440B550B305CB6
:101B60004F4F5F4FA4EBB0E00E94D42F20E030E84D
:101B700040E050E00E94B52FDA01C9018A55910971
:101B8000A109B109863A2FEF92070CF4E5C0BC0118
:101B90008B35910514F06AE570E0072E000C880B78
:101BA000990B0E94BC2E6B017C018A859B85885C09
:101BB00091099C01990F440B550B305C4F4F5F4FBF
:101BC000A4EBB0E00E94D42F20E030E840E050E0E9
:101BD0000E94B52FDA01C9018A559109A109B109FD
:101BE000863A2FEF92070CF4BEC0BC018B359105ED
:101BF00014F06AE570E0072E000C880B990B0E9428
:101C0000BC2E2B013C0160E170E087E090E00E9477
:101C1000C0072A94232809F0ADC080E09F81298164
:101C20003A81822B932B63E870E00E94C7306E5F8D
:101C30007F4F072E000C880B990B0E94BC2E9B0136
:101C4000AC010E9419302AE939E949E15EEB0E94B2
:101C5000F72E20E030E048EC52E40E94F72E0E947C
:101C60008530AB01770F660B770B81E090E00E9427
:101C70006E0B80E098852B813C81822B932B63E84F
:101C800070E00E94C730072E000C880B990B0E9451
:101C9000BC2E9B01AC010E9419302AE939E949E1C7
:101CA0005EEB0E94F72E20E030E048EC52E40E9408
:101CB000F72E0E948530AB01770F660B770B82E021
:101CC00090E00E946E0B80E099852D813E81822BF1
:101CD000932B63E870E00E94C730072E000C880B3E
:101CE000990B0E94BC2E9B01AC010E9419302AE97D
:101CF00039E949E15EEB0E94F72E20E030E048EC44
:101D000052E40E94F72E0E948530AB01770F660BDC
:101D1000770B83E090E02B960FB6F894DEBF0FBEF2
:101D2000CDBFDF91CF911F910F91FF90EF90DF908A
:101D3000CF90BF90AF909F908F907F906F905F906B
:101D40004F903F902F900C946E0B812C912C24EB94
:101D5000A22E22ECB22EFCCEC12CD12C94EBE92E7B
:101D600092ECF92E22CF412C512C84EB682E82EC80
:101D7000782E49CFA501940160E070E080E090E406
:101D80000E94183020E030E048EC52E40E94F72E28
:101D90000E948530AB01770F660B770B81E090E0F6
:101DA0000E946E0B20E030E040E450E4C701B60131
:101DB0000E94193020E030E048EC52E40E94F72EF7
:101DC0000E948530AB01770F660B770B82E090E0C5
:101DD0000E946E0BA301920160E070E0CB010E94B3
:101DE00018308BCF4F925F926F927F928F929F921B
:101DF000AF92BF92CF92DF92EF92FF920F931F9319
:101E0000CF93DF9300D000D000D01F92CDB7DEB7C4
:101E10008C011982A0904502B0904602D50114961B
:101E20008D919C911597892B09F45CC08C9191E060
:101E300090934702809369021092480210926A02BE
:101E400020E041E050E0BE016F5F7F4FC5010E947E
:101E50007D07882309F446C0D12CC12CB7E06B2E36
:101E6000712CF501848195817301EC18FD088E15A4
:101E70009F0508F47C0141E0C3018E199F09C81633
:101E8000D90608F440E06E2DD5018C910E94B5056D
:101E900010924402809343028E151F0419F5882482
:101EA0008394912C8C0E9D1E8C0C9D1C2401C401CE
:101EB000841995098E159F0570F4F5018181928131
:101EC000DC01ED91FC910284F385E02D0995F4018C
:101ED00081934F01ECCFCE0CDF1CF7E0CF16D1047D
:101EE00008F4BFCFE981EF77FA81FB804D815E81F5
:101EF0008F81282F30E094E0359527959A95E1F76A
:101F0000922F990F990F291B220F280FD8012C937C
:101F1000852F90E024E0959587952A95E1F7982FF5
:101F2000990F990F891B880F850F11968C93119724
:101F3000642F70E034E0759567953A95E1F7862F48
:101F4000880F880F681B660F640F12966C931297A8
:101F50004F2D50E064E0559547956A95E1F7842F41
:101F6000880F880F481B440F4F0D13964C931397FF
:101F70002F2F30E074E0359527957A95E1F7822F81
:101F8000880F880F281B220F2F0F14962C9314975D
:101F90008E2F90E0F4E095958795FA95E1F7982FCC
:101FA000990F990F891B880F8E0F15968C93C80176
:101FB00027960FB6F894DEBF0FBECDBFDF91CF914D
:101FC0001F910F91FF90EF90DF90CF90BF90AF9057
:101FD0009F908F907F906F905F904F9008950F9398
:101FE0001F93CF93DF9300D000D000D0CDB7DEB7E2
:101FF000CE0101960E94F20E8E8190E02091930115
:10200000309194012817390774F4909394018093C8
:1020100093010E942D0360938F0170939001809330
:102020009101909392010E942D0300918F011091D4
:1020300090012091910130919201601B710B820BF4
:10204000930B2AE030E040E050E00E94E72FCA0105
:10205000B90124E630E040E050E00E94E72F8B0118
:10206000CB016AE070E00E94C730081B190B4C815D
:1020700050E070E060E081E090E00E946E0B4D81E6
:1020800050E070E060E082E090E00E946E0B8E8194
:10209000A80194E6899F400D511D1124052E000CC6
:1020A000660B770B83E090E00E946E0B26960FB6CE
:1020B000F894DEBF0FBECDBFDF91CF911F910F917E
:1020C0000895FC0101900020E9F73197AF01481B0A
:1020D000590BBC0188EB92E00C94B0038F929F9255
:1020E000AF92BF920F931F93CF93DF93CDB7DEB71D
:1020F000A1970FB6F894DEBF0FBECDBF19A2423034
:1021000008F44AE08E010F5D1F4F842E912CB12CF4
:10211000A12CA50194010E94E72FE62FB901CA0165
:10212000EA30F4F4E05DD801EE938D01232B242BEB
:10213000252B79F790E080E0109719F0CD010E94EF
:102140006110A1960FB6F894DEBF0FBECDBFDF9130
:10215000CF911F910F91BF90AF909F908F90089556
:10216000E95CE1CF462F682F70E090E080E00C94AE
:102170006E10AF92BF92CF92DF92EF92FF920F93C9
:102180001F93CF93DF938091B6049091B704DC0145
:10219000ED91FC910190F081E02D6091B8040995DA
:1021A0008091B6049091B704DC01ED91FC9101900F
:1021B000F081E02D6091B90409958091B604909169
:1021C000B704DC01ED91FC910190F081E02D60916C
:1021D000BA0409958091B6049091B704DC01ED91A1
:1021E000FC910190F081E02D6091BB0409958091F4
:1021F000B6049091B704DC01ED91FC910190F0815F
:10220000E02D6091BC0409958091B6049091B704CB
:10221000DC01ED91FC910190F081E02D6091BD0415
:1022200009958091B6049091B704DC01ED91FC9181
:102230000190F081E02D6091BE0409958091B60473
:102240009091B704DC01ED91FC910190F081E02DBB
:102250006091BF0409958091B6049091B704DC01A8
:10226000ED91FC910190F081E02D6091C004099501
:102270008091B6049091B704DC01ED91FC9101903E
:10228000F081E02D6091C10409958091CC048823F0
:1022900009F47FC08BE391E00E946110A090B80424
:1022A000B090B904C090BA04D090BB04E090BC04D4
:1022B000F090BD040091BE041091BF04D091C00401
:1022C000C091C10481E491E00E94611088E491E032
:1022D0000E94611060E170E08A2D0E94B21080E2DD
:1022E0000E949D0460E170E08B2D0E94B21080E29C
:1022F0000E949D0460E170E08C2D0E94B21080E28B
:102300000E949D0460E170E08D2D0E94B21080E279
:102310000E949D0460E170E08E2D0E94B21080E268
:102320000E949D0460E170E08F2D0E94B21080E257
:102330000E949D0460E170E0802F0E94B21080E254
:102340000E949D0460E170E0812F0E94B21080E243
:102350000E949D0460E170E08D2F0E94B21080E227
:102360000E949D0460E170E08C2F0E94B21088E40E
:1023700091E00E94611088E491E0DF91CF911F917C
:102380000F91FF90EF90DF90CF90BF90AF900C94A3
:102390006110DF91CF911F910F91FF90EF90DF902F
:1023A000CF90BF90AF9008950F931F93CF93DF937B
:1023B000182F092FC6EBD4E086E08D831E821F8282
:1023C0008FE088870E94C8000E94B91064E170E025
:1023D00080E090E00E94FB0283E08D831E820F83E9
:1023E00018870E94C8000E94B91068EE73E080E070
:1023F00090E0DF91CF911F910F910C94FB02CF924F
:10240000DF92EF92FF92CF93DF936FE070E090E066
:1024100080E00E94620B6FE070E087E090E00E9435
:10242000C00768EE73E080E090E00E94FB0285E068
:1024300090E00E94D41161E170E082E090E00E949F
:10244000C00768EE73E080E090E00E94FB0264E069
:1024500070E083E090E00E94C00768EE73E080E0E7
:1024600090E00E94FB0260E170E082E090E00E9458
:10247000C00768EE73E080E090E00E94FB0266E037
:1024800070E083E090E00E94C00768EE73E080E0B7
:1024900090E00E94FB026FE070E082E090E00E941A
:1024A000C00768EE73E080E090E00E94FB0268E005
:1024B00070E083E090E00E94C00768EE73E080E087
:1024C00090E00E94FB026DE070E082E090E00E94EC
:1024D000C00761E170E087E090E00E94C00764E01F
:1024E00070E087E090E00E94C00760E170E087E064
:1024F00090E00E94C00766E070E087E090E00E94F4
:10250000C0076FE070E087E090E00E94C00768E0DD
:1025100070E087E090E00E94C0076DE070E087E027
:1025200090E00E94C007D0E0C0E0C430D10509F4BB
:102530005BC00E942D03C090FC01D090FD01E09093
:10254000FE01F090FF016C157D058E059F0550F48E
:102550000E942D036093FC017093FD018093FE01A6
:102560009093FF010E942D03C090FC01D090FD01CB
:10257000E090FE01F090FF016C197D098E099F0922
:10258000643F71408105910588F00E942D036C190C
:102590007D098E099F09683E73408105910530F4DD
:1025A00067E070E083E090E00E94C0070E942D0386
:1025B0006C197D098E099F09683E7340810591055C
:1025C00008F4B3CF67E070E087E090E00E94C007B6
:1025D0000E942D036093FC017093FD018093FE0126
:1025E0009093FF012196A1CF70E060E081E090E040
:1025F0000E94C00764EF71E080E090E00E94FB025F
:1026000061E070E081E090E00E94C00764EF71E05B
:1026100080E090E00E94FB0262E070E081E090E0E8
:102620000E94C00764EF71E080E090E00E94FB022E
:1026300063E070E081E090E00E94C00764EF71E029
:1026400080E090E00E94FB02109230026FE070E0A8
:1026500087E090E00E94C0078091310290E00E94E4
:10266000F80C8091330260E090E00E94FD098091B7
:10267000320260E090E00E94E90910921B02109281
:102680001C0210921D0210921E0284EB90E0A0E04A
:10269000B0E080931F0290932002A0932102B09398
:1026A000220210922302109224021092250210920C
:1026B00026020E94110A44E270E060E081E090E0AE
:1026C0000E94D30968E97AE380E090E00E94FB026F
:1026D00063E070E087E090E00E94C0071092310252
:1026E00084E28093320280E18093330290E080E0C4
:1026F0000E94F80C60E084E290E00E94E90960E04A
:1027000080E190E00E94FD091092F7011092F6011D
:102710001092F1011092F00182E080933402DF9177
:10272000CF91FF90EF90DF90CF900C943A08CF922A
:10273000DF92EF92FF92CF93DF936C01990FEE0837
:10274000FF08F7FE1DC08DE20E949D04EC01662784
:102750007727CB016C197D098E099F094AE00E94F9
:102760006E10C80FD91F88E491E00E9461108C0F91
:102770009D1FDF91CF91FF90EF90DF90CF90089554
:102780004AE0C701B6010E946E10EC01ECCF0F9336
:102790001F93CF93DF938EE00E94F1018C018FE0B5
:1027A0000E94F101EC0180E10E94F101033A23E073
:1027B00012075CF0C33A23E0D20784F0833A23E0A7
:1027C000920764F0C4E1D0E05EC0013E11050CF454
:1027D00060C0023721E012070CF45EC00E3F21E01A
:1027E00012070CF45CC00A3822E012070CF45AC03D
:1027F000063123E012070CF458C0023A13400CF4DF
:1028000057C0C83CD1050CF456C0CA3421E0D207E9
:102810000CF454C0C73C21E0D2070CF452C0C134C0
:1028200022E0D2070CF450C0CC3B22E0D2070CF4DB
:102830004EC0C73323E0D2070CF44CC0C23AD34099
:102840000CF44BC0813E91050CF44AC0823721E064
:1028500092070CF448C08E3F21E092070CF446C06A
:102860008A3822E092070CF444C0863123E09207B4
:102870000CF442C0C1E1D0E0823A93400CF0A2CF08
:10288000CE010E949713CE01DF91CF911F910F913E
:102890000895CAE0D0E0F4CFCCE0D0E0F1CFC7E0BB
:1028A000D0E0EECFC8E0D0E0EBCFC9E0D0E0E8CF99
:1028B000C2E1D0E0E5CFCBE0D0E0E2CFCDE0D0E0A8
:1028C000DFCFC4E0D0E0DCCFC5E0D0E0D9CFC6E0B8
:1028D000D0E0D6CFCEE0D0E0D3CFCFE0D0E0D0CFA5
:1028E000D0E0C0E0CDCFC1E0D0E0CACFC2E0D0E0C0
:1028F000C7CFC3E0D0E0C4CFC0E1D0E0C1CF85ED09
:102900008093BC008091B3029091B402A091B50273
:10291000B091B6020796A11DB11D23E0B695A7950B
:10292000979587952A95D1F72091BC0024FD03C087
:102930001092B10208954091B3025091B402609197
:10294000B5027091B602452B462B472B69F30097D1
:10295000A105B10541F02AE22A95F1F700C00197DF
:10296000A109B109E1CF8091B2020C949405CF92F4
:10297000DF92EF92FF92CF93DF930E94622E24E1C9
:1029800030E040E050E00E94B52F6B017C012AE06E
:10299000C20ED11CE11CF11CE601CF30D10571F053
:1029A000C6018F7E049751F0C131D10539F023E083
:1029B00030E040E060E0CA31D10524F023E030E0AF
:1029C00040E066E980E00E942908C930D10571F035
:1029D000E894C4F883E0C816D10441F0CB31D105A6
:1029E00029F0C630D10511F02F9769F421E130E0CC
:1029F0004AE56AE58AE5DF91CF91FF90EF90DF909D
:102A0000CF900C94290821E130E040E060E080E0C4
:102A1000F2CF2F923F924F925F926F927F928F925E
:102A20009F92AF92BF92CF92DF92EF92FF920F935D
:102A30001F93CF93DF9300D000D000D0CDB7DEB787
:102A400060E085E00E94740160E170E087E090E062
:102A50000E94C0070E942D032B013C010E942D0300
:102A60006B017C010E942D0369837A838B839C8395
:102A70000E942D0329813A814B815C81621B730B7B
:102A8000840B950B28EE33E040E050E00E94E72FE6
:102A900030939901209398011092000210929701AF
:102AA000109296011092950186EF282E33243A94C5
:102AB0008091980190919901843091400CF0FCC371
:102AC0000E942D0329813A814B815C81621B730B2B
:102AD000840B950B28EE33E040E050E00E94E72F96
:102AE00049018901309399012093980180919701C0
:102AF0008823A9F081E0809395011092970141EB22
:102B000054E060E070E081E090E00E946E0B41EBE9
:102B100054E060E070E082E090E00E946E0B8091F3
:102B200096018823A9F081E0809395011092960187
:102B300042EB54E060E070E081E090E00E946E0BB8
:102B400042EB54E060E070E082E090E00E946E0BA7
:102B50000830110571F588EB9BE090930701809395
:102B600006010E34110509F041C088E290E090930F
:102B700003018093020180E991E090930701809323
:102B8000060186EA9FEF90930501809304010E3BB6
:102B90001105D9F523E130E03093030120930201C0
:102BA00042E350E0509307014093060187EE9FEF08
:102BB0009CC00231110589F4109295011092000217
:102BC0001092970167E070E087E090E00E94C007F4
:102BD0000E942D036B017C01C4CF0831110529F53A
:102BE00080ED97E090930701809306010C38110562
:102BF00059F58AEF90E0909307018093060188EDE4
:102C00009FEF9093050180930401083C110561F545
:102C100026E030E0309303012093020144E150E0CC
:102C2000509307014093060150C00B33110599F5ED
:102C30008CEB92E090930701809306018CE99FEF63
:102C40009093050180930401003A110509F042C0F8
:102C500088EC90E090930701809306018DED9FEF43
:102C600090930501809304010C3D110509F041C0CA
:102C70008EE090E090930301809302012AE030E01F
:102C800030930701209306014CEF5FEF509305014D
:102C9000409304012EC00534110509F062CF8CE188
:102CA00092E0909307018093060184ED9EEF90934C
:102CB000050180930401043B110509F068CF86E407
:102CC00090E09093070180930601309205012092D5
:102CD00004010FC00A3A110571F744E650E0509321
:102CE00007014093060181EF9FEF909305018093C8
:102CF0000401C4010997099708F04FC081E080934F
:102D000000020930110509F0B1C281E090E00E9493
:102D1000440B82E090E00E94440B83E090E00E942C
:102D2000440B0E942D036C157D058E059F0520F434
:102D30000E942D036B017C010E942D036C197D09FB
:102D40008E099F09643F71408105910588F00E94BA
:102D50002D036C197D098E099F09683E734081051A
:102D6000910530F467E070E083E090E00E94C007D6
:102D70000E942D036C197D098E099F09683E7340DE
:102D80008105910550F067E070E087E090E00E94D7
:102D9000C0070E942D036B017C01C4018C9704972E
:102DA00008F076C281E0809300020C32110509F030
:102DB00068C281E090E00E94440B82E090E00E94B3
:102DC000440B83E090E00E94440B0E942D036C159D
:102DD0007D058E059F0520F40E942D036B017C016B
:102DE0000E942D036C197D098E099F09643F714073
:102DF0008105910588F00E942D036C197D098E09CB
:102E00009F09683E73408105910530F467E070E0EA
:102E100083E090E00E94C0070E942D036C197D0999
:102E20008E099F09683E73408105910550F067E067
:102E300070E087E090E00E94C0070E942D036B01C4
:102E40007C01A4014C5451095E834D8347305105E8
:102E500008F04DC081E490E00E9492098D819E812E
:102E6000059708F044C086E090E00E9456098CE384
:102E700090E00E941A090E942D036C157D058E05B5
:102E80009F0520F40E942D036B017C010E942D03FD
:102E90006C197D098E099F09643F71408105910578
:102EA00088F00E942D036C197D098E099F09683EE8
:102EB00073408105910530F463E070E090E080E0BC
:102EC0000E94620B0E942D036C197D098E099F09D7
:102ED000683E73408105910550F06FE070E090E02E
:102EE00080E00E94620B0E942D036B017C01C401F3
:102EF000815591090C9770F484E490E00E941A09BE
:102F000080E190E00E9456096FE070E090E080E080
:102F10000E94620BC4018D559109079708F045C0C6
:102F200082E490E00E9492098D819E81479708F08B
:102F3000B8C10E942D036C157D058E059F0520F4F8
:102F40000E942D036B017C010E942D036C197D09E9
:102F50008E099F09643F71408105910588F00E94A8
:102F60002D036C197D098E099F09683E7340810508
:102F7000910530F463E070E090E080E00E94620B25
:102F80000E942D036C197D098E099F09683E7340CC
:102F90008105910550F06FE070E090E080E00E94C4
:102FA000620B0E942D036B017C0156E8851A910883
:102FB00081E48816910460F469E070E083E090E0B9
:102FC0000E94C0076AE070E083E090E00E94C007C2
:102FD0008091000281119FC08091970181119BC057
:102FE00080919601811197C00F3F110511F00CF0EF
:102FF00092C066E070E087E090E00E94C0070E9407
:103000002D03641575058605970520F40E942D0390
:103010002B013C010E942D0364197509860997094B
:103020006C3271408105910508F475C00E94622ED2
:1030300023E030E040E050E00E94B52F40910201D3
:1030400050910301461B570B50930301409302011B
:103050002091040130910501F901E60FF71FF0936B
:103060000501E09304012091060130910701261B20
:10307000370B309307012093060157FF04C01092CD
:1030800003011092020137FF04C010920701109251
:1030900006011E161F0624F4109205011092040169
:1030A0008091980190919901823E910564F010926F
:1030B0000301109202011092050110920401109276
:1030C0000701109206014091020150910301052E63
:1030D000000C660B770B81E090E00E946E0B409134
:1030E000040150910501052E000C660B770B82E060
:1030F00090E00E946E0B4091060150910701052E51
:10310000000C660B770B83E090E00E946E0B0E9430
:103110002D032B013C0110910002111126C040919A
:103120009801509199015E834D83423E5105ECF028
:1031300069E070E087E090E00E94C0076AE070E01C
:1031400087E090E00E94C0078D819E81833E9105BB
:1031500064F060E170E082E090E00E94C0076AE005
:1031600070E087E090E00E94C0070E942D038090ED
:10317000650390906603A0906703B090680368159C
:1031800079058A059B0550F40E942D036093650321
:103190007093660380936703909368030E942D03E6
:1031A0008090610390906203A0906303B0906403E9
:1031B000681579058A059B0550F40E942D036093DC
:1031C00061037093620380936303909364030E948E
:1031D0002D038090610390906203A0906303B090F0
:1031E0006403681979098A099B09683C710581059E
:1031F000910570F00E942D03609361037093620348
:103200008093630390936403111102C00E94B7146A
:103210008091000281114CCC80919801909199018C
:10322000883F91050CF444CC60E085E00E94740175
:1032300061E170E087E090E00E94C00763E070E029
:1032400087E090E00E94C00790E080E00E94F80CC8
:1032500080E190E00E94560984E290E00E941A0901
:1032600082E0809334020E94EF0F22CC0B301105D4
:103270000CF457CD90919501911153CD8093970106
:1032800050CD909195019111A0CD809396019DCD47
:103290000233110509F0D5CD10920002109296016B
:1032A000C6CD0336110509F080CE6FE070E090E0E6
:1032B00080E00E94620B79CE26960FB6F894DEBFAE
:1032C0000FBECDBFDF91CF911F910F91FF90EF9077
:1032D000DF90CF90BF90AF909F908F907F906F9036
:1032E0005F904F903F902F900895CF92DF92EF9292
:1032F000FF92CF93DF93809100019091B7029923C1
:10330000F1F1882309F440C0109200010E94622E5E
:1033100021E330E040E050E00E94B52F6B017C01DA
:103320002FEFC21AD20AE20AF20AE60163E070E065
:10333000CF30D10519F0C931D105B1F481E090E069
:103340000E94C007E894C3F881E1C816D10491F443
:1033500061E170E082E090E0DF91CF91FF90EF902B
:10336000DF90CF900C94C00787E090E00E94C007E8
:10337000619771F361E170E087E090E0EDCF81113A
:1033800003C081E080930001DF91CF91FF90EF9027
:10339000DF90CF900895CF93DF93EC0160E170E070
:1033A00087E090E00E94C007809101019091B702F0
:1033B000992359F0882389F0109201010E94751910
:1033C000CE01DF91CF910C940A0D811106C00E94AD
:1033D000751981E080930101F3CFDF91CF910895BA
:1033E0001F920F920FB60F9211242F933F938F933A
:1033F0009F93AF93BF938091370290913802A09131
:103400003902B0913A023091360223E0230F2D3772
:1034100058F50196A11DB11D209336028093370205
:1034200090933802A0933902B0933A0280913B0204
:1034300090913C02A0913D02B0913E020196A11DE7
:10344000B11D80933B0290933C02A0933D02B09348
:103450003E02BF91AF919F918F913F912F910F901D
:103460000FBE0F901F90189526E8230F0296A11DFE
:10347000B11DD2CF1F920F920FB60F9211242F932E
:103480003F934F935F936F937F938F939F93AF93EC
:10349000BF93EF93FF9388EB92E00E942E04FF917D
:1034A000EF91BF91AF919F918F917F916F915F91BC
:1034B0004F913F912F910F900FBE0F901F90189535
:1034C0001F920F920FB60F9211242F938F939F93F9
:1034D000EF93FF93E091C802F091C9028081E091DF
:1034E000CE02F091CF0282FD1BC090818091D1026B
:1034F0008F5F8F732091D202821741F0E091D10249
:10350000F0E0E854FD4F958F8093D102FF91EF9149
:103510009F918F912F910F900FBE0F901F90189534
:103520008081F4CF1F920F920FB60F9211242F9328
:103530003F934F935F936F937F938F939F93AF933B
:10354000BF93EF93FF938091B900887F803609F491
:103550004AC0F0F5883209F4A7C018F5803109F4A3
:103560009BC0B8F4882309F4F9C0883009F494C0EA
:10357000FF91EF91BF91AF919F918F917F916F914B
:103580005F914F913F912F910F900FBE0F901F9021
:103590001895883109F488C0803251F780938F02E2
:1035A00014C0803409F49DC040F48033B9F38833EB
:1035B000F9F680938F0285ECB0C0803509F485C0A0
:1035C000883509F496C0883499F60E947F14D0CFCC
:1035D000883909F48CC038F5883729F050F48836DA
:1035E00011F0803729F683E08093B1021092DD015B
:1035F00057C0883809F47BC0803919F0803809F049
:10360000B7CF8091DD01803208F071C0E091DD011B
:1036100081E08E0F8093DD018091BB00F0E0E354E8
:10362000FE4F80833DC0803B39F0E0F4803A09F4DE
:1036300079C0883A09F09CCF84E08093B10210925F
:10364000BC011092BB01E0914102F0914202099548
:103650008091BB0181110FC081E08093BB0110926A
:103660009B0109C0803C09F4A6CF883C09F4A3CF94
:10367000883B09F07DCFE091BC0181E08E0F809303
:10368000BC01F0E0E556FE4F80818093BB00909135
:10369000BC018091BB0129C080918C028093BB004A
:1036A00085EC8093BC0064CF90918E0280918D0256
:1036B000981758F5E0918E0281E08E0F80938E026C
:1036C000F0E0E559FD4F8081E9CFE0918E0281E085
:1036D0008E0F80938E028091BB00F0E0E559FD4F84
:1036E000808390918E0280918D029817C8F285E8B0
:1036F000D8CFE0918E0281E08E0F80938E02809170
:10370000BB00F0E0E559FD4F80838091900281116C
:103710005CCF81E080938B0284EA8093BC0010929E
:10372000B10226CF85EC8093BC001092B10280914B
:10373000DD01803230F4E091DD01F0E0E354FE4F32
:1037400010826091DD0170E0E0913F02F091400253
:103750008DEB91E009951092DD010ACF10928F0256
:1037600034CFCF93DF931092BB021092BA0288EE4F
:1037700093E0A0E0B0E08093BC029093BD02A093E0
:10378000BE02B093BF022BE131E03093B902209327
:10379000B80225EC30E03093C5022093C40224EC3B
:1037A00030E03093C7022093C60220EC30E0309323
:1037B000C9022093C80221EC30E03093CB02209361
:1037C000CA0222EC30E03093CD022093CC0226ECEA
:1037D00030E03093CF022093CE021092D1021092AB
:1037E000D2021092D3021092D40210925803109277
:1037F00057038093590390935A03A0935B03B093AC
:103800005C038DE291E090935603809355031092F0
:10381000A1041092A8041092AF041092B004109268
:10382000B1041092B20481E08093AE048093AB04A3
:103830001092AC0492E09093AD048093A00486E3D0
:1038400090E09093A5048093A4040E94F530909397
:10385000AA048093A904009709F497C026E3DC0129
:103860001D922A95E9F782E190E09093A30480935A
:10387000A20486E090E09093A7048093A604809130
:10388000A104882341F061E086E00E94C00160E06D
:1038900086E00E947401EAE2F1E0E491F0E0EE0FCC
:1038A000FF1FE65EFE4F859194919093B404809340
:1038B000B304ECE0F1E0E491E093B504CCE0D0E0B7
:1038C000D0939904C09398048AE090E090939B046D
:1038D00080939A048BE090E090939D0480939C04E5
:1038E00084E090E090939F0480939E0461E08CE0DC
:1038F0000E94C00161E080919A040E94C00161E0D1
:1039000080919C040E94C00161E080919C040E940F
:103910007401D0939904C0939804E8E5F4E088E931
:1039200094E011928E179F07E1F7D0E0C0E08091FC
:103930009E0490919F04C817D90784F540E06FE07A
:10394000CE010E949A0880919E0490919F04C8170E
:10395000D9072CF447E06BE0CE010E949A0840E0C2
:1039600069E0CE010E949A08CE010E941C0B809152
:103970009E0490919F04C817D9072CF440E06CE096
:10398000CE010E949A082196D2CF1092A5041092DF
:10399000A4041092A3041092A2046BCF10921704F7
:1039A00010921604E8E1F4E080E3DF011D928A95AD
:1039B000E9F71092690310926A0310926C03109257
:1039C0006B0310926D0310926E0310926F031092AE
:1039D000700310927103109273031092720310928D
:1039E000740310927503109276031092770310926D
:1039F000780310927A031092790310927B0310924D
:103A00007C0310927D0310927E0310927F0310922C
:103A1000810310928003109282031092830310920C
:103A20008403109285031092860310928B031092E8
:103A30008C0310928D0310928E0310928F031092BC
:103A400090031092990310929A0310929B03109284
:103A50009C0310929D0310929E031092A703109254
:103A6000A8031092AD031092AE031092AF03109210
:103A7000B0031092B5031092B6031092BB031092DC
:103A8000BC031092BD031092BE031092C3031092A8
:103A9000C4031092C9031092CA031092CB03109270
:103AA000CC031092D1031092D2031092D70310923C
:103AB000D8031092D9031092DA031092DF03109208
:103AC000E0031092E5031092E6031092E7031092D0
:103AD000E8031092ED031092EE0382E08093FE0360
:103AE0001092FF031092000410920104109203043C
:103AF000109202041092050410920404109206041D
:103B000010920704109208041092090410920A04FB
:103B100010920B0410920C0410920D0410920E04DB
:103B200010920F04109210041092110410921204BB
:103B30001092130410921404109215041092EF03C3
:103B40000E942D036093650370936603809367035F
:103B5000909368030E942D03609361037093620346
:103B600080936303909364031092CD041092CE046B
:103B70001092CF041092D0041092D1041092D2046B
:103B80001092D3041092D4041092D5041092D6044B
:103B90001092D7041092D8041092D9041092DF0426
:103BA0001092DE04DF91CF910895CF93DF93CDB7CC
:103BB000DEB7C256D1090FB6F894DEBF0FBECDBF37
:103BC000789484B5826084BD84B5816084BD85B5F8
:103BD000826085BD85B5816085BD80916E00816004
:103BE00080936E00109281008091810082608093AA
:103BF00081008091810081608093810080918000AC
:103C00008160809380008091B10084608093B100D6
:103C10008091B00081608093B00080917A008460D0
:103C200080937A0080917A00826080937A008091FC
:103C30007A00816080937A0080917A008068809316
:103C40007A001092C10060E08EE00E94C00160E046
:103C50008FE00E94C00160E080E10E94C00160E04E
:103C600085E10E94C00161E087E00E94C00160E040
:103C700087E00E94740185E10E94F101BC01990F67
:103C8000880B990B611571058105910511F00E9452
:103C9000B12E8091A6049091A70497FD08C061E021
:103CA0000E94C00160E08091A6040E94740181E03E
:103CB0008093A10410E000E080919E0490919F0405
:103CC000081719072CF441E06CE0C8010E949A081B
:103CD00068E070E0C8010E94620BC8010E941C0BE2
:103CE0000F5F1F4F0430110539F70E947D0581E0F9
:103CF0008093470289E680936902109248021092ED
:103D00006A026BE685E593E00E94300560E085E598
:103D100093E00E94300581E00E948D06809145026B
:103D200090914602009711F00E94913186E090E058
:103D30000E94F5308C0188E6D8018C9385E593E0EC
:103D400012969C938E93119713961C92139780E270
:103D500090E015969C938E931497109346020093CF
:103D600045020E947D0581E0F8018383C8010E941D
:103D70009B074EE853E068EE73E080E090E00E941D
:103D800039034BE953E068E572E080E090E00E947F
:103D9000390348EA53E06AEF70E080E090E00E9467
:103DA0003903E091C802F091C90202E00083E0917A
:103DB000C402F091C5021082E091C602F091C702E0
:103DC0008FEC80831092D002E091CC02F091CD0272
:103DD00016E01083E091CA02F091CB0280818061ED
:103DE0008083E091CA02F091CB0280818860808359
:103DF000E091CA02F091CB02808180688083E091DB
:103E0000CA02F091CB0280818F7D808384E690E0AE
:103E1000A0E0B0E08093DA049093DB04A093DC048C
:103E2000B093DD041092CD048093D6049093D70410
:103E3000A093D804B093D9040E942D036093D204B8
:103E40007093D3048093D4049093D50488EB92E0CC
:103E50009093B7048093B6041092CC042EE720937D
:103E6000B8049FEF9093B9041093BA048FEE809337
:103E7000C1042093C2049093C3041093C40480939C
:103E8000CB0419E01093BB041092BC041092BD0443
:103E900084E08093BE040E94C8000E94B910109371
:103EA000BB041092BC041092BD040093BE040E9497
:103EB000C8000E94B91010E000E0980140E060E006
:103EC00080E00E94290868EC70E080E090E00E94A9
:103ED000FB02980140E066E980E00E9429080F5F3C
:103EE0001F4F0430110549F797E1E92EF12C0B30F3
:103EF00011057CF4980140E064E684E60E942908FC
:103F00009701201B310B44E664E684E60E942908F1
:103F100003C00D301105A4F362E370E080E090E08F
:103F20000E94FB020F5F1F4F0231110501F710E0E5
:103F300000E048E0602F812F0E94CE0969E170E027
:103F400080E090E00E94FB020F5F063091F71F5F58
:103F5000143071F768EE73E080E090E00E94FB029D
:103F600003E010E0980140E060E080E00E94290852
:103F70000F5F1F4F0B301105A9F70031110531F00C
:103F8000980140E060E080E00E9429080F5F1F4F29
:103F90000231110591F790E080E00E941C0B81E056
:103FA00090E00E941C0B82E090E00E941C0B83E0DA
:103FB00090E00E941C0B1092330240E070E060E041
:103FC00090E080E00E94D30940E061E070E090E082
:103FD00080E00E94D30980913102882359F040E0AB
:103FE00060E080E00E94CE0940E061E080E00E9455
:103FF000CE090EC040E062E070E090E080E00E94F8
:10400000D30940E063E070E090E080E00E94D309D3
:104010008091320240E081111BC164E070E090E0C9
:1040200080E00E94D30940E065E070E090E080E02D
:104030000E94D30984E180930A0110922F020E940A
:104040003A0864E670E080E090E00E94FB0281E0C4
:1040500090E00E94440B64E670E080E090E00E94F3
:10406000FB0282E090E00E94440B64E670E080E096
:1040700090E00E94FB0283E090E00E94440B64E623
:1040800070E080E090E00E94FB0270E060E081E080
:1040900090E00E94C00764E670E080E090E00E943B
:1040A000FB0262E070E081E090E00E94C00764E6FD
:1040B00070E080E090E00E94FB0261E070E081E04F
:1040C00090E00E94C00764E670E080E090E00E940B
:1040D000FB0260E170E082E090E00E94C0079E0178
:1040E0002F5F3F4FA2963FAF2EAFA29708E114E09B
:1040F000D8018D919C91892B89F10E942D036B0130
:104100007C01F80184819581A681B781B701A60160
:10411000481B590B6A0B7B0B80859185A285B38563
:10412000481759076A077B07C8F00190F081E02D16
:10413000D80112968D919C910995882309F492C01B
:10414000F80184859585892B09F48CC021E030E045
:1041500035872487C482D582E682F782005F1F4FAD
:10416000F4E008341F0720F20E942D0308E114E058
:10417000D8018D919C91892B09F086C0005F1F4F5B
:10418000B4E008341B07A0F30E942D039091DF01D7
:104190008091DE0120910002222309F495C0992329
:1041A00009F488C0811109C06BE070E088E090E0FC
:1041B0000E94C00781E08093DE01809135028E333A
:1041C00009F08DC081E090E00E94D4111092350278
:1041D0001092340210923302109232021092310285
:1041E00060E090E080E00E94FD0960E090E080E007
:1041F0000E94E90990E080E00E94F80C81E090E0E4
:104200000E94440B82E090E00E94440B83E090E027
:104210000E94440B80913002882331F06FE070E0FF
:1042200082E090E00E94C007809134028E3021F439
:104230008FE090E00E94340880912F028111FFC22C
:104240008091E801882309F455C00E943A0880C093
:1042500064E080E00E94CE0940E065E080E00E94DA
:10426000CE09E8CEF80111821082138212821482E4
:10427000158216821782108611861286138615867D
:104280001486178616866ACF0E942D03F801C48013
:10429000D580E680F7806C197D098E099F09C0845E
:1042A000D184E284F3846C157D058E059F0508F4A6
:1042B00065CF6ACF882309F480CF6BE070E087E098
:1042C00090E00E94C00779CF992331F0882309F448
:1042D00074CF1092DE0171CF81116FCFEECF853494
:1042E00019F484E090E070CF863409F093CF83E036
:1042F00090E06ACF8091ED0181110E9408080E9430
:10430000C71380930A0190910901891729F091E060
:104310009093080180930901909108019923C1F0BD
:104320008A3009F042C281E080932F021092080186
:1043300090913302209128029A3008F02FC22093E6
:1043400028022091290280E098132CC22093290290
:1043500080913402813021F490E080E00E94CB19FA
:10436000809134028C3009F0B0C04EE762E070E01A
:1043700090E080E00E94D3094EE763E070E090E0B7
:1043800080E00E94D3094EE764E070E090E080E0B6
:104390000E94D3094EE765E070E090E080E00E9463
:1043A000D30910921B0210921C0210921D0210924F
:1043B0001E0210921F0210922002109221021092EF
:1043C00022021092230210922402109225021092CF
:1043D00026020E94110A60ED77E080E090E00E94E2
:1043E000FB0201E010E0F12CE12C4EE7B701C8011F
:1043F0000E94D30963E070E080E090E00E94FB023D
:104400004CE7B701C8010E94D30963E070E080E087
:1044100090E00E94FB0248E7B701C8010E94D3095F
:1044200063E070E080E090E00E94FB0240E7B701AB
:10443000C8010E94D30963E070E080E090E00E9430
:10444000FB0240E6B701C8010E94D30963E070E0B7
:1044500080E090E00E94FB0240E4B701C8010E94A6
:10446000D30963E070E080E090E00E94FB0240E04E
:10447000B701C8010E94D30963E070E080E090E0DA
:104480000E94FB0240E0B701C8010E94D30963E02B
:1044900070E080E090E00E94FB02FFEFEF1AFF0A5D
:1044A00026E0E216F10409F0A0CF0F5F1F4F0430A1
:1044B000110509F098CF60E170E087E090E00E947C
:1044C000C0071092340210922F02809134028D3076
:1044D00009F02DC60E94C71380930A018091300213
:1044E00081118AC063E070E081E090E00E94C00723
:1044F0006FE070E082E090E00E94C00786E0809369
:10450000310282E38093330289E18093320286E0B4
:1045100090E00E94920960E082E390E00E94FD0931
:1045200060E089E190E00E94E9098EE390E0A0E07C
:10453000B0E080931B0290931C02A0931D02B093E5
:104540001E0210921F02109220021092210210925D
:10455000220210922302109224021092250210923D
:1045600026020E94110A0E942D030091FC01109165
:10457000FD012091FE013091FF0160177107820754
:10458000930750F40E942D036093FC017093FD018A
:104590008093FE019093FF010E942D03C090FC01C7
:1045A000D090FD01E090FE01F090FF016C197D09B3
:1045B0008E099F09643F71408105910510F00E94AA
:1045C0002D030E942D036C197D098E099F09683EF9
:1045D00073408105910580F06FE070E090E080E02D
:1045E0000E94620B0E942D036093FC017093FD01F9
:1045F0008093FE019093FF0111E080913002909131
:104600000A019E3009F01DC581111DC50E942D03B0
:10461000C090FC01D090FD01E090FE01F090FF0100
:104620006C157D058E059F0550F40E942D03609347
:10463000FC017093FD018093FE019093FF010E94A5
:104640002D03C090FC01D090FD01E090FE01F090A0
:10465000FF016C197D098E099F09643F7140810536
:10466000910510F00E942D030E942D036C197D0905
:104670008E099F09683E73408105910580F06FE0C7
:1046800070E090E080E00E94620B0E942D03609336
:10469000FC017093FD018093FE019093FF010E9445
:1046A0002D03C090F801D090F901E090FA01F0904C
:1046B000FB016C157D058E059F0550F40E942D03AE
:1046C0006093F8017093F9018093FA019093FB01D4
:1046D0000E942D03C090F801D090F901E090FA01FA
:1046E000F090FB016C197D098E099F09683E7340AB
:1046F0008105910598F08091F6019091F70101965E
:104700009093F7018093F6010E942D036093F801C6
:104710007093F9018093FA019093FB018091F60167
:104720009091F70102970CF468CF61E070E087E0A8
:1047300090E00E94C00762E070E087E090E00E9495
:10474000C00770E060E087E090E00E94C00763E08F
:1047500070E087E090E00E94C00790E080E00E9457
:104760001C0B81E090E00E941C0B82E090E00E9414
:104770001C0B83E090E00E941C0B6CE271E080E077
:1047800090E00E94FB021093300210920A016CED3F
:1047900075E080E090E00E94FB022FCF9A50282F16
:1047A0008F5FCACD8F5F282FCFCD8B30E9F482E0A9
:1047B00080932F0210920801909132022091E30120
:1047C00081E09A3050F42093E3012091E40180E0ED
:1047D000981307C02093E401BBCD9A50282F8F5F18
:1047E000F0CF8F5F282FF4CF8E30E9F483E08093F1
:1047F0002F0210920801909131022091E90181E08D
:104800009A3050F42093E9012091EA0180E0981356
:1048100007C02093EA019CCD9A50282F8F5FF0CFDC
:104820008F5F282FF4CF813109F092CD1092ED01E6
:104830008DE090E00E9434081092080189CD81300B
:1048400009F0FEC062E070E083E090E00E94C007E3
:104850000E94FB078091ED0181110E9408080E94CF
:10486000C713182F80930A0180910901181303C000
:104870001092080151C081E0809308011093090152
:104880008091ED01882309F44CC0113109F049C031
:104890001092ED011092E20162E070E081E090E0A0
:1048A0000E94C00740E070E060E090E080E00E947D
:1048B000D30940E061E070E090E080E00E94D3091D
:1048C0001092080180910801882309F4A3C01031D7
:1048D00009F08AC010922F028EE090E00E94340806
:1048E00062E070E081E090E00E94C0071092270231
:1048F0001092080180913302811169C040E070E09C
:1049000060E090E080E00E94D30940E061E070E068
:1049100090E080E00E94D3098FE090E00E9434088C
:1049200017CD1F3079F610920801809133028093E1
:10493000EF019091E0010091E101FAE09F9F000DED
:10494000112400933302801741F08091320280934A
:10495000EE0160E090E00E94E9090531F1F08DED93
:10496000800F8330D0F00233C1F00F7EB1F081E0D0
:104970008093ED018093E2019091280280912902B9
:104980002AE0929F800D11248093330262E070E050
:1049900081E090E00E94C00795CF8DE090E00E94FA
:1049A00034088EE090E00E94340862E070E081E01C
:1049B00090E00E94C00710922F02109227021092DE
:1049C000ED011092E20181E08093E8017BCF4091FC
:1049D000280260E080E00E94CE094091290261E057
:1049E00080E00E94CE0998CF82E01B3041F01E305B
:1049F00089F4809134028D3009F48ECF83E0809366
:104A00002F0262E070E081E090E00E94C007109207
:104A100027022ECF1A3008F07FCF009127020230F4
:104A200008F07ACFE02FF0E0E052FE4F1083412FE4
:104A3000602F80E00E94CE090F5F0093270218CFFD
:104A4000823009F09DC070E060E083E090E00E9459
:104A5000C0070E94FB078091ED0181110E940808A8
:104A60000E94C71380930A0190910901891709F4E4
:104A7000FFCE91E090930801809309019091ED01A0
:104A8000992399F0813189F41092ED011092E70198
:104A900070E060E081E090E00E94C0076DE070E0AF
:104AA00087E090E00E94C007E3CE8F3011F00C94B5
:104AB000AD2D10920801809132028093EE01209179
:104AC000E5019AE08091E601299F800D11248093F1
:104AD00032022FEE280F223018F1882309F1282FF7
:104AE0002F7B2232E9F08630D9F08432C9F08B3244
:104AF000B9F08434A9F02091E3018091E401299F69
:104B0000800D11248093320281E08093ED01809327
:104B1000E70170E060E081E090E00E94C007FCCE19
:104B20008DE090E00E9434088EE090E00E9434080E
:104B300070E060E081E090E00E94C00710922F02D8
:104B4000109227021092ED011092E70181E080930C
:104B5000E801E2CE60E090E080E00E94E909DCCE6E
:104B600080910801882309F4D7CE809134028D30DA
:104B700009F4D2CE83E080932F0270E060E043CF4F
:104B8000833009F0BBC08091ED01882341F08BE4B4
:104B900091E00E94611088E491E00E94611061E060
:104BA00070E085E090E00E94C0070E94FB078091C2
:104BB000ED0181110E9408080E94C71380930A0129
:104BC00090910901891709F453CE91E0909308015F
:104BD000809309019091ED01992351F1813141F5C3
:104BE0001092ED0161E070E081E090E00E94C0076A
:104BF0006DE070E087E090E00E94C007109208012D
:104C000040910A0180910901481709F465C081E0CB
:104C10008093080140930901403109F0E2C71092E6
:104C20002F028EE090E00E94340861E070E0EBCE4D
:104C30008F3031F7109208019091EB018091EC01D7
:104C40003AE0939F800D1124809331026AE070E076
:104C50000E94B21088E491E00E9461101092080155
:104C6000809131028531A1F0833291F08E3381F051
:104C70009BEB980F923060F08F7E51F081E0809333
:104C8000ED0161E070E081E090E00E94C007B8CFE4
:104C90008091E9011091EA014AE0849F100D1124EE
:104CA000109331028DE090E00E9434088EE090E095
:104CB0000E94340861E070E081E090E00E94C0074B
:104CC0001093350210922F02109227021092ED01DC
:104CD00081E08093E80194CF403131F48091080164
:104CE000882309F419CE9BCF4A3009F07DC7809103
:104CF0000801882309F410CE81E03DCF843009F00B
:104D00005AC18FE090E00E94340803E010E00330C5
:104D1000110581F463E070E081E090E00E94C0073B
:104D200027E130E0201B310B44E664E684E60E9474
:104D3000290807C00B3011050CF42BC70D301105E5
:104D40007CF362E370E080E090E00E94FB020F5F82
:104D50001F4F02311105D9F610E000E048E0602F46
:104D6000812F0E94CE0969E170E080E090E00E940E
:104D7000FB020F5F063091F71F5F143071F76CED87
:104D800075E080E090E00E94FB028091EF0180934B
:104D900033028091EE018093320204E010E090E053
:104DA00080E00E941C0B6EE070E087E090E00E94C3
:104DB000C0076DE070E087E090E00E94C00764EFFC
:104DC00071E080E090E00E94FB028091310281114D
:104DD000C5C048E063E00E94CE0948E062E080E0A0
:104DE0000E94CE09809133028111BCC048E060E08E
:104DF0000E94CE0948E061E080E00E94CE0948E0D0
:104E000064E080E00E94CE0948E065E080E00E9416
:104E1000CE096EE070E082E090E00E94C0076DE095
:104E200070E082E090E00E94C00764EF71E080E0F3
:104E300090E00E94FB020150110909F0B0CF03E09D
:104E400010E0980140E060E080E00E9429080F5FD8
:104E50001F4F0B301105A9F70031110531F09801F2
:104E600040E060E080E00E9429080F5F1F4F0231A0
:104E7000110591F790E080E00E941C0B81E090E02A
:104E80000E941C0B82E090E00E941C0B83E090E0EB
:104E90000E941C0B8091330240E081116EC070E0D3
:104EA00060E090E080E00E94D30940E061E070E0C3
:104EB00090E080E00E94D3098091310240E08111AE
:104EC00066C062E070E090E080E00E94D30940E0BC
:104ED00063E070E090E080E00E94D309109132021C
:104EE00040E011115EC064E070E090E080E00E945C
:104EF000D30940E065E070E090E080E00E94D309D3
:104F000068EE73E080E090E00E94FB0262E070E0F7
:104F100081E090E00E94C00770E060E081E090E0F6
:104F20000E94C00761E070E081E090E00E94C0074D
:104F30008091310290E00E94F80C8091330260E091
:104F400090E00E94FD0960E0812F90E00E94E90955
:104F500084E180930A0110922F0277C990E00E94A9
:104F6000F80C40CF60E090E00E94FD098091320291
:104F700060E090E00E94E9094CCF60E080E00E9490
:104F8000CE0940E061E080E00E94CE0995CF60E06C
:104F900080E00E94CE0940E061E080E00E94CE09FE
:104FA0009DCF64E080E00E94CE0940E065E080E0B3
:104FB0000E94CE09A5CF853081F467E070E083E0E0
:104FC00090E00E94C00764EF71E080E090E00E94F2
:104FD000FB02F0E0E0E00995BBC9863009F0B8C9F2
:104FE00081E090E00E94440B82E090E00E94440B3C
:104FF00083E090E00E94440B64E670E080E090E083
:105000000E94FB0290E080E00E94F80C82E390E0B6
:105010000E94560989E190E00E941A094EE350E08F
:1050200060E070E081E090E00E946E0B0E94C71388
:105030000E9779F26AEF70E080E090E00E94FB0248
:10504000F5CF882361F06FE070E082E090E00E948D
:10505000C00763E070E087E090E00E94C00714E1C1
:1050600080910A018E3009F062C08091300288235D
:1050700009F45DC00E942D03C090F201D090F301AD
:10508000E090F401F090F5016C157D058E059F050B
:1050900050F40E942D036093F2017093F30180930A
:1050A000F4019093F5010E942D03C090F201D0907D
:1050B000F301E090F401F090F5016C197D098E097F
:1050C0009F09683E73408105910598F08091F00139
:1050D0009091F10101969093F1018093F0010E946B
:1050E0002D036093F2017093F3018093F401909388
:1050F000F5018091F0019091F10102970CF4B0CF8D
:105100001092300210920A0110933302FEE2F093E3
:1051100031026CED75E080E090E00E94FB020E949D
:10512000FF112EE0209334020E943A0899CF80911B
:1051300034028930A1F481E090E00E94CB1980E034
:1051400090E0892B11F40C9476200E941A04882395
:1051500011F40C9476200E9400000C9476208B3081
:1051600009F0D6C00E942D03009107021091080299
:105170002091090230910A02601771078207930794
:1051800050F40E942D0360930702709308028093ED
:10519000090290930A020E942D03009107021091C8
:1051A00008022091090230910A02601B710B820BE8
:1051B000930B683E73408105910508F46BC08091A4
:1051C00005029091060201969093060280930502D3
:1051D000CC976CF080910302909104020196909319
:1051E000040280930302109206021092050280913D
:1051F000030290910402CC976CF08091010290918F
:10520000020201969093020280930102109204021E
:10521000109203020E942D0360930702709308020C
:105220008093090290930A028091010290910202F8
:10523000092E000CAA0BBB0B80931B0290931C023F
:10524000A0931D02B0931E0280910302909104026C
:10525000092E000CAA0BBB0B80931F029093200217
:10526000A0932102B0932202009105021091060240
:10527000C801012E000CAA0BBB0B80932302909354
:105280002402A0932502B09326020E94110AC801AD
:105290000E9497130E942D030091610310916203F5
:1052A00020916303309164036017710782079307AD
:1052B00050F40E942D036093610370936203809306
:1052C0006303909364030E942D0300916103109186
:1052D00062032091630330916403601B710B820BA6
:1052E000930B683C71058105910508F428CF0E9455
:1052F0002D03609361037093620380936303909323
:1053000064038091000281111ACF0E94B71417CF55
:10531000823019F40E94EF0F12CF833009F062C17E
:1053200060E170E082E090E00E94C00761E087E009
:105330000E94740164E170E080E090E00E94FB0252
:1053400088EB92E00E940E04181619062CF488EBE4
:1053500092E00E94EC03F4CF88EB92E00E940E04EE
:1053600018161906CCF766E070E080E090E00E9425
:10537000FB0210E000E088EB92E00E940E04181699
:105380001906BCF488EB92E00E94EC03E1E0F0E047
:10539000EC0FFD1FE00FF11F80838BEF9EE0019764
:1053A000F1F70F5F1F4F083411052CF307E410E0ED
:1053B000E2CF10912702FF24F394F10E4E8940535F
:1053C000550BABA1A053BB0B8EA98053990B6AE080
:1053D000689F9001699F300D11248DA98053990B0E
:1053E00074E6789FF001799FF00D1124E20FF31F0E
:1053F0008FA98053990BE80FF91FF09227021A30FA
:1054000008F08FC08B898053990B08EE13E0809FC2
:105410006001819FD00C909FD00C11242C892053C7
:10542000330B729FC001739F900D11248C0D9D1D35
:105430002D892053330B629F6001639FD00C112490
:105440009C012C0D3D1D240F351F4F8D4053550BD6
:1054500080E1C82E87E2D82E4C9DC0014D9D900D55
:105460005C9D900D112448A14053550B409F600155
:10547000419FD00C509FD00C11248C0D9D1D49A133
:105480004053550B749F6001759FD00C11248C0DF7
:105490009D1D0AA10053110B609F6001619FD00CFC
:1054A00011248C0D9D1D8A0F9B1F59E15F1510F46F
:1054B000109227024D8D4E3419F031952195310906
:1054C0004AA5453419F0919581959109032E000C58
:1054D000440B550B20931B0230931C0240931D027A
:1054E00050931E02092E000CAA0BBB0B80931F02C7
:1054F00090932002A0932102B0932202CF01FF0FCC
:10550000AA0BBB0B8093230290932402A093250245
:10551000B093260260E087E00E9474010E94110AA5
:105520000ECE888D8053990B08EE13E0809F6001AA
:10553000819FD00C909FD00C112480E197E2489F6E
:105540009001499F300D589F300D1124A601420F44
:10555000531FC98C2C2D2053330B69017C9D900166
:105560007D9D300D1124240F351F4A8D4053550B5E
:10557000649F6001659FD00C11242C0D3D1D4B8D47
:105580004053550B240F351FCDA04C2D4053550BC8
:105590006A01C09EA001C19E500DD09E500D1124E5
:1055A000A89F8001A99F100DB89F100D1124400FD6
:1055B000511F8EA18053990B789F8001799F100D08
:1055C0001124400F511F8FA18053990B689F8001B8
:1055D000699F100D1124400F511FA8A5A053BB0BAC
:1055E000CA0161CF853009F09FC1CE01865A9F4F15
:1055F0000E94F20E6B968FAD6B97A3968FAFA39719
:105600006C962FAC6C976D963FAC6D976E960FAD08
:105610006E9710E06F964FAC6F97E42CF12CA0962C
:105620008FACA097C82CD12C80910A018F3011F13A
:1056300094E6899E40011124B12CA12C512C712C8F
:10564000612C80910A018F3009F440C00E94C71379
:1056500080930A01909109018917D9F0809309017B
:105660008C3069F40F5F1F4F0831110594F010E082
:1056700000E00FC00E94C71380930A01D5CF8D3080
:1056800099F701501109083111058CF70F3F1007E8
:10569000B1F0A801012E000C660B770B81E090E0C1
:1056A0000E946E0BB301A20182E090E00E946E0B9B
:1056B000B501A40183E090E00E946E0BC2CF07E128
:1056C00010E0E7CF0E94C71380930A0180910A017E
:1056D0008F30C1F32801012E000C660877088091F5
:1056E0000A018F3009F442C00E94C71380930A0157
:1056F000909109018917E1F0809309018C3051F4F0
:10570000BFEFEB1AFB0AECE3EE16F1048CF0F12C80
:10571000E12C0EC08D3009F014C2F1E0EF1AF1084F
:105720002CE3E216F1049CF73FEFE316F306B1F029
:10573000B301A20181E090E00E946E0BA7010F2C43
:10574000000C660B770B82E090E00E946E0BB501B7
:10575000A40183E090E00E946E0BC1CF9BE3E92E91
:10576000F12CE6CF0E94C71380930A0180910A01B1
:105770008F30C1F32801110F660877084701FF0C2D
:10578000AA08BB0880910A018F3009F443C00E9427
:10579000C71380930A01909109018917E1F0809362
:1057A00009018C3051F44FEFC41AD40A5CE3C516DA
:1057B000D1048CF0D12CC12C0EC08D3009F0C7C1A2
:1057C00081E0C81AD1089CE3C916D1049CF7AFEF59
:1057D000CA16DA06D9F0B301A20181E090E00E9476
:1057E0006E0BB501A40182E090E00E946E0BB4E65E
:1057F000BC9DA001BD9D500D1124052E000C660B13
:10580000770B83E090E00E946E0BBCCF8BE3C82E39
:10581000D12CE1CFA396EFADA3976596EFAF659737
:1058200066962FAE669767963FAE679768960FAFFE
:1058300068976996EFAE69976A96CFAE6A9786E0E9
:10584000A296AEADBFADA2971D928A95E9F72AE068
:105850008C2D622F0E94BB30982F990F890F880FD3
:10586000C80ECA828E2D0E94BB30982F990F890FC7
:10587000880FE80EEB82802F0E94BB30982F990F83
:10588000890F880F080F0C83832D0E94BB30982F3F
:10589000990F890F880F380E3E82822D0E94BB30EF
:1058A000982F990F890F880F280E2F82A3968FADFE
:1058B000A3970E94BB30982F880F890F880F8E0FF7
:1058C00088878091450290914602FC0124813581B0
:1058D0002830310590F0208131E030934702209349
:1058E00069021092480210926A0221E048E050E0FA
:1058F000BE016F5F7F4F0E947D0782E0809334027C
:1059000041E060E080E00E94CE0946E061E080E096
:105910000E94CE0980E18093330281E080932802C7
:1059200086E0809329020BCC8E3019F40E94FF117F
:1059300006CC8A3089F480E490E00E94920984E0E9
:1059400090E00E94D41168EE73E080E090E00E9445
:10595000FB020E940915F3CB873009F0B3C04091D8
:105960000B0150910C01052E000C660B770B81E0AA
:1059700090E00E946E0B61E070E087E090E00E9492
:10598000C00780910A018F3009F479C0FF24F39495
:105990000FE010E080910A018F3009F47DC00E9471
:1059A0002D0380902B0290902C02A0902D02B0909D
:1059B0002E029B01AC01281939094A095B094901EA
:1059C0005A0138E5831632E09306A104B104E8F0E9
:1059D00060932B0270932C0280932D0290932E02E1
:1059E00080912A02882309F44FC010922A02E09085
:1059F0002A02809133026E2D90E00E94FD09809171
:105A000032026E2D90E00E94E9090E94C713809334
:105A10000A0190910901891729F1809309012091C8
:105A20000B0130910C018C3091F52F5F3F4F30937B
:105A30000C0120930B0180910B0190910C01409778
:105A400034F041E050E050930C0140930B01809101
:105A50000B0190910C011816190624F010930C01FB
:105A600000930B0140910B0150910C01052E000C8D
:105A7000660B770B81E090E00E946E0B8BCF0E944B
:105A8000C71380930A017DCFF0922A02B0CF8D30E8
:105A900091F621503109CBCF88E08093340280E128
:105AA0008093330282E68093320261E070E081E00D
:105AB00090E00E94C00780910B0190910C010E9420
:105AC000F80C3DCB883009F03ACB00910B011091D6
:105AD0000C018091330260E090E00E94FD0980910A
