:100000000C949E000C94C6000C94C6000C94C60080
:100010000C94C6000C94C6000C94C6000C94C60048
:100020000C94C6000C94C6000C94C6000C94C60038
:100030000C94C6000C94C6000C94C6000C94C60028
:100040000C946C140C94C6000C94DC140C94B61430
:100050000C94C6000C94C6000C94C6000C94C60008
:100060000C940E150C94C60000000000240027001C
:100070002A0000000008000201000003040700003D
:100080000000000000007E306D79335B5F707F7B85
:10009000771F0D3D4F4700000000000000000000EA
:1000A0000000000000000000000000000000000050
:1000B0000000800180007E306D79335B5F707F7B54
:1000C00000000000000000771F0D3D4F4700370083
:1000D00000000E00000067000000000000000000AB
:1000E00000000000000800771F0D3D4F470037005B
:1000F00000000E00151D6700000000000000000059
:1001000000000000000001020408102040800102ED
:10011000040810200102040810200000000025003F
:1001200028002B0004040404040404040202020254
:1001300002020303030303032D16582711241FBED5
:10014000CFEFD8E0DEBFCDBF11E0A0E0B1E0E2EF3D
:10015000F6E502C005900D92A434B107D9F724E06A
:10016000A4E4B1E001C01D92AD3BB207E1F710E09D
:10017000CDE9D0E004C02197FE010E942D2ACC39A0
:10018000D107C9F70E9449180C946C2B0C940000FD
:10019000EFE8F4E083819481890F9927991F2581E5
:1001A000820F911D2681280F392F311D8781280F3D
:1001B000311D8085820F932F911D91958195910915
:1001C0009187828708954F925F926F927F928F926C
:1001D0009F92AF92BF92FF9220917B0430917C045A
:1001E0008217930708F043C02B0166247724852EDD
:1001F000962EA72EBB24B82DA42F20918104F42C79
:10020000222391F0E22FF0E0E49DD001E59DB00DB6
:10021000F49DB00D1124FB2E289D40011124B92D11
:10022000249F90011124A32FE09187042091820440
:100230003091830450918404E51323C0FC01EE0F38
:10024000FF1F8E0F9F1F820F931FE0918404E80F02
:10025000F92FF11DF082E0918504E80FF92FF11DCF
:10026000B08320918604820F911DFC01A083FF9032
:10027000BF90AF909F908F907F906F905F904F90C6
:100280000895880F991F880F991F820F931FE80FF9
:10029000F92FF11D1082D9CF089508959091210270
:1002A000809120022FEF3FEF981748F4E92FF0E0FC
:1002B000E259FD4F208130E09F5F90932102C901F8
:1002C000089590912102809120022FEF3FEF98171F
:1002D00048F4E92FF0E0E259FD4F208130E09F5FC4
:1002E00090932102C901089590E0FC01EE58FF4F60
:1002F0002491FC01EA5FFE4F3491FC01EC5DFE4F5E
:10030000E491EE23C9F0222339F0233001F1A8F45F
:10031000213019F1223029F1F0E0EE0FFF1FE65EE7
:10032000FE4FA591B4918FB7F894EC91611126C05E
:1003300030953E233C938FBF08952730A9F0283095
:10034000C9F0243049F7809180008F7D03C08091EF
:1003500080008F7780938000DFCF84B58F7784BD56
:10036000DBCF84B58F7DFBCF8091B0008F778093FA
:10037000B000D2CF8091B0008F7DF9CF3E2BDACF85
:10038000CF93DF9390E0FC01EA5FFE4F24918C5DF8
:100390009E4FFC0184918823D1F090E0880F991F33
:1003A000FC01E859FF4FA591B491FC01E65EFE4FB8
:1003B000C591D49161110EC09FB7F8948C91E22F32
:1003C000E0958E238C932881E223E8839FBFDF9101
:1003D000CF9108958FB7F894EC91E22BEC938FBFF7
:1003E000F6CF8E50806480937C0080917A00806488
:1003F00080937A0080917A0086FDFCCF809178000E
:100400009091790008953FB7F894809118029091E7
:100410001902A0911A02B0911B0226B5A89B05C033
:100420002F3F19F00196A11DB11D3FBFBA2FA92F73
:10043000982F8827BC01CD01620F711D811D911D70
:1004400042E0660F771F881F991F4A95D1F70895DC
:100450000F931F93CF93DF93CDB7DEB729970FB6D6
:10046000F894DEBF0FBECDBF8091820490918304CB
:10047000892B09F47CC00E9403020091880410912A
:10048000890420918A0430918B04601771078207D8
:10049000930740F4609388047093890480938A04DE
:1004A00090938B04009188041091890420918A0410
:1004B00030918B04601B710B820B930B6C3271407B
:1004C00081059105C0F2F89480917D0490917E049D
:1004D0009A838983E0918204F0918304DF0111966D
:1004E0008081898790917904E0918C04F0918D044A
:1004F00080918E04992309F445C09081982B9887A8
:100500009081809589238F838F818C8388E08B8372
:1005100058856F8149853B812C8189819A815083DF
:1005200047FD252F3A952083262F39F0441F00C020
:1005300000006083000000C0F2CF38E04D9160837E
:100540000000019761F7F0938D04E0938C044987D4
:100550003B832C839A83898378940E94030260935F
:1005600088047093890480938A0490938B0429965D
:100570000FB6F894DEBF0FBECDBFDF91CF911F91B4
:100580000F9108959081982B988790818095892369
:100590008F838F818E8388E08D8358856F81498515
:1005A0003D812E8189819A81508347FD252F00C08E
:1005B00000C0208300C000C000C000C000C0608335
:1005C0000000262F3A9541F0441F000000C000C0F3
:1005D00000C000C000C0E8CF38E04D9100C060838B
:1005E00000C0019709F7F0938D04E0938C044987CC
:1005F0003D832E83AFCF8F929F92AF92BF92CF92C7
:10060000DF92EF92FF924B015C010E9403026B01AB
:100610007C010E9403026C197D098E099F09683EC6
:10062000734081059105A8F321E0821A9108A10881
:10063000B10888EEC80E83E0D81EE11CF11C8114BD
:100640009104A104B10429F7FF90EF90DF90CF90BF
:10065000BF90AF909F908F9008952FB7F8946091BE
:1006600014027091150280911602909117022FBF0B
:100670000895CF92DF92EF92FF92CF93DF936B01B9
:100680007C01EA010E942D03AB01BC018091F103C2
:100690009091F203892BA9F08091010490910204BA
:1006A000892BB1F18091110490911204892B99F159
:1006B00090E080E0DF91CF91FF90EF90DF90CF90BE
:1006C0000895E1EFF3E08091EF039091F00301963C
:1006D00011F481E090E09093F0038093EF03809118
:1006E000EF039091F00397878687D183C0831382AD
:1006F00012824483558366837783C086D186E286DF
:10070000F38621E030E0358724878E279F27D2CFDC
:10071000E1E0F4E0D8CFE1E1F4E0D5CF90914401FD
:1007200021E09227909344018091D9018227809300
:10073000D90181E008959091450121E0922790939D
:1007400045018091940282278093940281E008956C
:100750008091BC0191E089278093BC0181E00895DC
:10076000AF92BF92CF92DF92EF92FF920F931F93BF
:10077000CF93DF936C017B018B01040F151FEB01FD
:100780005E01AE18BF08C017D10759F06991D601B4
:10079000ED91FC910190F081E02DC6010995892B26
:1007A00079F7C501DF91CF911F910F91FF90EF90E5
:1007B000DF90CF90BF90AF900895FC01538D448D92
:1007C000252F30E0842F90E0821B930B541710F0FC
:1007D000CF96089501970895FC01918D828D981709
:1007E00061F0A28DAE0FBF2FB11D5D968C91928DE1
:1007F0009F5F9F73928F90E008958FEF9FEF089512
:10080000FC01918D828D981731F0828DE80FF11DDA
:10081000858D90E008958FEF9FEF0895FC01918DF5
:10082000228D892F90E0805C9F4F821B91098F73EE
:100830009927089585E992E00E940E0421E0892B12
:1008400009F420E0822F089580E090E0892B29F0C0
:100850000E941A0481110C9400000895FC01A48DDB
:10086000A80FB92FB11DA35ABF4F2C91848D90E0D2
:1008700001968F739927848FA689B7892C93A089B5
:10088000B1898C91837080648C93938D848D98133F
:1008900006C00288F389E02D80818F7D80830895D2
:1008A000EF92FF920F931F93CF93DF93EC0181E0C0
:1008B000888F9B8D8C8D98131AC0E889F989808167
:1008C00085FF15C09FB7F894EE89FF896083E8899A
:1008D000F98980818370806480839FBF81E090E08C
:1008E000DF91CF911F910F91FF90EF900895F62E19
:1008F0000B8D10E00F5F1F4F0F731127E02E8C8DB3
:100900008E110CC00FB607FCFACFE889F9898081F7
:1009100085FFF5CFCE010E942E04F1CFEB8DEC0FB9
:10092000FD2FF11DE35AFF4FF0829FB7F8940B8F14
:10093000EA89FB8980818062CFCF682F85E992E0C8
:100940000C945004CF93DF93EC01888D8823B9F089
:10095000AA89BB89E889F9898C9185FD03C08081CA
:1009600086FD0DC00FB607FCF7CF8C9185FFF2CF47
:10097000808185FFEDCFCE010E942E04E9CFDF916B
:10098000CF9108950895E091210280912002E81707
:1009900030F4F0E0E259FD4F808190E008958FEF50
:1009A0009FEF08958091200290912102891B990B5D
:1009B000089590E080E0089520919801260F332754
:1009C000331F21323105ECF420918E02FC0190E0BE
:1009D00080E0243069F082E00895A091980121918F
:1009E000AC0148585E4FA40FB52FB11D2C93019652
:1009F000861798F380919801680F6093980180E0C2
:100A0000089581E00895CF92DF92EF92FF920F93C5
:100A10001F93CF93DF937C01CB018A0120912402A5
:100A2000222389F0EB016B01C40ED51ECC15DD0528
:100A300069F06991D701ED91FC910190F081E02D71
:100A4000C7010995F3CF642F0E94DC04C801DF9130
:100A5000CF911F910F91FF90EF90DF90CF9008956D
:100A6000CF93DF931F92CDB7DEB769832091240225
:100A70002223F9F020914702203258F021E030E0A3
:100A8000FC013383228390E080E00F90DF91CF91CF
:100A9000089580912502E82FF0E0EA5DFD4F9981ED
:100AA00090838F5F809325028093470281E090E0DE
:100AB000ECCF61E0CE0101960E94DC04F7CF1092EA
:100AC0008E0281E080936D021092680261E082E103
:100AD0000E94740161E083E10E947401E9EBF0E09F
:100AE00080818E7F808380818D7F808388E4809366
:100AF000B80085E48093BC00089510922102109202
:100B0000200210922502109247020E945F058CE499
:100B100091E090931F0280931E028DE491E09093E8
:100B20001D0280931C020895CF93DF9391E0909370
:100B300077018823B9F0C091B800D091BA008091B4
:100B4000BC008A7B8093BC0060E082E10E9474015B
:100B500060E083E10E9474010E945F05D093BA00B7
:100B6000C093B800DF91CF9108958F929F92AF927A
:100B7000BF92CF92DF92EF92FF920F931F93CF938A
:100B8000DF93D82FC62F142F613208F09CC00E942B
:100B900003026B017C0180918E0281116FC081E0A4
:100BA00080938E0210936D029FEF90936C021092CF
:100BB0006B029C0F90936A02809369028091690294
:100BC000DD0FD82BD093690280916802813009F043
:100BD0007CC0109268020E9403026B017C0180912C
:100BE00069028093BB008091900290919102A09144
:100BF0009202B0919302892B8A2B8B2BA1F00E9439
:100C00000302009190021091910220919202309182
:100C100093026C197D098E099F090617170728078B
:100C2000390708F44CC08091BC0083FDD8CF85EC17
:100C30008093BC000E9403026B017C0180918E02B4
:100C4000813009F444C080916B028C1710F4C0917C
:100C50006B02E8E4F2E0AEE6B2E080E08C1359C04B
:100C60008C2FDF91CF911F910F91FF90EF90DF902C
:100C7000CF90BF90AF909F908F90089580919002F9
:100C800090919102A0919202B0919302892B8A2BAC
:100C90008B2B09F480CF0E940302809090029090E9
:100CA0009102A0909202B09093026C197D098E0976
:100CB0009F0986169706A806B90608F06CCF8091A2
:100CC0008F020E949405C0E0CBCF85EEB1CF80911A
:100CD000900290919102A0919202B0919302892B7F
:100CE0008A2B8B2B09F4AACF0E9403020091900259
:100CF0001091910220919202309193026C197D091A
:100D00008E099F09061717072807390708F096CF9D
:100D1000D6CF91919D938F5FA1CF8F929F92AF92EB
:100D2000BF92CF92DF92EF92FF920F931F93CF93D8
:100D3000DF93D0914702D13208F0D7C0182FC0916D
:100D400046020E9403026B017C0180918E02811198
:100D50006BC082E080938E0210936D028FEF8093C0
:100D60006C0210926B02D0936A02A6E2B2E0E8E451
:100D7000F2E080E0D81391C010926902809169027C
:100D8000CC0FC82BC093690280916802813009F0B2
:100D900088C0109268020E9403026B017C0180915E
:100DA00069028093BB008091900290919102A09182
:100DB0009202B0919302892B8A2B8B2BA1F00E9477
:100DC00003020091900210919102209192023091C1
:100DD00093026C197D098E099F09061717072807CA
:100DE000390708F442C08091BC0083FDD8CF85EC60
:100DF0008093BC000E9403026B017C0180918E02F3
:100E0000823009F450C080916C028F3F09F46FC0AA
:100E100080916C02803209F46CC080916C02803346
:100E200009F469C084E026C08091900290919102FB
:100E3000A0919202B0919302892B8A2B8B2B09F4FB
:100E400084CF0E9403028090900290909102A09023
:100E50009202B09093026C197D098E099F09861643
:100E60009706A806B90608F070CF80918F020E94FD
:100E7000940585E0109225021092470210922402F8
:100E8000DF91CF911F910F91FF90EF90DF90CF9066
:100E9000BF90AF909F908F9008959D9191938F5F99
:100EA00069CF85EEA5CF8091900290919102A0919B
:100EB0009202B0919302892B8A2B8B2B09F49ECF3F
:100EC0000E940302009190021091910220919202DF
:100ED000309193026C197D098E099F090617170737
:100EE0002807390708F08ACFC0CF81E0C3CF80E060
:100EF000C1CF82E0BFCF83E0BDCF1F93CF93DF93FD
:100F0000EA01122FDC0111968D919C91DC01ED918B
:100F1000FC910280F381E02D0995C817D90729F4C7
:100F2000812F0E948D0691E0811190E0892FDF9141
:100F3000CF911F910895CF93DF93EC018B8188238C
:100F4000A1F0888191E09093240280934602109250
:100F500025021092470281E00E948D0691E08111E6
:100F600090E0892FDF91CF9108950E947D0581E067
:100F70008B83CE010E949B07982F8111E2CFF1CF86
:100F80009B01029740E054E660E070E087309105F5
:100F900080F4FC01E253F84F0C942D2AD507DE07AC
:100FA000E307E807ED07F207F60744E654E664E6D0
:100FB00070E0C9010E94E3000C94280240E054E66E
:100FC00064E670E0F6CF40E055EA6FEF70E0F1CFF5
:100FD00044E650E060E070E0ECCF40E050E064E6D2
:100FE00070E0E7CF40E050E0BA01E3CF42E352E3E4
:100FF00062E370E0DECF8091D9016EE070E0811194
:1010000004C082E090E00C94C00787E090E0FBCF42
:10101000CF936DE070E082E090E00E94C007C09145
:10102000C201C1FF06C070E060E083E090E00E9472
:10103000C007C0FF07C062E070E083E090E0CF919E
:101040000C94C007CF910895962F50E070E060E0B7
:10105000592B682BC9010E94E3000C9428029C01C3
:1010600040E060E080E00C9424088091100283321C
:1010700091F040F48031E1F0853109F44AC01092DA
:1010800011020CC0853279F060F08233C1F78DE037
:101090008093110203C084E0809312021092C10178
:1010A00006C085E0F9CF80910F028630A9F308953C
:1010B00080910F028232A9F040F4823181F08431B4
:1010C00061F08131A1F781E0E3CF8B32C1F084344C
:1010D000F1F0843261F782E0DBCF8EE0D9CF89E096
:1010E000D7CF1092DF011092DE011092DD01109235
:1010F000DC011092DB011092DA018BE0C9CF83E0B2
:10110000809311021092C1011092060208958AE0A4
:10111000BFCF80910F02853231F0823631F08432B8
:1011200031F685E0B5CF86E0B3CF87E0B1CF0F933E
:101130001F93CF93DF938EE00E94F1018C018FE02B
:101140000E94F101EC0180E10E94F101033A23E0E9
:1011500012075CF0C33A23E0D20784F0833A23E01D
:10116000920764F084E190E05AC0013E11050CF44E
:101170005BC0023721E012070CF459C00E3F21E09A
:1011800012070CF457C00A3822E012070CF455C0BD
:10119000063123E012070CF453C0023A13400CF45A
:1011A00052C0C83CD1050CF451C0CA3421E0D2076A
:1011B0000CF44FC0C73C21E0D2070CF44DC0C13441
:1011C00022E0D2070CF44BC0CC3B22E0D2070CF457
:1011D00049C0C73323E0D2070CF447C0C23AD3401A
:1011E0000CF446C0813E91050CF445C0823721E0E5
:1011F00092070CF443C08E3F21E092070CF441C0EB
:101200008A3822E092070CF43FC0863123E092072F
:10121000F4F1823A93400CF0A5CF81E190E0DF91A8
:10122000CF911F910F9108958AE090E0F8CF8CE064
:1012300090E0F5CF87E090E0F2CF88E090E0EFCF4C
:1012400089E090E0ECCF82E190E0E9CF8BE090E0A4
:10125000E6CF8DE090E0E3CF84E090E0E0CF85E062
:1012600090E0DDCF86E090E0DACF8EE090E0D7CF5F
:101270008FE090E0D4CF90E080E0D1CF81E090E0AB
:10128000CECF82E090E0CBCF83E090E0C8CF80E18A
:1012900090E0C5CFCF92DF92EF92FF920F931F9312
:1012A000CF93DF9300D0CDB7DEB769834A83880F31
:1012B000991F0091770410917804000F111FE1E24B
:1012C000F4E09F01215234402017310714F41192A9
:1012D000F8CF2981FC01EF5DFB4F21838A81808358
:1012E00060E0809175040E9474011016110604F5E7
:1012F00001501109F801EF5DFB4FE080D0907304BD
:10130000C090710488E0F82E6E2D661F6627661F58
:101310008C2D0E947401EE0C61E08D2D0E947401F1
:1013200060E08D2D0E947401FA94F110EDCFDDCFB5
:1013300061E0809175040F900F90DF91CF911F9124
:101340000F91FF90EF90DF90CF900C947401E0919B
:101350007704F09178048E179F07DCF468307105EC
:10136000C4F44031B0F4DC0133E0AA0FBB1F3A955E
:10137000E1F7E42FF0E0EA57FF4F44912111406874
:10138000AF5DBB4FA60FB71F50964C936F5F0C9489
:101390004A0908950F931F93CF93DF93EC010197B0
:1013A0000997A0F420E040E064E070E090E080E085
:1013B0000E94A70920E04C2F65E070E090E080E0FB
:1013C000DF91CF911F910F910C94A709CA30D105DD
:1013D000C4F02AE030E0CE01B9010E94192A8C0144
:1013E000CE01801B910BB9010E94192A462F20E0E3
:1013F00064E070E090E080E00E94A70920E0402FC8
:10140000DBCFDF91CF911F910F9108950F931F9321
:10141000CF93DF93EC0101970997A0F420E040E01F
:1014200070E060E090E080E00E94A70920E04C2F8F
:1014300061E070E090E080E0DF91CF911F910F912B
:101440000C94A709CA30D105C4F02AE030E0CE01DF
:10145000B9010E94192A8C01CE01801B910BB901A0
:101460000E94192A462F20E070E060E090E080E0C2
:101470000E94A70920E0402FDBCFDF91CF911F9181
:101480000F9108950F931F93CF93DF93EC01019772
:101490000997A0F420E040E062E070E090E080E096
:1014A0000E94A70920E04C2F63E070E090E080E00C
:1014B000DF91CF911F910F910C94A709CA30D105EC
:1014C000C4F02AE030E0CE01B9010E94192A8C0153
:1014D000CE01801B910BB9010E94192A462F20E0F2
:1014E00062E070E090E080E00E94A70920E0402FD9
:1014F000DBCFDF91CF911F910F91089570E020E035
:1015000090E00C94A7092091770430917804821719
:10151000930774F4FC0123E0EE0FFF1F2A95E1F717
:10152000EF5DFB4FE60FF71F408B6F5F0C944A098E
:101530000895611102C0009771F440E064E070E02A
:1015400090E080E00E94830A40E065E070E090E077
:1015500080E00C94830A0C94CA09611102C00097C0
:1015600071F440E070E060E090E080E00E94830A67
:1015700040E061E070E090E080E00C94830A0C941D
:10158000060ACF92DF92EF92FF920F931F93CF93B1
:10159000DF9386E4E82E81E0F82EF70110821182B5
:1015A00012821382148215821682379621E0EE375A
:1015B000F207A1F7EAEEF1E0A6E4B1E081E04081B4
:1015C00051816281738177FF20C07095609550953D
:1015D00041955F4F6F4F7F4F408351836283738389
:1015E0008C934081518162817381403A96E859071A
:1015F00091E0690771055CF0405A564861407109F5
:101600004083518362837383ECCF1C92EACF91E0D5
:101610004081518162817381403127E25207610527
:1016200071056CF011969C931197405157426109D6
:10163000710940835183628373839F5FE9CF91E097
:101640004081518162817381483E23E052076105E8
:1016500071056CF012969C931297485E5340610995
:10166000710940835183628373839F5FE9CF91E067
:101670004081518162817381443651056105710554
:101680006CF013969C9313974456510961097109A4
:1016900040835183628373839F5FEACF91E04081EF
:1016A0005181628173814A305105610571056CF089
:1016B00014969C9314974A5051096109710940830B
:1016C0005183628373839F5FEACF91E040815181B0
:1016D0006281738114161506160617066CF41596AA
:1016E0009C931597415051096109710940835183B9
:1016F000628373839F5FEACF3496179691E0A73792
:10170000B90709F05CCF01E010E0D12CC12CD0E08A
:10171000C0E0209721F5F701848D44E2813009F083
:1017200044E770E060E0C8010E94830A2196C63059
:10173000D10579F72FEFC21AD20A0F5F1F4F87E04A
:10174000E80EF11C93E0C916D10409F7DF91CF919F
:101750001F910F91FF90EF90DF90CF9008958091AF
:101760001102833089F4F2E0CF16D10469F4C3305A
:10177000D10551F421E04091730163E070E083E012
:1017800090E00E94A709D2CF20E0F701EC0FFD1FE7
:10179000448DBE01C801F5CFEF92FF921F93CF9306
:1017A000DF93209177043091780482179307B4F483
:1017B000EC0123E0880F991F2A95E1F79C012F5C2B
:1017C0003B4F790111E0F70111927F0140E0612F59
:1017D000CE010E944A091F5F1930A9F7DF91CF910E
:1017E0001F91FF90EF9008950C94CC0B20917704FB
:1017F0003091780482179307A4F4E42F440FFF0B71
:10180000EA57FF4F4491FC0123E0EE0FFF1F2A959A
:10181000E1F7EF5DFB4FE60FF71F408B6F5F0C9416
:101820004A090895462F2091770430917804821751
:1018300093071CF46AE00C944A0908954F925F9252
:101840006F927F92AF92BF92CF92DF92EF92FF9210
:101850000F931F93CF93DF938C012A013B0177FEF7
:101860004EC0CC24DD247601C418D508E608F7085C
:1018700044E270E060E00E94830AD701C60101974C
:10188000A109B1090997A105B10508F046C0BC2C12
:10189000A12C412C512C3201D0E0C0E020E04B2D96
:1018A00065E070E0C8010E94A70920E04C2F64E0C9
:1018B00070E0C8010E94A70920E04D2F63E070E0AE
:1018C000C8010E94A70920E0442D62E070E0C80131
:1018D0000E94A70920E04A2D61E070E0C801DF9175
:1018E000CF911F910F91FF90EF90DF90CF90BF901D
:1018F000AF907F906F905F904F900C94A70944E752
:1019000070E060E00E94830A411451046104710494
:1019100009F419C173016201B0CFD701C6010A975A
:10192000A109B1098A359105A105B10508F059C091
:101930003AE0432E512C612C712CC701B601A30152
:1019400092010E940729B62EA7019601261B370B8C
:10195000480B590BCA01B901A30192010E94072942
:10196000C22FA12C412C512C3201D0E080EAC816A4
:1019700086E8D80681E0E806F1040CF48FCF40E059
:1019800070E060E0C8010E94830A40E261E070E01C
:10199000C8010E94F60B41E362E070E0C8010E94BA
:1019A000F60B43E363E070E0C8010E94F60B40E3EE
:1019B00064E070E0C8010E94F60B45E365E070E06A
:1019C000C801DF91CF911F910F91FF90EF90DF90B1
:1019D000CF90BF90AF907F906F905F904F900C949E
:1019E000F60BD701C60184569109A109B1098438C3
:1019F0009340A105B10508F52AE0422E512C612C37
:101A0000712CC701B601A30192010E940729B62ECD
:101A1000CA01B901A30192010E940729C62FC7017B
:101A2000B60124E630E040E050E00E940729D22FC2
:101A3000A12C412C512C320199CFD701C601885ECF
:101A40009340A109B10988329342A105B10568F517
:101A50009AE0492E512C612C712CC701B601A301CB
:101A600092010E940729B62ECA01B901A301920171
:101A70000E940729C62FC701B60124E630E040E0E6
:101A800050E00E940729CA01B901A30192010E94F6
:101A90000729D62FC701B60128EE33E040E050E019
:101AA0000E9407292901A12C61CFD701C6018051CD
:101AB0009742A109B10980399F45A140B105D8F5E8
:101AC0008AE0482E512C612C712CC701B601A3016C
:101AD00092010E940729B62ECA01B901A301920101
:101AE0000E940729C62FC701B60124E630E040E076
:101AF00050E00E940729CA01B901A30192010E9486
:101B00000729D62FC701B60128EE33E040E050E0A8
:101B10000E940729CA01B901A30192010E94072965
:101B20002B01C701B60120E137E240E050E00E94FE
:101B30000729A22E1BCFA12C412C512C3201D0E021
:101B4000C0E0B12C13CFA12CD0E0C0E0B12CA6CEC8
:101B5000009771F440E062E070E090E080E00E9465
:101B6000830A40E063E070E090E080E00C94830A38
:101B70000C94420A2F923F924F925F926F927F9203
:101B80008F929F92AF92BF92CF92DF92EF92FF928D
:101B90000F931F93CF93DF93CDB7DEB72B970FB67D
:101BA000F894DEBF0FBECDBF1C0160E170E087E09E
:101BB00090E00E94C00781E08093240289E6809330
:101BC000460210922502109247026BE382E393E0F3
:101BD0000E94300580E00E948D0641E06EE089E6BB
:101BE0000E94B50510922102809320020E9461019B
:101BF00089830E946101E12CF980E82AF92A0E9478
:101C0000610189830E94610100E01981082B192B71
:101C10000E946101D82E0E946101DA821982298115
:101C20003A81282B392B3B872A870E9461010E9429
:101C300061010E9461018F830E9461019A838983FF
:101C40000E94610188870E9461019C838B830E94AE
:101C5000610189870E9461019E838D839701285CC1
:101C60003109032E000C440B550B305C4F4F5F4F76
:101C7000A4EBB0E00E94262920E030E840E050E0EC
:101C80000E9407292A55310941095109263A8FEF47
:101C900038070CF40AC12B35310514F02AE530E081
:101CA000B901330F880B990B0E940E284B015C0180
:101CB0009801285C3109032E000C440B550B305C55
:101CC0004F4F5F4FA4EBB0E00E94262920E030E8A0
:101CD00040E050E00E940729DA01C9018A559109C4
:101CE000A109B109863A2FEF92070CF4E5C0BC01B7
:101CF0008B35910514F06AE570E0072E000C880B17
:101D0000990B0E940E286B017C018A859B85885C5B
:101D100091099C01990F440B550B305C4F4F5F4F5D
:101D2000A4EBB0E00E94262920E030E840E050E03B
:101D30000E940729DA01C9018A559109A109B1094F
:101D4000863A2FEF92070CF4BEC0BC018B3591058B
:101D500014F06AE570E0072E000C880B990B0E94C6
:101D60000E282B013C0160E170E087E090E00E94CA
:101D7000C0072A94232809F0ADC080E09F81298103
:101D80003A81822B932B63E870E00E94192A6E5FE0
:101D90007F4F072E000C880B990B0E940E289B0189
:101DA000AC010E946B292AE939E949E15EEB0E9406
:101DB000492820E030E048EC52E40E9449280E9483
:101DC000D729AB01770F660B770B81E090E00E947B
:101DD0001E0C80E098852B813C81822B932B63E83D
:101DE00070E00E94192A072E000C880B990B0E94A4
:101DF0000E289B01AC010E946B292AE939E949E1CF
:101E00005EEB0E94492820E030E048EC52E40E945A
:101E100049280E94D729AB01770F660B770B82E028
:101E200090E00E941E0C80E099852D813E81822BDE
:101E3000932B63E870E00E94192A072E000C880B90
:101E4000990B0E940E289B01AC010E946B292AE984
:101E500039E949E15EEB0E94492820E030E048EC96
:101E600052E40E9449280E94D729AB01770F660BE4
:101E7000770B83E090E02B960FB6F894DEBF0FBE91
:101E8000CDBFDF91CF911F910F91FF90EF90DF9029
:101E9000CF90BF90AF909F908F907F906F905F900A
:101EA0004F903F902F900C941E0C812C912C24EB82
:101EB000A22E22ECB22EFCCEC12CD12C94EBE92E1A
:101EC00092ECF92E22CF412C512C84EB682E82EC1F
:101ED000782E49CFA501940160E070E080E090E4A5
:101EE0000E946A2920E030E048EC52E40E94492830
:101EF0000E94D729AB01770F660B770B81E090E04A
:101F00000E941E0C20E030E040E450E4C701B6011E
:101F10000E946B2920E030E048EC52E40E944928FE
:101F20000E94D729AB01770F660B770B82E090E018
:101F30000E941E0CA301920160E070E0CB010E94A0
:101F40006A298BCF4F925F926F927F928F929F926E
:101F5000AF92BF92CF92DF92EF92FF920F931F93B7
:101F6000CF93DF9300D000D000D01F92CDB7DEB763
:101F70008C011982A0902202B0902302D501149600
:101F80008D919C911597892B09F45CC08C9191E0FF
:101F900090932402809346021092250210924702E9
:101FA00020E041E050E0BE016F5F7F4FC5010E941D
:101FB0007D07882309F446C0D12CC12CB7E06B2ED5
:101FC000712CF501848195817301EC18FD088E1543
:101FD0009F0508F47C0141E0C3018E199F09C816D2
:101FE000D90608F440E06E2DD5018C910E94B5050C
:101FF00010922102809320028E151F0419F5882467
:102000008394912C8C0E9D1E8C0C9D1C2401C4016C
:10201000841995098E159F0570F4F50181819281CF
:10202000DC01ED91FC910284F385E02D0995F4012A
:1020300081934F01ECCFCE0CDF1CF7E0CF16D1041B
:1020400008F4BFCFE981EF77FA81FB804D815E8193
:102050008F81282F30E094E0359527959A95E1F708
:10206000922F990F990F291B220F280FD8012C931B
:10207000852F90E024E0959587952A95E1F7982F94
:10208000990F990F891B880F850F11968C931197C3
:10209000642F70E034E0759567953A95E1F7862FE7
:1020A000880F880F681B660F640F12966C93129747
:1020B0004F2D50E064E0559547956A95E1F7842FE0
:1020C000880F880F481B440F4F0D13964C9313979E
:1020D0002F2F30E074E0359527957A95E1F7822F20
:1020E000880F880F281B220F2F0F14962C931497FC
:1020F0008E2F90E0F4E095958795FA95E1F7982F6B
:10210000990F990F891B880F8E0F15968C93C80114
:1021100027960FB6F894DEBF0FBECDBFDF91CF91EB
:102120001F910F91FF90EF90DF90CF90BF90AF90F5
:102130009F908F907F906F905F904F900895FC01DB
:1021400001900020E9F73197AF01481B590BBC0102
:1021500085E992E00C94B0038F929F92AF92BF9268
:102160000F931F93CF93DF93CDB7DEB7A1970FB631
:10217000F894DEBF0FBECDBF19A2423008F44AE08A
:102180008E010F5D1F4F842E912CB12CA12CA50127
:1021900094010E943929E62FB901CA01EA30F4F40A
:1021A000E05DD801EE938D01232B242B252B79F7AD
:1021B00090E080E0109719F0CD010E949F10A19649
:1021C0000FB6F894DEBF0FBECDBFDF91CF911F9148
:1021D0000F91BF90AF909F908F900895E95CE1CFF1
:1021E000682F70E090E080E040E10C94AC10AF927A
:1021F000BF92CF92DF92EF92FF920F931F93CF93F4
:10220000DF9380918F0490919004DC01ED91FC911B
:102210000190F081E02D60919104099580918F04E7
:1022200090919004DC01ED91FC910190F081E02D02
:1022300060919204099580918F0490919004DC0143
:10224000ED91FC910190F081E02D6091930409954E
:1022500080918F0490919004DC01ED91FC910190AC
:10226000F081E02D60919404099580918F04909104
:102270009004DC01ED91FC910190F081E02D6091E2
:102280009504099580918F0490919004DC01ED9163
:10229000FC910190F081E02D609196040995809168
:1022A0008F0490919004DC01ED91FC910190F081FC
:1022B000E02D60919704099580918F04909190048E
:1022C000DC01ED91FC910190F081E02D609198048A
:1022D000099580918F0490919004DC01ED91FC911F
:1022E0000190F081E02D60919904099580918F040F
:1022F00090919004DC01ED91FC910190F081E02D32
:1023000060919A0409958091A504882309F46BC013
:1023100084E391E00E949F10A0909104B0909204F9
:10232000C0909304D0909404E0909504F0909604AB
:102330000091970410919804D0919904C0919A0447
:102340008AE391E00E949F1081E491E00E949F1037
:102350008A2D0E94F01080E20E949D048B2D0E9425
:10236000F01080E20E949D048C2D0E94F01080E20B
:102370000E949D048D2D0E94F01080E20E949D0419
:102380008E2D0E94F01080E20E949D048F2D0E94ED
:10239000F01080E20E949D04802F0E94F01080E2E5
:1023A0000E949D04812F0E94F01080E20E949D04F3
:1023B0008D2F0E94F01080E20E949D048C2F0E94BD
:1023C000F01081E491E00E949F1081E491E0DF91A0
:1023D000CF911F910F91FF90EF90DF90CF90BF9022
:1023E000AF900C949F10DF91CF911F910F91FF90B0
:1023F000EF90DF90CF90BF90AF9008950F931F9311
:10240000CF93DF93182F092FCFE8D4E086E08D8398
:102410001E821F828FE088870E94C8000E94F710EA
:1024200064E170E080E090E00E94FB0283E08D8335
:102430001E820F8318870E94C8000E94F71068EE62
:1024400073E080E090E0DF91CF911F910F910C94A9
:10245000FB02CF92DF92EF92FF92CF93DF936FE078
:1024600070E090E080E00E94120C6FE070E087E086
:1024700090E00E94C00768EE73E080E090E00E9468
:10248000FB0285E090E00E94FE1161E170E082E0D5
:1024900090E00E94C00768EE73E080E090E00E9448
:1024A000FB0264E070E083E090E00E94C00768EE09
:1024B00073E080E090E00E94FB0260E170E082E067
:1024C00090E00E94C00768EE73E080E090E00E9418
:1024D000FB0266E070E083E090E00E94C00768EED7
:1024E00073E080E090E00E94FB026FE070E082E029
:1024F00090E00E94C00768EE73E080E090E00E94E8
:10250000FB0268E070E083E090E00E94C00768EEA4
:1025100073E080E090E00E94FB026DE070E082E0FA
:1025200090E00E94C00761E170E087E090E00E94C7
:10253000C00764E070E087E090E00E94C00760E1BF
:1025400070E087E090E00E94C00766E070E087E0FE
:1025500090E00E94C0076FE070E087E090E00E948A
:10256000C00768E070E087E090E00E94C0076DE07F
:1025700070E087E090E00E94C007D0E0C0E0C43087
:10258000D10509F45BC00E942D03C090D401D09006
:10259000D501E090D601F090D7016C157D058E0530
:1025A0009F0550F40E942D036093D4017093D501D0
:1025B0008093D6019093D7010E942D03C090D4013F
:1025C000D090D501E090D601F090D7016C197D092B
:1025D0008E099F09643F71408105910588F00E9432
:1025E0002D036C197D098E099F09683E7340810592
:1025F000910530F467E070E083E090E00E94C0074E
:102600000E942D036C197D098E099F09683E734055
:102610008105910508F4B3CF67E070E087E090E0B2
:102620000E94C0070E942D036093D4017093D501CE
:102630008093D6019093D7012196A1CF70E060E0FE
:1026400081E090E00E94C00764EF71E080E090E0DC
:102650000E94FB0261E070E081E090E00E94C00710
:1026600064EF71E080E090E00E94FB0262E070E0C5
:1026700081E090E00E94C00764EF71E080E090E0AC
:102680000E94FB0263E070E081E090E00E94C007DE
:1026900064EF71E080E090E00E94FB021092D801AC
:1026A0006FE070E087E090E00E94C00780910E022A
:1026B00090E00E94A80D8091100260E090E00E94DE
:1026C000AD0A80910F0260E090E00E94990A10929A
:1026D000FA011092FB011092FC011092FD0184EBB3
:1026E00090E0A0E0B0E08093FE019093FF01A09302
:1026F0000002B093010210920202109203021092A3
:102700000402109205020E94C10A44E270E060E0F7
:1027100081E090E00E94830A68E97AE380E090E03B
:102720000E94FB0263E070E087E090E00E94C00737
:1027300010920E0284E280930F0280E180931002D7
:1027400090E080E00E94A80D60E084E290E00E94AA
:10275000990A60E080E190E00E94AD0A82E08093F7
:102760001102DF91CF91FF90EF90DF90CF900C940A
:102770003508CF92DF92EF92FF92CF93DF93809153
:102780000001909194029923F1F1882309F440C04B
:10279000109200010E94B42721E330E040E050E0B5
:1027A0000E9407296B017C012FEFC21AD20AE20AAC
:1027B000F20AE60163E070E0CF30D10519F0C931CB
:1027C000D105B1F481E090E00E94C007E894C3F81D
:1027D00081E1C816D10491F461E170E082E090E0FB
:1027E000DF91CF91FF90EF90DF90CF900C94C007D6
:1027F00087E090E00E94C007619771F361E170E0AB
:1028000087E090E0EDCF811103C081E0809300016B
:10281000DF91CF91FF90EF90DF90CF900895CF930D
:10282000DF93EC0160E170E087E090E00E94C00778
:102830008091010190919402992359F0882389F0A5
:10284000109201010E94B913CE01DF91CF910C9437
:10285000BA0D811106C00E94B91381E08093010175
:10286000F3CFDF91CF91089585ED8093BC008091E7
:10287000900290919102A0919202B09193020796DA
:10288000A11DB11D23E0B695A795979587952A952B
:10289000D1F72091BC0024FD03C010928E02089550
:1028A0004091900250919102609192027091930236
:1028B000452B462B472B69F30097A105B10541F045
:1028C0002AE22A95F1F700C00197A109B109E1CFE9
:1028D00080918F020C9494051F920F920FB60F9265
:1028E00011242F933F938F939F93AF93BF93809126
:1028F000140290911502A0911602B0911702309126
:10290000130223E0230F2D3758F50196A11DB11DA9
:10291000209313028093140290931502A093160241
:10292000B09317028091180290911902A0911A0297
:10293000B0911B020196A11DB11D809318029093C6
:102940001902A0931A02B0931B02BF91AF919F91FD
:102950008F913F912F910F900FBE0F901F90189560
:1029600026E8230F0296A11DB11DD2CF1F920F9210
:102970000FB60F9211242F933F934F935F936F9352
:102980007F938F939F93AF93BF93EF93FF9385E9CB
:1029900092E00E942E04FF91EF91BF91AF919F9121
:1029A0008F917F916F915F914F913F912F910F90F8
:1029B0000FBE0F901F9018951F920F920FB60F9297
:1029C00011242F938F939F93EF93FF93E091A50290
:1029D000F091A6028081E091AB02F091AC0282FD01
:1029E0001BC090818091AE028F5F8F732091AF02E8
:1029F000821741F0E091AE02F0E0EB56FD4F958F6B
:102A00008093AE02FF91EF919F918F912F910F9044
:102A10000FBE0F901F9018958081F4CF1F920F92D8
:102A20000FB60F9211242F933F934F935F936F93A1
:102A30007F938F939F93AF93BF93EF93FF93809177
:102A4000B900887F803609F44AC0F0F5883209F46D
:102A5000A7C018F5803109F49BC0B8F4882309F4A5
:102A6000F9C0883009F494C0FF91EF91BF91AF9104
:102A70009F918F917F916F915F914F913F912F9196
:102A80000F900FBE0F901F901895883109F488C0E1
:102A9000803251F780936C0214C0803409F49DC0D9
:102AA00040F48033B9F38833F9F680936C0285ECF7
:102AB000B0C0803509F485C0883509F496C08834E3
:102AC00099F60E943414D0CF883909F48CC038F5B7
:102AD000883729F050F4883611F0803729F683E0E2
:102AE00080938E021092BA0157C0883809F47BC0D7
:102AF000803919F0803809F0B7CF8091BA0180325F
:102B000008F071C0E091BA0181E08E0F8093BA01A4
:102B10008091BB00F0E0E656FE4F80833DC0803BD5
:102B200039F0E0F4803A09F479C0883A09F09CCF92
:102B300084E080938E021092990110929801E091A6
:102B40001E02F0911F0209958091980181110FC01A
:102B500081E0809398011092780109C0803C09F4CB
:102B6000A6CF883C09F4A3CF883B09F07DCFE09144
:102B7000990181E08E0F80939901F0E0E858FE4FB3
:102B800080818093BB00909199018091980129C028
:102B9000809169028093BB0085EC8093BC0064CF78
:102BA00090916B0280916A02981758F5E0916B0240
:102BB00081E08E0F80936B02F0E0E85BFD4F808137
:102BC000E9CFE0916B0281E08E0F80936B028091E0
:102BD000BB00F0E0E85BFD4F808390916B02809139
:102BE0006A029817C8F285E8D8CFE0916B0281E0BD
:102BF0008E0F80936B028091BB00F0E0E85BFD4F8D
:102C0000808380916D0281115CCF81E080936802A6
:102C100084EA8093BC0010928E0226CF85EC8093CC
:102C2000BC0010928E028091BA01803230F4E091A3
:102C3000BA01F0E0E656FE4F10826091BA0170E0F2
:102C4000E0911C02F0911D028AE991E00995109231
:102C5000BA010ACF10926C0234CFCF93DF93109257
:102C600098021092970288EE93E0A0E0B0E0809383
:102C7000990290939A02A0939B02B0939C0224E144
:102C800031E0309396022093950225EC30E03093AA
:102C9000A2022093A10224EC30E03093A4022093FE
:102CA000A30220EC30E03093A6022093A50221EC91
:102CB00030E03093A8022093A70222EC30E030935A
:102CC000AA022093A90226EC30E03093AC022093B4
:102CD000AB021092AE021092AF021092B0021092AC
:102CE000B10210923503109234038093360390930F
:102CF0003703A0933803B093390386E291E09093B1
:102D000033038093320310927A041092810410925C
:102D100088041092890410928A0410928B0481E036
:102D200080938704809384041092850492E09093AA
:102D300086048093790486E390E090937E048093E8
:102D40007D040E94472A9093830480938204009715
:102D500009F497C026E3DC011D922A95E9F782E188
:102D600090E090937C0480937B0486E090E09093C5
:102D7000800480937F0480917A04882341F061E08D
:102D800086E00E94C00160E086E00E947401EAE2F1
:102D9000F1E0E491F0E0EE0FFF1FE65EFE4F85915B
:102DA000949190938D0480938C04ECE0F1E0E49195
:102DB000E0938E04CCE0D0E0D0937204C093710411
:102DC0008AE090E090937404809373048BE090E029
:102DD000909376048093750484E090E09093780457
:102DE0008093770461E08CE00E94C00161E08091F3
:102DF00073040E94C00161E0809175040E94C001CB
:102E000061E0809175040E947401D0937204C093B4
:102E10007104E1E3F4E081E794E011928E179F07DB
:102E2000E1F7D0E0C0E08091770490917804C81772
:102E3000D90784F540E06FE0CE010E944A098091F5
:102E4000770490917804C817D9072CF447E06BE019
:102E5000CE010E944A0940E069E0CE010E944A0981
:102E6000CE010E94CC0B8091770490917804C81712
:102E7000D9072CF440E06CE0CE010E944A0921966B
:102E8000D2CF10927E0410927D0410927C04109296
:102E90007B046BCF1092F0031092EF03E1EFF3E0AD
:102EA00080E3DF011D928A95E9F7109242031092A8
:102EB000430310924503109244031092460310926C
:102EC0004703109248031092490310924A0310924C
:102ED0004C0310924B0310924D0310924E0310922C
:102EE0004F0310925003109251031092530310920B
:102EF00052031092540310925503109256031092ED
:102F000057031092580310925A03109259031092CB
:102F10005B0310925C0310925D0310925E031092AB
:102F20005F0310926403109265031092660310927F
:102F30006703109268031092690310927203109253
:102F4000730310927403109275031092760310921B
:102F500077031092800310928103109286031092DF
:102F60008703109288031092890310928E031092A7
:102F70008F0310929403109295031092960310926F
:102F8000970310929C0310929D031092A20310923B
:102F9000A3031092A4031092A5031092AA03109207
:102FA000AB031092B0031092B1031092B2031092CF
:102FB000B3031092B8031092B9031092BE0310929B
:102FC000BF031092C0031092C1031092C603109267
:102FD000C70382E08093D7031092D8031092D903DD
:102FE0001092DA031092DC031092DB031092DE03DE
:102FF0001092DD031092DF031092E0031092E103C0
:103000001092E2031092E3031092E4031092E5039E
:103010001092E6031092E7031092E8031092E9037E
:103020001092EA031092EB031092EC031092ED035E
:103030001092EE031092C8030E942D030E942D03EC
:1030400060933E0370933F0380934003909341034A
:103050001092A6041092A7041092A8041092A9043A
:103060001092AA041092AB041092AC041092AD041A
:103070001092AE041092AF041092B0041092B104FA
:103080001092B2041092B8041092B704DF91CF915D
:103090000895CF93DF93CDB7DEB7C256D1090FB6EF
:1030A000F894DEBF0FBECDBF789484B5826084BD36
:1030B00084B5816084BD85B5826085BD85B581603C
:1030C00085BD80916E00816080936E0010928100BA
:1030D0008091810082608093810080918100816075
:1030E0008093810080918000816080938000809136
:1030F000B10084608093B1008091B00081608093C2
:10310000B00080917A00846080937A0080917A0088
:10311000826080937A0080917A00816080937A0047
:1031200080917A00806880937A001092C10060E0FC
:103130008EE00E94C00160E08FE00E94C00160E06C
:1031400080E10E94C00160E085E10E94C00161E071
:1031500087E00E94C00160E087E00E94740185E181
:103160000E94F101BC01990F880B990B6115710543
:103170008105910511F00E94032880917F049091B0
:10318000800497FD08C061E00E94C00160E080916A
:103190007F040E94740181E080937A0410E000E0D3
:1031A0008091770490917804081719072CF441E076
:1031B0006CE0C8010E944A0968E070E0C8010E9402
:1031C000120CC8010E94CC0B0F5F1F4F0430110579
:1031D00039F70E947D0581E08093240289E680937F
:1031E000460210922502109247026BE682E393E0BA
:1031F0000E94300560E082E393E00E94300581E0A8
:103200000E948D068091220290912302009711F076
:103210000E94E32A86E090E00E94472A8C0188E61B
:10322000D8018C9382E393E012969C938E9311972E
:1032300013961C92139780E290E015969C938E93C0
:10324000149710932302009322020E947D0581E0CF
:10325000F8018383C8010E949B074EE853E068EEA3
:1032600073E080E090E00E9439034BE953E068E5A9
:1032700072E080E090E00E94390348EA53E06AEF90
:1032800070E080E090E00E943903E091A502F091A7
:10329000A60202E00083E091A102F091A202108256
:1032A000E091A302F091A4028FEC80831092AD0212
:1032B000E091A902F091AA0216E01083E091A70222
:1032C000F091A802808180618083E091A702F09153
:1032D000A802808188608083E091A702F091A80213
:1032E000808180688083E091A702F091A8028081AC
:1032F0008F7D808384E690E0A0E0B0E08093B3040B
:103300009093B404A093B504B093B6041092A604AD
:103310008093AF049093B004A093B104B093B2042F
:103320000E942D036093AB047093AC048093AD04B2
:103330009093AE0485E992E09093900480938F047B
:103340001092A5042EE7209391049FEF909392048E
:10335000109393048FEE80939A0420939B04909390
:103360009C0410939D048093A40419E0109394048A
:10337000109295041092960484E0809397040E9422
:10338000C8000E94F71064E170E080E090E00E94C5
:10339000FB021093940410929504109296040093EB
:1033A00097040E94C8000E94F71010E000E0C801D6
:1033B0000E942F0868EC70E080E090E00E94FB0221
:1033C000B80181E090E00E94C0070F5F1F4F0430FA
:1033D000110569F74CE1E42EF12CB80183E090E08F
:1033E0000B3011052CF0B701601B710B82E090E0EF
:1033F0000E94C00762E370E080E090E00E94FB0260
:103400000F5F1F4F0231110541F710E000E048E067
:10341000602F812F0E947E0A69E170E080E090E0D9
:103420000E94FB020F5F063091F71F5F143071F7A7
:1034300068EE73E080E090E00E94FB0203E010E0A1
:103440000031110519F0C8010E942F080F5F1F4FAE
:1034500002311105A9F790E080E00E94F40B81E0B1
:1034600090E00E94F40B82E090E00E94F40B83E075
:1034700090E00E94F40B84E1809303011092120209
:103480000E9435089E012F5F3F4FA2963FAF2EAF9F
:10349000A29701EF13E0D8018D919C91892B89F1BE
:1034A0000E942D036B017C01F80184819581A68126
:1034B000B781B701A601481B590B6A0B7B0B8085AE
:1034C0009185A285B385481759076A077B07C8F01D
:1034D0000190F081E02DD80112968D919C91099573
:1034E000882309F455C0F80184859585892B09F452
:1034F0004FC021E030E035872487C482D582E68240
:10350000F782005F1F4FF4E001321F0720F20E9494
:103510002D0301EF13E0D8018D919C91892B09F0C7
:1035200049C0005F1F4FB4E001321B07A0F30E94A7
:103530002D039091BC018091BB012091D9012223E0
:1035400009F458C0992309F44BC0811109C06BE0FC
:1035500070E088E090E00E94C00781E08093BB01AA
:103560008091D801882311F40C94DB266FE070E081
:1035700082E090E00E94C00780911202811196C201
:103580008091C101882309F440C00E94350856C0CB
:10359000F80111821082138212821482158216821F
:1035A0001782108611861286138615861486178652
:1035B0001686A7CF0E942D03F801C480D580E6802F
:1035C000F7806C197D098E099F09C084D184E2843B
:1035D000F3846C157D058E059F0508F4A2CFA7CF57
:1035E000882309F4BDCF6BE070E087E090E00E9493
:1035F000C007B6CF992331F0882309F4B1CF1092D8
:10360000BB01AECF8111ACCFEECF0E949708809363
:10361000030190910201891729F091E09093C5016F
:10362000809302019091C501992341F08B3009F4F8
:1036300039C208F029C28A3009F42EC280911102E1
:10364000813021F490E080E00E940F1480911102FB
:103650008C3009F0B0C04EE762E070E090E080E0AE
:103660000E94830A4EE763E070E090E080E00E94F1
:10367000830A4EE764E070E090E080E00E94830AF5
:103680004EE765E070E090E080E00E94830A1092CF
:10369000FA011092FB011092FC011092FD011092B0
:1036A000FE011092FF01109200021092010210928E
:1036B00002021092030210920402109205020E946C
:1036C000C10A60ED77E080E090E00E94FB0201E03B
:1036D00010E0F12CE12C4EE7B701C8010E94830AEB
:1036E00063E070E080E090E00E94FB024CE7B701ED
:1036F000C8010E94830A63E070E080E090E00E94CD
:10370000FB0248E7B701C8010E94830A63E070E04A
:1037100080E090E00E94FB0240E7B701C8010E94F0
:10372000830A63E070E080E090E00E94FB0240E6E4
:10373000B701C8010E94830A63E070E080E090E076
:103740000E94FB0240E4B701C8010E94830A63E0C3
:1037500070E080E090E00E94FB0240E0B701C80109
:103760000E94830A63E070E080E090E00E94FB0228
:1037700040E0B701C8010E94830A63E070E080E086
:1037800090E00E94FB02FFEFEF1AFF0A26E0E2162C
:10379000F10409F0A0CF0F5F1F4F0430110509F0AD
:1037A00098CF60E170E087E090E00E94C00710923F
:1037B000110210921202809111028D3009F03FC562
:1037C0000E949708809303018091D80181118AC0DB
:1037D00063E070E081E090E00E94C0076FE070E07D
:1037E00082E090E00E94C00786E080930E0282E3B0
:1037F0008093100289E180930F0286E090E00E949E
:10380000420A60E082E390E00E94AD0A60E089E154
:1038100090E00E94990A8EE390E0A0E0B0E08093EF
:10382000FA019093FB01A093FC01B093FD0110926B
:10383000FE011092FF0110920002109201021092FC
:1038400002021092030210920402109205020E94DA
:10385000C10A0E942D030091D4011091D50120913D
:10386000D6013091D701601771078207930750F492
:103870000E942D036093D4017093D5018093D601EB
:103880009093D7010E942D03C090D401D090D50110
:10389000E090D601F090D7016C197D098E099F093F
:1038A000643F71408105910510F00E942D030E9434
:1038B0002D036C197D098E099F09683E73408105AF
:1038C000910580F06FE070E090E080E00E94120CC3
:1038D0000E942D036093D4017093D5018093D6018B
:1038E0009093D70111E08091D801909103019E300F
:1038F00009F02EC481112EC40E942D03C090D40162
:10390000D090D501E090D601F090D7016C157D05DF
:103910008E059F0550F40E942D036093D40170938F
:10392000D5018093D6019093D7010E942D03C090BA
:10393000D401D090D501E090D601F090D7016C1958
:103940007D098E099F09643F71408105910510F042
:103950000E942D030E942D036C197D098E099F0979
:10396000683E73408105910580F06FE070E090E063
:1039700080E00E94120C0E942D036093D40170938A
:10398000D5018093D6019093D7010E942D03C0905A
:10399000D001D090D101E090D201F090D3016C150C
:1039A0007D058E059F0550F40E942D036093D00184
:1039B0007093D1018093D2019093D3010E942D0383
:1039C000C090D001D090D101E090D201F090D3010D
:1039D0006C197D098E099F09683E73408105910528
:1039E00098F08091CE019091CF0101969093CF01F4
:1039F0008093CE010E942D036093D0017093D1017A
:103A00008093D2019093D3018091CE019091CF0108
:103A100002970CF468CF61E070E087E090E00E94CC
:103A2000C00762E070E087E090E00E94C00770E0AD
:103A300060E087E090E00E94C00763E070E087E00C
:103A400090E00E94C00790E080E00E94CC0B81E0F3
:103A500090E00E94CC0B82E090E00E94CC0B83E0CF
:103A600090E00E94CC0B6CE271E080E090E00E945C
:103A7000FB021093D801109203016CED75E080E019
:103A800090E00E94FB022FCF8E3071F0813109F05F
:103A9000D5CD1092C20103C081E080931202109232
:103AA000C501CCCD82E0F9CF83E0F7CF813009F0BA
:103AB000F1C062E070E083E090E00E94C0070E94E5
:103AC000FB07F090C201F1100E9408080E949708BD
:103AD000182F8093030180910201181303C01092E4
:103AE000C50145C081E08093C50110930201F7FE36
:103AF00043C0113109F040C08F2D8E778093C201F1
:103B000062E070E081E090E00E94C00740E070E079
:103B100060E090E080E00E94830A40E061E070E0B5
:103B200090E080E00E94830A1092C5018091C50157
:103B3000882309F499C0103109F085C0109212024F
:103B40008EE090E00E942F0862E070E081E090E05B
:103B50000E94C007109206021092C50180911002C7
:103B6000811165C060E090E080E00E94AD0A8FE0C6
:103B700090E00E942F0862CD1F30C1F61092C5015F
:103B8000309110022AE0832F622F0E940D2A909319
:103B90000802309307028091BD010091BE01829F0F
:103BA000000D112400931002802F90E08750924066
:103BB00039F010920F0260E090E080E00E94990AD4
:103BC0000531E9F08DED800F8330C8F00233B9F094
:103BD0000F7EA9F08F2D81688093C201909107021A
:103BE000809108022AE0929F800D11248093100298
:103BF00062E070E081E090E00E94C00797CF8DE026
:103C000090E00E942F088EE090E00E942F0862E072
:103C100070E081E090E00E94C007109206021092CE
:103C200012021092C20181E08093C1017FCF2091E6
:103C300007028091080290E060E03AE0239F800D47
:103C4000911D112492CF82E01B3019F01E3061F4D7
:103C500083E0809312021092060262E070E081E03D
:103C600090E00E94C0073BCF1A3008F080CF00914F
:103C70000602033008F07BCFE02FF0E0E354FE4F64
:103C80001083412F602F80E00E947E0A0F5F009317
:103C9000060225CF823009F0ABC070E060E083E01F
:103CA00090E00E94C0070E94FB071091C201111111
:103CB0000E9408080E9497088093030190910201D6
:103CC00089130FC01092C501803109F450CF8A309A
:103CD00009F07EC08091C501882309F448CF81E0B6
:103CE00081C091E09093C5018093020117FF10C03D
:103CF000813171F41D771093C20170E060E081E0C2
:103D000090E00E94C0078DE090E00E942F08E7CE6F
:103D10008F3011F00C941A271092C50130910F02C8
:103D20002AE0832F622F0E940D2A9093C7013093BF
:103D3000C6014091BF018091C001429F800D1124B6
:103D400080930F024FEE480F4230E8F08823D9F0FD
:103D5000482F4F7B4232B9F08630A9F0843299F077
:103D60008B3289F0843479F0329F900D1124909336
:103D70000F0212681093C20170E060E081E090E0F1
:103D80000E94C007F4CE8DE090E00E942F088EE0E4
:103D900090E00E942F0870E060E081E090E00E94D7
:103DA000C00710921202109206021092C20181E026
:103DB0008093C101DCCE2091C6018091C70190E0C3
:103DC00060E04AE0249F800D911D11240C94362759
:103DD0008E3011F00C94E7268091C501882309F4F8
:103DE000C6CE83E08093120270E060E00C940B2753
:103DF000833009F05DC061E070E085E090E00E94F2
:103E0000C0070E94FB071091C20111110E9408080F
:103E10000E9497088093030190910201891709F489
:103E20005ECE91E09093C5018093020117FF08C018
:103E3000813131F41B771093C20161E070E05FCFF4
:103E40008F3009F0DEC71092C50130910E029091BB
:103E5000C3018091C4015AE0959F800D1124809385
:103E60000E02853181F0833271F08E3361F09BEB6D
:103E7000980F923040F08F7E31F014681093C20199
:103E800061E070E07BCF2AE0832F622F0E940D2A31
:103E9000329F900D112490930E028DE090E00E94CD
:103EA0002F088EE090E00E942F0861E070E075CF4F
:103EB000843009F007C18FE090E00E942F0803E0F2
:103EC00010E00330110581F463E070E081E090E0E0
:103ED0000E94C00727E130E0201B310B44E664E676
:103EE00084E60E94240807C00B3011050CF49BC720
:103EF0000D3011057CF362E370E080E090E00E94F9
:103F0000FB020F5F1F4F02311105D9F610E000E0F0
:103F100048E0602F812F0E947E0A69E170E080E016
:103F200090E00E94FB020F5F063091F71F5F143094
:103F300071F76CED75E080E090E00E94FB0287E095
:103F400092E080931002A6ECB1E0A0930F0204E08F
:103F500010E090E080E00E94CC0B6EE070E087E023
:103F600090E00E94C0076DE070E087E090E00E9462
:103F7000C00764EF71E080E090E00E94FB02809156
:103F80000E02811190C048E063E00E947E0A48E082
:103F900062E080E00E947E0A80911002811187C059
:103FA00048E060E00E947E0A48E061E080E00E9414
:103FB0007E0A48E064E080E00E947E0A48E065E016
:103FC00080E00E947E0A6EE070E082E090E00E9455
:103FD000C0076DE070E082E090E00E94C00764EFEF
:103FE00071E080E090E00E94FB020150110909F0AD
:103FF000B0CF03E010E0980140E060E080E00E9474
:1040000024080F5F1F4F0B301105A9F70031110570
:1040100031F0980140E060E080E00E9424080F5FEA
:104020001F4F0231110591F790E080E00E94CC0B08
:1040300081E090E00E94CC0B82E090E00E94CC0BEB
:1040400083E090E00E94CC0B68EE73E080E090E0AB
:104050000E94FB0262E070E081E090E00E94C007F5
:1040600070E060E081E090E00E94C00761E070E0F5
:1040700081E090E00E94C00780910E0290E00E94D3
:10408000A80D8091100260E090E00E94AD0A80913E
:104090000F0260E090E00E94990A84E1809303019E
:1040A0001092120272CA90E00E94A80D75CF60E0D3
:1040B00090E00E94AD0A80910F0260E090E00E94C3
:1040C000990A81CF853081F467E070E083E090E069
:1040D0000E94C00764EF71E080E090E00E94FB0264
:1040E000F0E0E0E00995AACA863009F0A7CA81E0AD
:1040F00090E00E94F40B82E090E00E94F40B83E0D9
:1041000090E00E94F40B64E670E080E090E00E9492
:10411000FB0290E080E00E94A80D82E390E00E9404
:10412000060A89E190E00E94CA094EE350E060E08F
:1041300070E081E090E00E941E0C0E9497080E97AC
:1041400079F26AEF70E080E090E00E94FB02F5CF28
:10415000882361F06FE070E082E090E00E94C00789
:1041600063E070E087E090E00E94C00734E1F32E46
:104170000EE21EE0809103018E3009F060C0809154
:10418000D801882309F45BC00E942D038090CA01E6
:104190009090CB01A090CC01B090CD01681579052D
:1041A0008A059B0550F40E942D036093CA01709309
:1041B000CB018093CC019093CD010E942D03809080
:1041C000CA019090CB01A090CC01B090CD016819AC
:1041D00079098A099B09683E73408105910598F029
:1041E0008091C8019091C90101969093C901809373
:1041F000C8010E942D036093CA017093CB01809384
:10420000CC019093CD018091C8019091C901029792
:104210000CF4B0CF1092D80110920301F09210026A
:1042200000930E026CED75E080E090E00E94FB02CE
:104230000E942912109311020E9435089BCF809191
:104240001102893089F481E090E00E940F1480E02F
:1042500090E0892B09F41DC90E941A04882309F4EF
:1042600011C90E9400000EC98B3009F02DC10E94B7
:104270002D030091E0011091E1012091E2013091C4
:10428000E301601771078207930750F40E942D0322
:104290006093E0017093E1018093E2019093E30168
:1042A0000E942D030091E0011091E1012091E201B3
:1042B0003091E301601B710B820B930B683E7340DE
:1042C0008105910508F47DC08091DE019091DF01A8
:1042D00001969093DF018093DE01CC976CF0809182
:1042E000DC019091DD0101969093DD018093DC016A
:1042F0001092DF011092DE018091DC019091DD01CE
:10430000CC976CF08091DA019091DB01019690934B
:10431000DB018093DA011092DD011092DC010E9432
:104320002D036093E0017093E1018093E20190938B
:10433000E3018091DA019091DB01092E000CAA0BB8
:10434000BB0B8093FA019093FB01A093FC01B09307
:10435000FD018091DC019091DD01092E000CAA0B7A
:10436000BB0B8093FE019093FF01A0930002B093DA
:104370000102C090DE01D090DF010D2C000CEE0890
:10438000FF08C0920202D0920302E0920402F0926F
:1043900005020E94C10A4AE0C701B601F7FE0BC040
:1043A0008DE20E949D0466277727CB016C197D0959
:1043B0008E099F094AE00E94AC1081E491E00E94BE
:1043C0009F100E942D0300913E0310913F03209106
:1043D000400330914103601771078207930750F43F
:1043E0000E942D0360933E0370933F03809340032C
:1043F000909341030E942D0300913E0310913F03CF
:104400002091400330914103601B710B820B930B91
:10441000683C71058105910508F419CF0E942D03B0
:1044200060933E0370933F03809340039093410356
:104430008091D90181110BCF0E94B42724E130E093
:1044400040E050E00E9407296B017C012AE0C20E87
:10445000D11CE11CF11C86010F30110571F0C60161
:104460008F7E049751F00131110539F023E030E0DF
:1044700040E060E00A31110524F023E030E040E044
:1044800066E980E00E9424080930110579F0E8947B
:10449000C4F833E0C316D10449F00B31110531F0F3
:1044A0000630110519F00F30110541F421E130E01B
:1044B0004AE56AE58AE50E942408C9CE21E130E098
:1044C00040E060E080E0F7CF823009F05FC0CE01CD
:1044D00001960E94A20F8E8190E02091E801309118
:1044E000E9012817390774F49093E9018093E801F2
:1044F0000E942D036093E4017093E5018093E6012F
:104500009093E7010E942D030091E4011091E501D1
:104510002091E6013091E701601B710B820B930B38
:104520002AE030E040E050E00E943929CA01B90198
:1045300024E630E040E050E00E9439298B01CB01B5
:104540006AE070E00E94192A081B190B4C8150E0A8
:1045500070E060E081E090E00E941E0C4D8150E030
:1045600070E060E082E090E00E941E0C8E81A80165
:1045700094E6899F400D511D1124052E000C660BF9
:10458000770B83E090E00E941E0C61CE833009F02F
:1045900061C160E170E082E090E00E94C00761E0EC
:1045A00087E00E94740164E170E080E090E00E9486
:1045B000FB0285E992E00E940E04181619062CF4FD
:1045C00085E992E00E94EC03F4CF85E992E00E9435
:1045D0000E0418161906CCF766E070E080E090E053
:1045E0000E94FB0210E000E085E992E00E940E04C8
:1045F00018161906BCF485E992E00E94EC03E1E08C
:10460000F0E0EC0FFD1FE00FF11F80838BEF9EE0C9
:104610000197F1F70F5F1F4F083411052CF307E4E2
:1046200010E0E2CF40910602FF24F394F40E0E89CD
:104630000053110BEBA1E053FF0B8EA98053990B94
:10464000AAE0A89F9001A99F300D11248DA9805345
:10465000990BB4E6B89FB001B99F700D1124260FD5
:10466000371F6FA96053770B620F731FF09206021A
:104670004A3008F08FC08B898053990B28EEC22EE8
:1046800023E0D22E8C9D90018D9D300D9C9D300D90
:1046900011248C898053990BB89FA001B99F500DAC
:1046A0001124420F531F8D898053990BA89F9001AD
:1046B000A99F300D1124240F351F200F311F8F8D1E
:1046C0008053990B40E157E2849F8001859F100D34
:1046D000949F100D112448A14053550B4C9DC001CF
:1046E0004D9D900D5C9D900D1124800F911F49A14F
:1046F0004053550BB49F8001B59F100D1124800FBE
:10470000911F4AA14053550BA49F8001A59F100DF6
:104710001124800F911F8E0F9F1F49E1D42EDF14AB
:1047200010F4109206024D8D4E3419F031952195FA
:1047300031094AA5453419F0919581959109032EC7
:10474000000C440B550B2093FA013093FB0140936E
:10475000FC015093FD01092E000CAA0BBB0B8093AA
:10476000FE019093FF01A0930002B0930102CB01E0
:10477000770FAA0BBB0B8093020290930302A093C6
:104780000402B093050260E087E00E9474010E9479
:10479000C10A5DCD888D8053990B28EE33E0829F4E
:1047A000A001839F500D929F500D112480E197E24C
:1047B000089F9001099F300D189F300D1124420F62
:1047C000531F098D0053110BB09F9001B19F300D05
:1047D0001124240F351F4A8D4053550BA49F80018F
:1047E000A59F100D1124200F311F4B8D4053550BE9
:1047F000240F351F0DA10053110B58EEC52E53E0A9
:10480000D52E0C9DA0010D9D500D1C9D500D112409
:10481000E89F8001E99F100DF89F100D1124400FB3
:10482000511F8EA18053990BB89FF001B99FF00DD5
:1048300011244E0F5F1F8FA18053990BA89F8001F9
:10484000A99F100D1124400F511FE8A5E053FF0B45
:10485000CA0161CF853009F0A3C1CE01865A9F4FAE
:104860000E94A20F6B962FAC6B976C96CFAC6C9797
:10487000A396CFAEA3976D963FAC6D976E960FAD96
:104880006E9710E06F964FAC6F97E42CF12CA096CA
:104890008FACA097C82CD12C809103018F3011F1DF
:1048A00024E6829E40011124B12CA12C512C712CA4
:1048B000612C809103018F3009F440C00E94970859
:1048C00080930301909102018917D9F0809302012E
:1048D0008C3069F40F5F1F4F0831110594F010E020
:1048E00000E00FC00E94970880930301D5CF8D3060
:1048F00099F701501109083111058CF70F3F100786
:10490000B1F0A801012E000C660B770B81E090E05E
:104910000E941E0CB301A20182E090E00E941E0CD6
:10492000B501A40183E090E00E941E0CC2CF07E114
:1049300010E0E7CF0E949708809303018091030164
:104940008F30C1F32801012E000C66087708809192
:1049500003018F3009F441C00E949708809303013E
:10496000909102018917D9F0809302018C3051F4A3
:104970004FEFE41AF40A5CE3E516F10484F0F12C3D
:10498000E12C0DC08D30B9F781E0E81AF1089CE305
:10499000E916F104A4F7AFEFEA16FA06B1F0B30195
:1049A000A20181E090E00E941E0CA7010F2C000CD8
:1049B000660B770B82E090E00E941E0CB501A4010B
:1049C00083E090E00E941E0CC2CF9BE3E92EF12C05
:1049D000E6CF0E94970880930301809103018F30F6
:1049E000C1F34801110FAA08BB082701FF0C660894
:1049F0007708809103018F3009F443C00E94970823
:104A000080930301909102018917E1F080930201E4
:104A10008C3051F4BFEFCB1ADB0AECE3CE16D10495
:104A20008CF0D12CC12C0EC08D3009F0CAC1F1E040
:104A3000CF1AD1082CE3C216D1049CF73FEFC3165E
:104A4000D306D9F0B501A40181E090E00E941E0CCC
:104A5000B301A20182E090E00E941E0C84E68C9DCE
:104A6000A0018D9D500D1124052E000C660B770BB7
:104A700083E090E00E941E0CBCCF8BE3C82ED12CAB
:104A8000E1CF65962FAE6597A3969FADA3976696E7
:104A90009FAF669767963FAE679768960FAF689728
:104AA0006996EFAE69976A96CFAE6A9786E0A2964E
:104AB000AEADBFADA2971D928A95E9F72AE08C2D85
:104AC000622F0E940D2A982F990F890F880FC80E08
:104AD000CA828E2D0E940D2A982F990F890F880F58
:104AE000E80EEB82802F0E940D2A982F990F890FD4
:104AF000880F080F0C83832D0E940D2A982F990F81
:104B0000890F880F380E3E82A3968FADA3970E941F
:104B10000D2A982F880F890F880FA396CFACA397E3
:104B20008C0D8F83822D0E940D2A982F880F890F5C
:104B3000880F820D88878091220290912302DC01E8
:104B400014962D913C9115972830310590F02C91B9
:104B500031E03093240220934602109225021092F5
:104B6000470221E048E050E0BE016F5F7F4F0E94A6
:104B70007D0782E08093110241E060E080E00E94C6
:104B80007E0A46E061E080E00E947E0A80E1809338
:104B9000100281E08093070286E08093080257CBE1
:104BA0008E3019F40E94291252CB8A3079F480E4B5
:104BB00090E00E94420A84E090E00E94FE1168EEBC
:104BC00073E080E090E00E94FB0241CB873009F067
:104BD000B3C04091040150910501052E000C660BF5
:104BE000770B81E090E00E941E0C61E070E087E0AE
:104BF00090E00E94C007809103018F3009F479C0D2
:104C0000EE24E3940FE010E0809103018F3009F46B
:104C10007DC00E942D0380900A0290900B02A0900C
:104C20000C02B0900D029B01AC01281939094A0908
:104C30005B0949015A0138E5831632E09306A10465
:104C4000B104E8F060930A0270930B0280930C02A7
:104C500090930D0280910902882309F44FC01092AD
:104C60000902F0900902809110026F2D90E00E94DD
:104C7000AD0A80910F026F2D90E00E94990A0E9468
:104C800097088093030190910201891729F12091DF
:104C9000040130910501809302018C3091F52F5F62
:104CA0003F4F3093050120930401809104019091BE
:104CB0000501409734F041E050E0509305014093E6
:104CC000040180910401909105011816190624F041
:104CD00010930501009304014091040150910501D6
:104CE000052E000C660B770B81E090E00E941E0CF5
:104CF0008BCF0E949708809303017DCFE092090239
:104D0000B0CF8D3091F621503109CBCF88E0809320
:104D1000110280E18093100282E680930F0261E02D
:104D200070E081E090E00E94C007809104019091C2
:104D300005010E94A80D8BCA883009F088CA00912D
:104D40000401109105018091100260E090E00E9442
:104D5000AD0A80910F0260E090E00E94990AC801BC
:104D60000E94FE11109211021092100210920F0276
:104D700010920E0260E090E080E00E94AD0A60E0D8
:104D800090E080E00E94990A90E080E00E94A80DE7
:104D900061E070E081E090E00E94C00781E090E077
:104DA0000E94F40B82E090E00E94F40B83E090E01C
:104DB0000E94F40B4CCA8FE090E00E942F080C94E4
:104DC000BC1A8CE3C816D1040CF02BCE3BCE8A3033
:104DD00010F00C94B71D10910602123010F00C94D4
:104DE000B71DE12FF0E0E154FE4F808364E0610FD6
:104DF000482F80E00E947E0A1F5F109306020C94E9
:104E00006F1D8031B9F5109212028EE090E00E9481
:104E10002F0861E070E081E090E00E94C0071092EE
:104E200006020C946F1D980140E064E684E60E943F
:104E3000240850C8803111F00C94671E10921202A1
:104E40008EE090E00E942F0870E060E081E090E04A
:104E50000E94C007109206021092C50180910F02B5
:104E600081110C94DB1E60E090E080E00E94990AC2
:104E70000C94B71D8A3011F40C946F1E8A3010F018
:104E80000C94B71D10910602123010F00C94B71D4F
:104E9000E12FF0E0ED53FE4F808362E0610F482F79
:104EA00080E00E947E0A1F5F109306020C94B71DDB
:104EB00080918204909183040E94E32A80917F0470
:104EC0009091800497FD03C060E00C94C0010895A8
:104ED0008F929F92AF92BF92CF92DF92EF92FF920A
:104EE000CF93DF93EC01688179818A819B81611581
:104EF00071058105910521F464E279ED8BE597E078
:104F00002DE133EF41E050E00E94072949015A01A9
:104F10009B01AC01A7EAB1E40E9426296B017C0148
:104F2000ACEEB4EFA50194010E943429C60ED71E41
:104F3000E81EF91EF7FE06C081E0C81AD108E10894
:104F400080E8F80AC882D982EA82FB82C701B601EA
:104F50009F77DF91CF91FF90EF90DF90CF90BF9040
:104F6000AF909F908F9008958F929F92AF92BF9233
:104F7000CF92DF92EF92FF9260910601709107014C
:104F800080910801909109016115710581059105D4
:104F900021F464E279ED8BE597E02DE133EF41E018
:104FA00050E00E94072949015A019B01AC01A7EA80
:104FB000B1E40E9426296B017C01ACEEB4EFA5019F
:104FC00094010E943429C60ED71EE81EF91EF7FE72
:104FD00006C081E0C81AD108E10880E8F80AC0924A
:104FE0000601D0920701E0920801F0920901C70181
:104FF000B6019F77FF90EF90DF90CF90BF90AF907A
:105000009F908F900895609306017093070180939D
:105010000801909309010895E89409C097FB3EF4B4
:1050200090958095709561957F4F8F4F9F4F9923F5
:10503000A9F0F92F96E9BB279395F6958795779573
:105040006795B795F111F8CFFAF4BB0F11F460FF33
:105050001BC06F5F7F4F8F4F9F4F16C0882311F08B
:1050600096E911C0772321F09EE8872F762F05C09F
:10507000662371F096E8862F70E060E02AF09A953A
:10508000660F771F881FDAF7880F9695879597F92F
:1050900008950E945C280C94CD280E94BF2838F007
:1050A0000E94C62820F0952311F00C94B6280C9489
:1050B000BC2811240C9401290E94DE2870F3959FCE
:1050C000C1F3950F50E0551F629FF001729FBB27FF
:1050D000F00DB11D639FAA27F00DB11DAA1F649F9B
:1050E0006627B00DA11D661F829F2227B00DA11D4E
:1050F000621F739FB00DA11D621F839FA00D611DD4
:10510000221F749F3327A00D611D231F849F600DF4
:10511000211D822F762F6A2F11249F5750409AF01D
:10512000F1F088234AF0EE0FFF1FBB1F661F771FA9
:10513000881F91505040A9F79E3F510580F00C9474
:10514000B6280C9401295F3FE4F3983ED4F386958A
:1051500077956795B795F795E7959F5FC1F7FE2B14
:10516000880F911D9695879597F9089597F99F67F0
:1051700080E870E060E008959FEF80EC08950024DF
:105180000A941616170618060906089500240A94AC
:1051900012161306140605060895092E0394000C32
:1051A00011F4882352F0BB0F40F4BF2B11F460FFC1
:1051B00004C06F5F7F4F8F4F9F4F089557FD9058EA
:1051C000440F551F59F05F3F71F04795880F97FBCB
:1051D000991F61F09F3F79F0879508951216130685
:1051E0001406551FF2CF4695F1DF08C016161706B4
:1051F0001806991FF1CF86957105610508940895E9
:10520000E894BB2766277727CB0197F90895052EE9
:1052100097FB1EF400940E941E2957FD07D00E94A0
:10522000392907FC03D04EF40C941E295095409563
:10523000309521953F4F4F4F5F4F08959095809542
:10524000709561957F4F8F4F9F4F08950E945B2906
:10525000A59F900DB49F900DA49F800D911D1124CA
:105260000895B7FF0C9426290E942629821B930BD0
:105270000895A1E21A2EAA1BBB1BFD010DC0AA1F97
:10528000BB1FEE1FFF1FA217B307E407F50720F0AF
:10529000A21BB30BE40BF50B661F771F881F991F2A
:1052A0001A9469F760957095809590959B01AC0173
:1052B000BD01CF010895A29FB001B39FC001A39F7C
:1052C000700D811D1124911DB29F700D811D11243F
:1052D000911D08955058BB27AA270E9482290C943B
:1052E000CD280E94BF2838F00E94C62820F039F44B
:1052F0009F3F19F426F40C94BC280EF4E095E7FBCC
:105300000C94B628E92F0E94DE2858F3BA176207DA
:1053100073078407950720F079F4A6F50C9400290B
:105320000EF4E0950B2EBA2FA02D0B01B9019001C0
:105330000C01CA01A0011124FF27591B99F0593F04
:1053400050F4503E68F11A16F040A22F232F342F4C
:105350004427585FF3CF469537952795A795F0409A
:105360005395C9F77EF41F16BA0B620B730B840BAF
:10537000BAF09150A1F0FF0FBB1F661F771F881F67
:10538000C2F70EC0BA0F621F731F841F48F48795BF
:1053900077956795B795F7959E3F08F0B0CF9395B1
:1053A000880F08F09927EE0F9795879508950E942A
:1053B000DE296894B1110C94012908950E94E62811
:1053C00088F09F5798F0B92F9927B751B0F0E1F0C6
:1053D000660F771F881F991F1AF0BA95C9F714C076
:1053E000B13091F00E940029B1E008950C94002999
:1053F000672F782F8827B85F39F0B93FCCF38695AF
:1054000077956795B395D9F73EF49095809570950B
:1054100061957F4F8F4F9F4F0895991B79E004C08E
:10542000991F961708F0961B881F7A95C9F78095E3
:10543000089597FB072E16F4009407D077FD09D046
:105440000E94332A07FC05D03EF4909581959F4F2A
:105450000895709561957F4F0895EE0FFF1F059099
:10546000F491E02D0994AA1BBB1B51E107C0AA1FB0
:10547000BB1FA617B70710F0A61BB70B881F991FF5
:105480005A95A9F780959095BC01CD0108950F9389
:105490001F93CF93DF938230910510F482E090E068
:1054A000E091BB04F091BC0430E020E0B0E0A0E06B
:1054B000309799F42115310509F44AC0281B390B9E
:1054C00024303105D8F58A819B816115710589F1F8
:1054D000FB0193838283FE0111C0408151810281CF
:1054E000138148175907E0F04817590799F41097A6
:1054F00061F012960C93129713961C933296CF017B
:10550000DF91CF911F910F9108950093BB041093E9
:10551000BC04F4CF2115310551F04217530738F080
:10552000A901DB019A01BD01DF01F801C1CFEF0143
:10553000F9CF9093BC048093BB04CDCFFE01E20F62
:10554000F31F819391932250310939832883D7CF58
:105550002091B9043091BA04232B41F420910C011D
:1055600030910D013093BA042093B90420910A01BF
:1055700030910B012115310541F42DB73EB7409113
:105580000E0150910F01241B350BE091B904F091ED
:10559000BA04E217F307A0F42E1B3F0B28173907B4
:1055A00078F0AC014E5F5F4F2417350748F04E0F7F
:1055B0005F1F5093BA044093B904819391939FCF96
:1055C000F0E0E0E09CCFCF93DF930097E9F0FC019F
:1055D000329713821282A091BB04B091BC04ED01FA
:1055E00030E020E01097A1F420813181820F931FD9
:1055F0002091B9043091BA042817390709F061C025
:10560000F093BA04E093B904DF91CF910895EA01D1
:10561000CE17DF07E8F54A815B819E0141155105F0
:10562000B1F7E901FB83EA8349915991C40FD51F72
:10563000EC17FD0761F4808191810296840F951F1C
:10564000E90199838883828193819B838A83F0E037
:10565000E0E012968D919C9113970097B9F52D91EA
:105660003C911197CD010296820F931F2091B904AE
:105670003091BA042817390739F6309751F510924E
:10568000BC041092BB04B093BA04A093B904BCCF7D
:10569000D383C28340815181840F951FC817D907D6
:1056A00061F44E5F5F4F88819981480F591F518384
:1056B00040838A819B81938382832115310509F080
:1056C000B0CFF093BC04E093BB049ECFFD01DC019E
:1056D000C0CF13821282D7CF10E0CDE9D0E004C052
:1056E000FE010E942D2A2196CE39D107C9F7F894E0
:0256F000FFCFEA
:1056F200010114140B00010000000000BD04800031
:10570200000000005004B003DD03A2040E04EC0309
:1057120000040000000030050305D904C204D204CD
:105722004E01C30453656E742000537461636B3A77
:04573200000D0A005C
:00000001FF
