:100000000C949E000C94C6000C94C6000C94C60080
:100010000C94C6000C94C6000C94C6000C94C60048
:100020000C94C6000C94C6000C94C6000C94C60038
:100030000C94C6000C94C6000C94C6000C94C60028
:100040000C9475140C94C6000C94E5140C94BF1415
:100050000C94C6000C94C6000C94C6000C94C60008
:100060000C9417150C94C600000000002400270013
:100070002A0000000008000201000003040700003D
:100080000000000000007E306D79335B5F707F7B85
:10009000771F0D3D4F4700000000000000000000EA
:1000A0000000000000000000000000000000000050
:1000B0000000800180007E306D79335B5F707F7B54
:1000C00000000000000000771F0D3D4F4700370083
:1000D00000000E00000067000000000000000000AB
:1000E00000000000000800771F0D3D4F470037005B
:1000F00000000E00151D6700000000000000000059
:1001000000000000000001020408102040800102ED
:10011000040810200102040810200000000025003F
:1001200028002B0004040404040404040202020254
:1001300002020303030303033616542711241FBED0
:10014000CFEFD8E0DEBFCDBF11E0A0E0B1E0EAEE36
:10015000F6E502C005900D92A236B107D9F724E06A
:10016000A2E6B1E001C01D92AA3DB207E1F710E09E
:10017000CDE9D0E004C02197FE010E94292ACC39A4
:10018000D107C9F70E9452180C94682B0C940000F8
:10019000ECEAF4E083819481890F9927991F2581E6
:1001A000820F911D2681280F392F311D8781280F3D
:1001B000311D8085820F932F911D91958195910915
:1001C0009187828708954F925F926F927F928F926C
:1001D0009F92AF92BF92FF92209198043091990420
:1001E0008217930708F043C02B0166247724852EDD
:1001F000962EA72EBB24B82DA42F20919E04F42C5C
:10020000222391F0E22FF0E0E49DD001E59DB00DB6
:10021000F49DB00D1124FB2E289D40011124B92D11
:10022000249F90011124A32FE091A40420919F0406
:100230003091A0045091A104E51323C0FC01EE0FFE
:10024000FF1F8E0F9F1F820F931FE091A104E80FE5
:10025000F92FF11DF082E091A204E80FF92FF11DB2
:10026000B0832091A304820F911DFC01A083FF9015
:10027000BF90AF909F908F907F906F905F904F90C6
:100280000895880F991F880F991F820F931FE80FF9
:10029000F92FF11D1082D9CF0895089590913E0253
:1002A00080913D022FEF3FEF981748F4E92FF0E0DF
:1002B000E557FD4F208130E09F5F90933E02C901DA
:1002C000089590913E0280913D022FEF3FEF9817E5
:1002D00048F4E92FF0E0E557FD4F208130E09F5FC3
:1002E00090933E02C901089590E0FC01EE58FF4F43
:1002F0002491FC01EA5FFE4F3491FC01EC5DFE4F5E
:10030000E491EE23C9F0222339F0233001F1A8F45F
:10031000213019F1223029F1F0E0EE0FFF1FE65EE7
:10032000FE4FA591B4918FB7F894EC91611126C05E
:1003300030953E233C938FBF08952730A9F0283095
:10034000C9F0243049F7809180008F7D03C08091EF
:1003500080008F7780938000DFCF84B58F7784BD56
:10036000DBCF84B58F7DFBCF8091B0008F778093FA
:10037000B000D2CF8091B0008F7DF9CF3E2BDACF85
:10038000CF93DF9390E0FC01EA5FFE4F24918C5DF8
:100390009E4FFC0184918823D1F090E0880F991F33
:1003A000FC01E859FF4FA591B491FC01E65EFE4FB8
:1003B000C591D49161110EC09FB7F8948C91E22F32
:1003C000E0958E238C932881E223E8839FBFDF9101
:1003D000CF9108958FB7F894EC91E22BEC938FBFF7
:1003E000F6CF8E50806480937C0080917A00806488
:1003F00080937A0080917A0086FDFCCF809178000E
:100400009091790008953FB7F894809135029091CA
:100410003602A0913702B091380226B5A89B05C0DC
:100420002F3F19F00196A11DB11D3FBFBA2FA92F73
:10043000982F8827BC01CD01620F711D811D911D70
:1004400042E0660F771F881F991F4A95D1F70895DC
:100450000F931F93CF93DF93CDB7DEB729970FB6D6
:10046000F894DEBF0FBECDBF80919F049091A00491
:10047000892B09F47CC00E9403020091A50410910D
:10048000A6042091A7043091A80460177107820781
:10049000930740F46093A5047093A6048093A70487
:1004A0009093A8040091A5041091A6042091A7049C
:1004B0003091A804601B710B820B930B6C3271405E
:1004C00081059105C0F2F89480919A0490919B0463
:1004D0009A838983E0919F04F091A004DF01119633
:1004E0008081898790919604E091A904F091AA04F3
:1004F0008091AB04992309F445C09081982B98878B
:100500009081809589238F838F818C8388E08B8372
:1005100058856F8149853B812C8189819A815083DF
:1005200047FD252F3A952083262F39F0441F00C020
:1005300000006083000000C0F2CF38E04D9160837E
:100540000000019761F7F093AA04E093A90449879A
:100550003B832C839A83898378940E94030260935F
:10056000A5047093A6048093A7049093A8042996E9
:100570000FB6F894DEBF0FBECDBFDF91CF911F91B4
:100580000F9108959081982B988790818095892369
:100590008F838F818E8388E08D8358856F81498515
:1005A0003D812E8189819A81508347FD252F00C08E
:1005B00000C0208300C000C000C000C000C0608335
:1005C0000000262F3A9541F0441F000000C000C0F3
:1005D00000C000C000C0E8CF38E04D9100C060838B
:1005E00000C0019709F7F093AA04E093A904498792
:1005F0003D832E83AFCF8F929F92AF92BF92CF92C7
:10060000DF92EF92FF924B015C010E9403026B01AB
:100610007C010E9403026C197D098E099F09683EC6
:10062000734081059105A8F321E0821A9108A10881
:10063000B10888EEC80E83E0D81EE11CF11C8114BD
:100640009104A104B10429F7FF90EF90DF90CF90BF
:10065000BF90AF909F908F9008952FB7F8946091BE
:1006600031027091320280913302909134022FBF97
:100670000895CF92DF92EF92FF92CF93DF936B01B9
:100680007C01EA010E942D03AB01BC0180910E04A4
:1006900090910F04892BA9F080911E0490911F0462
:1006A000892BB1F180912E0490912F04892B99F11F
:1006B00090E080E0DF91CF91FF90EF90DF90CF90BE
:1006C0000895EEE0F4E080910C0490910D04019601
:1006D00011F481E090E090930D0480930C048091DC
:1006E0000C0490910D0497878687D183C083138271
:1006F00012824483558366837783C086D186E286DF
:10070000F38621E030E0358724878E279F27D2CFDC
:10071000EEE1F4E0D8CFEEE2F4E0D5CF90916201C3
:1007200021E09227909362018091F60182278093C5
:10073000F60181E008959091630121E09227909362
:1007400063018091B10282278093B10281E0089514
:100750008091DA0191E089278093DA0181E00895A0
:10076000AF92BF92CF92DF92EF92FF920F931F93BF
:10077000CF93DF936C017B018B01040F151FEB01FD
:100780005E01AE18BF08C017D10759F06991D601B4
:10079000ED91FC910190F081E02DC6010995892B26
:1007A00079F7C501DF91CF911F910F91FF90EF90E5
:1007B000DF90CF90BF90AF900895FC01538D448D92
:1007C000252F30E0842F90E0821B930B541710F0FC
:1007D000CF96089501970895FC01918D828D981709
:1007E00061F0A28DAE0FBF2FB11D5D968C91928DE1
:1007F0009F5F9F73928F90E008958FEF9FEF089512
:10080000FC01918D828D981731F0828DE80FF11DDA
:10081000858D90E008958FEF9FEF0895FC01918DF5
:10082000228D892F90E0805C9F4F821B91098F73EE
:100830009927089582EB92E00E940E0421E0892B13
:1008400009F420E0822F089580E090E0892B29F0C0
:100850000E941A0481110C9400000895FC01A48DDB
:10086000A80FB92FB11DA35ABF4F2C91848D90E0D2
:1008700001968F739927848FA689B7892C93A089B5
:10088000B1898C91837080648C93938D848D98133F
:1008900006C00288F389E02D80818F7D80830895D2
:1008A000EF92FF920F931F93CF93DF93EC0181E0C0
:1008B000888F9B8D8C8D98131AC0E889F989808167
:1008C00085FF15C09FB7F894EE89FF896083E8899A
:1008D000F98980818370806480839FBF81E090E08C
:1008E000DF91CF911F910F91FF90EF900895F62E19
:1008F0000B8D10E00F5F1F4F0F731127E02E8C8DB3
:100900008E110CC00FB607FCFACFE889F9898081F7
:1009100085FFF5CFCE010E942E04F1CFEB8DEC0FB9
:10092000FD2FF11DE35AFF4FF0829FB7F8940B8F14
:10093000EA89FB8980818062CFCF682F82EB92E0C9
:100940000C945004CF93DF93EC01888D8823B9F089
:10095000AA89BB89E889F9898C9185FD03C08081CA
:1009600086FD0DC00FB607FCF7CF8C9185FFF2CF47
:10097000808185FFEDCFCE010E942E04E9CFDF916B
:10098000CF9108950895E0913E0280913D02E817CD
:1009900030F4F0E0E557FD4F808190E008958FEF4F
:1009A0009FEF089580913D0290913E02891B990B23
:1009B000089590E080E008952091B601260F332736
:1009C000331F21323105ECF42091AB02FC0190E0A1
:1009D00080E0243069F082E00895A091B601219171
:1009E000AC014A565E4FA40FB52FB11D2C93019652
:1009F000861798F38091B601680F6093B60180E086
:100A0000089581E00895CF92DF92EF92FF920F93C5
:100A10001F93CF93DF937C01CB018A012091410288
:100A2000222389F0EB016B01C40ED51ECC15DD0528
:100A300069F06991D701ED91FC910190F081E02D71
:100A4000C7010995F3CF642F0E94DC04C801DF9130
:100A5000CF911F910F91FF90EF90DF90CF9008956D
:100A6000CF93DF931F92CDB7DEB769832091410208
:100A70002223F9F020916402203258F021E030E086
:100A8000FC013383228390E080E00F90DF91CF91CF
:100A9000089580914202E82FF0E0ED5BFD4F9981CF
:100AA00090838F5F809342028093640281E090E0A4
:100AB000ECCF61E0CE0101960E94DC04F7CF1092EA
:100AC000AB0281E080938A021092850261E082E1AC
:100AD0000E94740161E083E10E947401E9EBF0E09F
:100AE00080818E7F808380818D7F808388E4809366
:100AF000B80085E48093BC00089510923E021092E5
:100B00003D0210924202109264020E945F058CE442
:100B100091E090933C0280933B028DE491E09093AE
:100B20003A02809339020895CF93DF9391E0909336
:100B300095018823B9F0C091B800D091BA00809196
:100B4000BC008A7B8093BC0060E082E10E9474015B
:100B500060E083E10E9474010E945F05D093BA00B7
:100B6000C093B800DF91CF9108958F929F92AF927A
:100B7000BF92CF92DF92EF92FF920F931F93CF938A
:100B8000DF93D82FC62F142F613208F09CC00E942B
:100B900003026B017C018091AB0281116FC081E087
:100BA0008093AB0210938A029FEF90938902109278
:100BB00088029C0F90938702809386028091860220
:100BC000DD0FD82BD093860280918502813009F009
:100BD0007CC0109285020E9403026B017C0180910F
:100BE00086028093BB008091AD029091AE02A091ED
:100BF000AF02B091B002892B8A2B8B2BA1F00E94FF
:100C000003020091AD021091AE022091AF0230912B
:100C1000B0026C197D098E099F090617170728076E
:100C2000390708F44CC08091BC0083FDD8CF85EC17
:100C30008093BC000E9403026B017C018091AB0297
:100C4000813009F444C0809188028C1710F4C0915F
:100C50008802E5E6F2E0ABE8B2E080E08C1359C030
:100C60008C2FDF91CF911F910F91FF90EF90DF902C
:100C7000CF90BF90AF909F908F9008958091AD02DC
:100C80009091AE02A091AF02B091B002892B8A2B55
:100C90008B2B09F480CF0E9403028090AD029090CC
:100CA000AE02A090AF02B090B0026C197D098E091F
:100CB0009F0986169706A806B90608F06CCF8091A2
:100CC000AC020E949405C0E0CBCF85EEB1CF8091FD
:100CD000AD029091AE02A091AF02B091B002892B0B
:100CE0008A2B8B2B09F4AACF0E9403020091AD023C
:100CF0001091AE022091AF023091B0026C197D09C3
:100D00008E099F09061717072807390708F096CF9D
:100D1000D6CF91919D938F5FA1CF8F929F92AF92EB
:100D2000BF92CF92DF92EF92FF920F931F93CF93D8
:100D3000DF93D0916402D13208F0D7C0182FC09150
:100D400063020E9403026B017C018091AB0281115E
:100D50006BC082E08093AB0210938A028FEF809386
:100D6000890210928802D0938702A3E4B2E0E5E6FC
:100D7000F2E080E0D81391C0109286028091860242
:100D8000CC0FC82BC093860280918502813009F078
:100D900088C0109285020E9403026B017C01809141
:100DA00086028093BB008091AD029091AE02A0912B
:100DB000AF02B091B002892B8A2B8B2BA1F00E943D
:100DC00003020091AD021091AE022091AF0230916A
:100DD000B0026C197D098E099F09061717072807AD
:100DE000390708F442C08091BC0083FDD8CF85EC60
:100DF0008093BC000E9403026B017C018091AB02D6
:100E0000823009F450C0809189028F3F09F46FC08D
:100E100080918902803209F46CC08091890280330C
:100E200009F469C084E026C08091AD029091AE02C1
:100E3000A091AF02B091B002892B8A2B8B2B09F4C1
:100E400084CF0E9403028090AD029090AE02A090E9
:100E5000AF02B090B0026C197D098E099F09861609
:100E60009706A806B90608F070CF8091AC020E94E0
:100E7000940585E0109242021092640210924102A1
:100E8000DF91CF911F910F91FF90EF90DF90CF9066
:100E9000BF90AF909F908F9008959D9191938F5F99
:100EA00069CF85EEA5CF8091AD029091AE02A09161
:100EB000AF02B091B002892B8A2B8B2B09F49ECF05
:100EC0000E9403020091AD021091AE022091AF0288
:100ED0003091B0026C197D098E099F09061717071A
:100EE0002807390708F08ACFC0CF81E0C3CF80E060
:100EF000C1CF82E0BFCF83E0BDCF1F93CF93DF93FD
:100F0000EA01122FDC0111968D919C91DC01ED918B
:100F1000FC910280F381E02D0995C817D90729F4C7
:100F2000812F0E948D0691E0811190E0892FDF9141
:100F3000CF911F910895CF93DF93EC018B8188238C
:100F4000A1F0888191E09093410280936302109216
:100F500042021092640281E00E948D0691E08111AC
:100F600090E0892FDF91CF9108950E947D0581E067
:100F70008B83CE010E949B07982F8111E2CFF1CF86
:100F80009B01029740E054E660E070E087309105F5
:100F900080F4FC01E253F84F0C94292AD507DE07B0
:100FA000E307E807ED07F207F60744E654E664E6D0
:100FB00070E0C9010E94E3000C94280240E054E66E
:100FC00064E670E0F6CF40E055EA6FEF70E0F1CFF5
:100FD00044E650E060E070E0ECCF40E050E064E6D2
:100FE00070E0E7CF40E050E0BA01E3CF42E352E3E4
:100FF00062E370E0DECF8091F6016EE070E0811177
:1010000004C082E090E00C94C00787E090E0FBCF42
:10101000CF936DE070E082E090E00E94C007C09145
:10102000E001C1FF06C070E060E083E090E00E9454
:10103000C007C0FF07C062E070E083E090E0CF919E
:101040000C94C007CF910895962F50E070E060E0B7
:10105000592B682BC9010E94E3000C9428029C01C3
:1010600040E060E080E00C9424080F931F93CF933E
:10107000DF938EE00E94F1018C018FE00E94F1016C
:10108000EC0180E10E94F101033A23E012075CF0D9
:10109000C33A23E0D20784F0833A23E0920764F056
:1010A00084E190E05AC0013E11050CF45BC00237A8
:1010B00021E012070CF459C00E3F21E012070CF496
:1010C00057C00A3822E012070CF455C0063123E05D
:1010D00012070CF453C0023A13400CF452C0C83C3F
:1010E000D1050CF451C0CA3421E0D2070CF44FC032
:1010F000C73C21E0D2070CF44DC0C13422E0D20736
:101100000CF44BC0CC3B22E0D2070CF449C0C733EF
:1011100023E0D2070CF447C0C23AD3400CF446C0D7
:10112000813E91050CF445C0823721E092070CF412
:1011300043C08E3F21E092070CF441C08A3822E080
:1011400092070CF43FC0863123E09207F4F1823A13
:1011500093400CF0A5CF81E190E0DF91CF911F91FA
:101160000F9108958AE090E0F8CF8CE090E0F5CF01
:1011700087E090E0F2CF88E090E0EFCF89E090E068
:10118000ECCF82E190E0E9CF8BE090E0E6CF8DE01C
:1011900090E0E3CF84E090E0E0CF85E090E0DDCF29
:1011A00086E090E0DACF8EE090E0D7CF8FE090E05D
:1011B000D4CF90E080E0D1CF81E090E0CECF82E04C
:1011C00090E0CBCF83E090E0C8CF80E190E0C5CF46
:1011D000CF92DF92EF92FF920F931F93CF93DF9303
:1011E00000D0CDB7DEB769834A83880F991F00917D
:1011F000940410919504000F111FEEE3F4E09F0199
:101200002E5334402017310714F41192F8CF29815E
:10121000FC01E25CFB4F21838A81808360E0809146
:1012200092040E9474011016110604F50150110970
:10123000F801E25CFB4FE080D0909004C0908E04F7
:1012400088E0F82E6E2D661F6627661F8C2D0E9483
:101250007401EE0C61E08D2D0E94740160E08D2D13
:101260000E947401FA94F110EDCFDDCF61E080911E
:1012700092040F900F90DF91CF911F910F91FF90EB
:10128000EF90DF90CF900C947401E0919404F09172
:1012900095048E179F07DCF468307105C4F4403163
:1012A000B0F4DC0133E0AA0FBB1F3A95E1F7E42F5D
:1012B000F0E0EA57FF4F449121114068A25CBB4F18
:1012C000A60FB71F50964C936F5F0C94E8080895D3
:1012D0000F931F93CF93DF93EC0101970997A0F42D
:1012E00020E040E064E070E090E080E00E9445098A
:1012F00020E04C2F65E070E090E080E0DF91CF913E
:101300001F910F910C944509CA30D105C4F02AE011
:1013100030E0CE01B9010E94152A8C01CE01801B5C
:10132000910BB9010E94152A462F20E064E070E07D
:1013300090E080E00E94450920E0402FDBCFDF9164
:10134000CF911F910F9108950F931F93CF93DF9328
:10135000EC0101970997A0F420E040E070E060E024
:1013600090E080E00E94450920E04C2F61E070E0B1
:1013700090E080E0DF91CF911F910F910C9445098F
:10138000CA30D105C4F02AE030E0CE01B9010E9494
:10139000152A8C01CE01801B910BB9010E94152AE0
:1013A000462F20E070E060E090E080E00E94450978
:1013B00020E0402FDBCFDF91CF911F910F91089557
:1013C0000F931F93CF93DF93EC0101970997A0F43C
:1013D00020E040E062E070E090E080E00E9445099B
:1013E00020E04C2F63E070E090E080E0DF91CF914F
:1013F0001F910F910C944509CA30D105C4F02AE021
:1014000030E0CE01B9010E94152A8C01CE01801B6B
:10141000910BB9010E94152A462F20E062E070E08E
:1014200090E080E00E94450920E0402FDBCFDF9173
:10143000CF911F910F91089570E020E090E00C94FF
:10144000450920919404309195048217930774F410
:10145000FC0123E0EE0FFF1F2A95E1F7E25CFB4F52
:10146000E60FF71F408B6F5F0C94E8080895611139
:1014700002C0009771F440E064E070E090E080E02A
:101480000E94210A40E065E070E090E080E00C946A
:10149000210A0C946809611102C0009771F440E0C0
:1014A00070E060E090E080E00E94210A40E061E0AE
:1014B00070E090E080E00C94210A0C94A409CF9293
:1014C000DF92EF92FF920F931F93CF93DF9384E607
:1014D000E82E81E0F82EF701108211821282138229
:1014E000148215821682379621E0EC39F207A1F7B3
:1014F000E7E0F2E0A4E6B1E081E040815181628161
:10150000738177FF20C070956095509541955F4F2E
:101510006F4F7F4F40835183628373838C934081ED
:10152000518162817381403A96E8590791E06907D9
:1015300071055CF0405A56486140710940835183FF
:1015400062837383ECCF1C92EACF91E0408151819A
:1015500062817381403127E25207610571056CF0A9
:1015600011969C931197405157426109710940832C
:101570005183628373839F5FE9CF91E04081518102
:1015800062817381483E23E05207610571056CF06A
:1015900012969C931297485E5340610971094083EB
:1015A0005183628373839F5FE9CF91E040815181D2
:1015B0006281738144365105610571056CF01396A3
:1015C0009C931397445651096109710940835183D3
:1015D000628373839F5FEACF91E040815181628192
:1015E00073814A305105610571056CF014969C9326
:1015F00014974A50510961097109408351836283EC
:1016000073839F5FEACF91E0408151816281738152
:1016100014161506160617066CF415969C93159766
:101620004150510961097109408351836283738379
:101630009F5FEACF3496179691E0A539B90709F074
:101640005CCF01E010E0D12CC12CD0E0C0E02097AD
:1016500021F5F701848D44E2813009F044E770E020
:1016600060E0C8010E94210A2196C630D10579F7B1
:101670002FEFC21AD20A0F5F1F4F87E0E80EF11C4E
:1016800093E0C916D10409F7DF91CF911F910F9113
:10169000FF90EF90DF90CF90089580912E028330DD
:1016A00089F4F2E0CF16D10469F4C330D10551F4C6
:1016B00021E04091910163E070E083E090E00E94BE
:1016C0004509D2CF20E0F701EC0FFD1F448DBE018C
:1016D000C801F5CFEF92FF921F93CF93DF93209134
:1016E00094043091950482179307B4F4EC0123E03D
:1016F000880F991F2A95E1F79C01225B3B4F7901E6
:1017000011E0F70111927F0140E0612FCE010E94AC
:10171000E8081F5F1930A9F7DF91CF911F91FF9063
:10172000EF9008950C946A0B2091940430919504E5
:1017300082179307A4F4E42F440FFF0BEA57FF4FDF
:101740004491FC0123E0EE0FFF1F2A95E1F7E25CD4
:10175000FB4FE60FF71F408B6F5F0C94E80808956E
:10176000462F2091940430919504821793071CF41E
:101770006AE00C94E80808954F925F926F927F920E
:10178000AF92BF92CF92DF92EF92FF920F931F938F
:10179000CF93DF938C012A013B0177FE4EC0CC240E
:1017A000DD247601C418D508E608F70844E270E0A5
:1017B00060E00E94210AD701C6010197A109B10981
:1017C0000997A105B10508F046C0BC2CA12C412CFD
:1017D000512C3201D0E0C0E020E04B2D65E070E0FC
:1017E000C8010E94450920E04C2F64E070E0C80168
:1017F0000E94450920E04D2F63E070E0C8010E947F
:10180000450920E0442D62E070E0C8010E944509CE
:1018100020E04A2D61E070E0C801DF91CF911F9177
:101820000F91FF90EF90DF90CF90BF90AF907F909F
:101830006F905F904F900C94450944E770E060E032
:101840000E94210A411451046104710409F419C170
:1018500073016201B0CFD701C6010A97A109B1098E
:101860008A359105A105B10508F059C03AE0432E2B
:10187000512C612C712CC701B601A30192010E9469
:101880000329B62EA7019601261B370B480B590BCF
:10189000CA01B901A30192010E940329C22FA12C00
:1018A000412C512C3201D0E080EAC81686E8D806D7
:1018B00081E0E806F1040CF48FCF40E070E060E0D6
:1018C000C8010E94210A40E261E070E0C8010E9464
:1018D000940B41E362E070E0C8010E94940B43E383
:1018E00063E070E0C8010E94940B40E364E070E0A4
:1018F000C8010E94940B45E365E070E0C801DF91E8
:10190000CF911F910F91FF90EF90DF90CF90BF90FC
:10191000AF907F906F905F904F900C94940BD70195
:10192000C60184569109A109B10984389340A105E3
:10193000B10508F52AE0422E512C612C712CC7010B
:10194000B601A30192010E940329B62ECA01B90172
:10195000A30192010E940329C62FC701B60124E604
:1019600030E040E050E00E940329D22FA12C412C0E
:10197000512C320199CFD701C601885E9340A1094D
:10198000B10988329342A105B10568F59AE0492E64
:10199000512C612C712CC701B601A30192010E9448
:1019A0000329B62ECA01B901A30192010E9403299D
:1019B000C62FC701B60124E630E040E050E00E94A7
:1019C0000329CA01B901A30192010E940329D62F5C
:1019D000C701B60128EE33E040E050E00E94032941
:1019E0002901A12C61CFD701C60180519742A109DD
:1019F000B10980399F45A140B105D8F58AE0482E4C
:101A0000512C612C712CC701B601A30192010E94D7
:101A10000329B62ECA01B901A30192010E9403292C
:101A2000C62FC701B60124E630E040E050E00E9436
:101A30000329CA01B901A30192010E940329D62FEB
:101A4000C701B60128EE33E040E050E00E940329D0
:101A5000CA01B901A30192010E9403292B01C70108
:101A6000B60120E137E240E050E00E940329A22EB7
:101A70001BCFA12C412C512C3201D0E0C0E0B12C65
:101A800013CFA12CD0E0C0E0B12CA6CE009771F40A
:101A900040E062E070E090E080E00E94210A40E0D7
:101AA00063E070E090E080E00C94210A0C94E0097F
:101AB0002F923F924F925F926F927F928F929F925E
:101AC000AF92BF92CF92DF92EF92FF920F931F934C
:101AD000CF93DF93CDB7DEB72B970FB6F894DEBF69
:101AE0000FBECDBF1C0160E170E087E090E00E9476
:101AF000C00781E08093410289E6809363021092DF
:101B00004202109264026BE38FE493E00E9430057E
:101B100080E00E948D0641E06EE089E60E94B505F6
:101B200010923E0280933D020E94610189830E94CF
:101B30006101E12CF980E82AF92A0E946101898378
:101B40000E94610100E01981082B192B0E9461019C
:101B5000D82E0E946101DA82198229813A81282BCC
:101B6000392B3B872A870E9461010E9461010E94F4
:101B700061018F830E9461019A8389830E946101C0
:101B800088870E9461019C838B830E946101898701
:101B90000E9461019E838D839701285C3109032E89
:101BA000000C440B550B305C4F4F5F4FA4EBB0E083
:101BB0000E94222920E030E840E050E00E94032902
:101BC0002A55310941095109263A8FEF38070CF49B
:101BD0000AC12B35310514F02AE530E0B901330F85
:101BE000880B990B0E940A284B015C019801285C24
:101BF0003109032E000C440B550B305C4F4F5F4FE7
:101C0000A4EBB0E00E94222920E030E840E050E060
:101C10000E940329DA01C9018A559109A109B10974
:101C2000863A2FEF92070CF4E5C0BC018B35910585
:101C300014F06AE570E0072E000C880B990B0E94E7
:101C40000A286B017C018A859B85885C91099C012F
:101C5000990F440B550B305C4F4F5F4FA4EBB0E036
:101C60000E94222920E030E840E050E00E94032951
:101C7000DA01C9018A559109A109B109863A2FEF04
:101C800092070CF4BEC0BC018B35910514F06AE5D7
:101C900070E0072E000C880B990B0E940A282B017C
:101CA0003C0160E170E087E090E00E94C0072A9468
:101CB000232809F0ADC080E09F8129813A81822BE1
:101CC000932B63E870E00E94152A6E5F7F4F072E0A
:101CD000000C880B990B0E940A289B01AC010E9402
:101CE00067292AE939E949E15EEB0E94452820E0AD
:101CF00030E048EC52E40E9445280E94D329AB0111
:101D0000770F660B770B81E090E00E94BC0B80E0C0
:101D100098852B813C81822B932B63E870E00E9495
:101D2000152A072E000C880B990B0E940A289B018C
:101D3000AC010E9467292AE939E949E15EEB0E947A
:101D4000452820E030E048EC52E40E9445280E94FB
:101D5000D329AB01770F660B770B82E090E00E94EE
:101D6000BC0B80E099852D813E81822B932B63E80B
:101D700070E00E94152A072E000C880B990B0E9418
:101D80000A289B01AC010E9467292AE939E949E147
:101D90005EEB0E94452820E030E048EC52E40E94CF
:101DA00045280E94D329AB01770F660B770B83E0A0
:101DB00090E02B960FB6F894DEBF0FBECDBFDF913B
:101DC000CF911F910F91FF90EF90DF90CF90BF9038
:101DD000AF909F908F907F906F905F904F903F90CB
:101DE0002F900C94BC0B812C912C24EBA22E22EC76
:101DF000B22EFCCEC12CD12C94EBE92E92ECF92E14
:101E000022CF412C512C84EB682E82EC782E49CFC6
:101E1000A501940160E070E080E090E40E946629F2
:101E200020E030E048EC52E40E9445280E94D3298B
:101E3000AB01770F660B770B81E090E00E94BC0B43
:101E400020E030E040E450E4C701B6010E94672979
:101E500020E030E048EC52E40E9445280E94D3295B
:101E6000AB01770F660B770B82E090E00E94BC0B12
:101E7000A301920160E070E0CB010E9466298BCF44
:101E80004F925F926F927F928F929F92AF92BF928A
:101E9000CF92DF92EF92FF920F931F93CF93DF9336
:101EA00000D000D000D01F92CDB7DEB78C011982D0
:101EB000A0903F02B0904002D50114968D919C9164
:101EC0001597892B09F45CC08C9191E090934102A5
:101ED00080936302109242021092640220E041E07B
:101EE00050E0BE016F5F7F4FC5010E947D078823D0
:101EF00009F446C0D12CC12CB7E06B2E712CF50132
:101F0000848195817301EC18FD088E159F0508F4F6
:101F10007C0141E0C3018E199F09C816D90608F457
:101F200040E06E2DD5018C910E94B50510923E02C5
:101F300080933D028E151F0419F588248394912CFB
:101F40008C0E9D1E8C0C9D1C2401C40184199509C6
:101F50008E159F0570F4F50181819281DC01ED9170
:101F6000FC910284F385E02D0995F40181934F01E2
:101F7000ECCFCE0CDF1CF7E0CF16D10408F4BFCFB6
:101F8000E981EF77FA81FB804D815E818F81282F77
:101F900030E094E0359527959A95E1F7922F990FC7
:101FA000990F291B220F280FD8012C93852F90E021
:101FB00024E0959587952A95E1F7982F990F990F29
:101FC000891B880F850F11968C931197642F70E0F1
:101FD00034E0759567953A95E1F7862F880F880F5D
:101FE000681B660F640F12966C9312974F2D50E08A
:101FF00064E0559547956A95E1F7842F880F880F1F
:10200000481B440F4F0D13964C9313972F2F30E01E
:1020100074E0359527957A95E1F7822F880F880F20
:10202000281B220F2F0F14962C9314978E2F90E0BD
:10203000F4E095958795FA95E1F7982F990F990F08
:10204000891B880F8E0F15968C93C80127960FB6A3
:10205000F894DEBF0FBECDBFDF91CF911F910F91DE
:10206000FF90EF90DF90CF90BF90AF909F908F90B8
:102070007F906F905F904F900895FC010190002039
:10208000E9F73197AF01481B590BBC0182EB92E095
:102090000C94B0038F929F92AF92BF920F931F93B5
:1020A000CF93DF93CDB7DEB7A1970FB6F894DEBF1D
:1020B0000FBECDBF19A2423008F44AE08E010F5D79
:1020C0001F4F842E912CB12CA12CA50194010E94AC
:1020D0003529E62FB901CA01EA30F4F4E05DD801F0
:1020E000EE938D01232B242B252B79F790E080E0B4
:1020F000109719F0CD010E943D10A1960FB6F894EB
:10210000DEBF0FBECDBFDF91CF911F910F91BF906A
:10211000AF909F908F900895E95CE1CF682F70E0B9
:1021200090E080E040E10C944A1080912D028332CF
:1021300091F040F48031E1F0853109F452C0109201
:102140002E020CC0853279F060F08233C1F78DE049
:1021500080932E0203C084E080932F021092DF014F
:10216000089585E0F9CF80912C02863041F7F4CFB5
:1021700085E391E00E943D1081E591E00E943D10D1
:1021800080912C028232A9F040F4823181F08431B6
:1021900061F08131A1F681E0DBCF8B32C1F0843474
:1021A000F1F0843261F682E0D3CF8EE0D1CF89E0C6
:1021B000CFCF1092FC011092FB011092FA01109205
:1021C000F9011092F8011092F7018BE0C1CF83E082
:1021D00080932E021092DF011092230208958AE06C
:1021E000B7CF80912C02853239F0823639F08432B3
:1021F00009F0A5CF85E0ACCF86E0AACF87E0A8CFD5
:10220000AF92BF92CF92DF92EF92FF920F931F9304
:10221000CF93DF938091AC049091AD04DC01ED91FC
:10222000FC910190F081E02D6091AE0409958091C0
:10223000AC049091AD04DC01ED91FC910190F08132
:10224000E02D6091AF0409958091AC049091AD04AC
:10225000DC01ED91FC910190F081E02D6091B004E2
:1022600009958091AC049091AD04DC01ED91FC9155
:102270000190F081E02D6091B10409958091AC044A
:102280009091AD04DC01ED91FC910190F081E02D85
:102290006091B20409958091AC049091AD04DC0189
:1022A000ED91FC910190F081E02D6091B3040995CE
:1022B0008091AC049091AD04DC01ED91FC91019012
:1022C000F081E02D6091B40409958091AC04909167
:1022D000AD04DC01ED91FC910190F081E02D609165
:1022E000B50409958091AC049091AD04DC01ED91A9
:1022F000FC910190F081E02D6091B60409958091E8
:10230000AC049091AD04DC01ED91FC910190F08161
:10231000E02D6091B70409958091C204882309F4E7
:102320006BC084E591E00E943D10A090AE04B09097
:10233000AF04C090B004D090B104E090B204F0902B
:10234000B3040091B4041091B504D091B604C091C7
:10235000B7048AE591E00E943D1081E591E00E947A
:102360003D108A2D0E948E1080E20E949D048B2DCC
:102370000E948E1080E20E949D048C2D0E948E107F
:1023800080E20E949D048D2D0E948E1080E20E94AA
:102390009D048E2D0E948E1080E20E949D048F2D40
:1023A0000E948E1080E20E949D04802F0E948E1059
:1023B00080E20E949D04812F0E948E1080E20E9484
:1023C0009D048D2F0E948E1080E20E949D048C2F10
:1023D0000E948E1081E591E00E943D1081E591E020
:1023E000DF91CF911F910F91FF90EF90DF90CF90F1
:1023F000BF90AF900C943D10DF91CF911F910F9142
:10240000FF90EF90DF90CF90BF90AF9008950F9323
:102410001F93CF93DF93182F092FCCEAD4E086E0E7
:102420008D831E821F828FE088870E94C8000E94D1
:10243000001164E170E080E090E00E94FB0283E024
:102440008D831E820F8318870E94C8000E9400118E
:1024500068EE73E080E090E0DF91CF911F910F91E3
:102460000C94FB02CF92DF92EF92FF92CF93DF9317
:102470006FE070E090E080E00E94B00B6FE070E0F1
:1024800087E090E00E94C00768EE73E080E090E093
:102490000E94FB0285E090E00E94071261E170E07B
:1024A00082E090E00E94C00768EE73E080E090E078
:1024B0000E94FB0264E070E083E090E00E94C007AD
:1024C00068EE73E080E090E00E94FB0260E170E063
:1024D00082E090E00E94C00768EE73E080E090E048
:1024E0000E94FB0266E070E083E090E00E94C0077B
:1024F00068EE73E080E090E00E94FB026FE070E025
:1025000082E090E00E94C00768EE73E080E090E017
:102510000E94FB0268E070E083E090E00E94C00748
:1025200068EE73E080E090E00E94FB026DE070E0F6
:1025300082E090E00E94C00761E170E087E090E0F7
:102540000E94C00764E070E087E090E00E94C0074E
:1025500060E170E087E090E00E94C00766E070E014
:1025600087E090E00E94C0076FE070E087E090E0B5
:102570000E94C00768E070E087E090E00E94C0071A
:102580006DE070E087E090E00E94C007D0E0C0E01E
:10259000C430D10509F45BC00E942D03C090F10145
:1025A000D090F201E090F301F090F4016C157D05FC
:1025B0008E059F0550F40E942D036093F1017093E6
:1025C000F2018093F3019093F4010E942D03C090D7
:1025D000F101D090F201E090F301F090F4016C1958
:1025E0007D098E099F09643F71408105910588F03E
:1025F0000E942D036C197D098E099F09683E734066
:102600008105910530F467E070E083E090E00E947E
:10261000C0070E942D036C197D098E099F09683E31
:1026200073408105910508F4B3CF67E070E087E05F
:1026300090E00E94C0070E942D036093F101709307
:10264000F2018093F3019093F4012196A1CF70E001
:1026500060E081E090E00E94C00764EF71E080E0FC
:1026600090E00E94FB0261E070E081E090E00E9457
:10267000C00764EF71E080E090E00E94FB0262E03E
:1026800070E081E090E00E94C00764EF71E080E0BC
:1026900090E00E94FB0263E070E081E090E00E9425
:1026A000C00764EF71E080E090E00E94FB021092AE
:1026B000F5016FE070E087E090E00E94C007809134
:1026C0002B0290E00E94460D80912D0260E090E088
:1026D0000E944B0A80912C0260E090E00E94370A31
:1026E00010921702109218021092190210921A02F8
:1026F00084EB90E0A0E0B0E080931B0290931C027A
:10270000A0931D02B0931E0210921F02109220028D
:1027100010922102109222020E945F0A44E270E0AD
:1027200060E081E090E00E94210A68E97AE380E0BD
:1027300090E00E94FB0263E070E087E090E00E947E
:10274000C00710922B0284E280932C0280E18093D8
:102750002D0290E080E00E94460D60E084E290E06F
:102760000E94370A60E080E190E00E944B0A82E01C
:1027700080932E02DF91CF91FF90EF90DF90CF906A
:102780000C949510CF92DF92EF92FF92CF93DF934C
:10279000809100019091B1029923F1F1882309F40D
:1027A00040C0109200010E94B02721E330E040E0D9
:1027B00050E00E9403296B017C012FEFC21AD20A5C
:1027C000E20AF20AE60163E070E0CF30D10519F0C9
:1027D000C931D105B1F481E090E00E94C007E894CE
:1027E000C3F881E1C816D10491F461E170E082E0A0
:1027F00090E0DF91CF91FF90EF90DF90CF900C941D
:10280000C00787E090E00E94C007619771F361E123
:1028100070E087E090E0EDCF811103C081E080930C
:102820000001DF91CF91FF90EF90DF90CF9008955E
:10283000CF93DF93EC0160E170E087E090E00E94CD
:10284000C007809101019091B102992359F088232A
:1028500089F0109201010E94C213CE01DF91CF9145
:102860000C94580D811106C00E94C21381E0809320
:102870000101F3CFDF91CF91089585ED8093BC00E6
:102880008091AD029091AE02A091AF02B091B002E2
:102890000796A11DB11D23E0B695A795979587953D
:1028A0002A95D1F72091BC0024FD03C01092AB0201
:1028B00008954091AD025091AE026091AF027091C7
:1028C000B002452B462B472B69F30097A105B105B4
:1028D00041F02AE22A95F1F700C00197A109B10958
:1028E000E1CF8091AC020C9494051F920F920FB629
:1028F0000F9211242F933F938F939F93AF93BF9386
:102900008091310290913202A0913302B091340251
:102910003091300223E0230F2D3758F50196A11D89
:10292000B11D209330028093310290933202A09324
:102930003302B09334028091350290913602A09117
:102940003702B09138020196A11DB11D8093350266
:1029500090933602A0933702B0933802BF91AF91A3
:102960009F918F913F912F910F900FBE0F901F90CD
:10297000189526E8230F0296A11DB11DD2CF1F92F4
:102980000F920FB60F9211242F933F934F935F93A3
:102990006F937F938F939F93AF93BF93EF93FF9327
:1029A00082EB92E00E942E04FF91EF91BF91AF91D4
:1029B0009F918F917F916F915F914F913F912F9157
:1029C0000F900FBE0F901F9018951F920F920FB689
:1029D0000F9211242F938F939F93EF93FF93E09186
:1029E000C202F091C3028081E091C802F091C90255
:1029F00082FD1BC090818091CB028F5F8F732091ED
:102A0000CC02821741F0E091CB02F0E0EE54FD4F92
:102A1000958F8093CB02FF91EF919F918F912F9192
:102A20000F900FBE0F901F9018958081F4CF1F92CA
:102A30000F920FB60F9211242F933F934F935F93F2
:102A40006F937F938F939F93AF93BF93EF93FF9376
:102A50008091B900887F803609F44AC0F0F5883249
:102A600009F4A7C018F5803109F49BC0B8F4882395
:102A700009F4F9C0883009F494C0FF91EF91BF9137
:102A8000AF919F918F917F916F915F914F913F9106
:102A90002F910F900FBE0F901F901895883109F459
:102AA00088C0803251F78093890214C0803409F4C1
:102AB0009DC040F48033B9F38833F9F680938902DE
:102AC00085ECB0C0803509F485C0883509F496C01E
:102AD000883499F60E943D14D0CF883909F48CC00F
:102AE00038F5883729F050F4883611F0803729F608
:102AF00083E08093AB021092D80157C0883809F464
:102B00007BC0803919F0803809F0B7CF8091D801A7
:102B1000803208F071C0E091D80181E08E0F80937F
:102B2000D8018091BB00F0E0E854FE4F80833DC0A7
:102B3000803B39F0E0F4803A09F479C0883A09F032
:102B40009CCF84E08093AB021092B7011092B60143
:102B5000E0913B02F0913C0209958091B601811110
:102B60000FC081E08093B6011092960109C0803CAD
:102B700009F4A6CF883C09F4A3CF883B09F07DCFA8
:102B8000E091B70181E08E0F8093B701F0E0EA5643
:102B9000FE4F80818093BB009091B7018091B60178
:102BA00029C0809186028093BB0085EC8093BC0095
:102BB00064CF9091880280918702981758F5E09130
:102BC000880281E08E0F80938802F0E0EB59FD4F80
:102BD0008081E9CFE091880281E08E0F80938802A6
:102BE0008091BB00F0E0EB59FD4F8083909188020B
:102BF000809187029817C8F285E8D8CFE0918802C3
:102C000081E08E0F809388028091BB00F0E0EB5949
:102C1000FD4F808380918A0281115CCF81E0809397
:102C2000850284EA8093BC001092AB0226CF85EC2B
:102C30008093BC001092AB028091D801803230F4B6
:102C4000E091D801F0E0E854FE4F10826091D80185
:102C500070E0E0913902F0913A0288EB91E0099539
:102C60001092D8010ACF1092890234CFCF93DF930C
:102C70001092B5021092B40288EE93E0A0E0B0E0AA
:102C80008093B6029093B702A093B802B093B902B2
:102C900025E131E03093B3022093B20225EC30E01D
:102CA0003093BF022093BE0224EC30E03093C10287
:102CB0002093C00220EC30E03093C3022093C20284
:102CC00021EC30E03093C5022093C40222EC30E0C6
:102CD0003093C7022093C60226EC30E03093C9023D
:102CE0002093C8021092CB021092CC021092CD0217
:102CF0001092CE021092520310925103809353030C
:102D000090935403A0935503B093560387E291E048
:102D10009093500380934F031092970410929E0457
:102D20001092A5041092A6041092A7041092A80471
:102D300081E08093A4048093A1041092A20492E005
:102D40009093A3048093960486E390E090939B0471
:102D500080939A040E94432A9093A00480939F0436
:102D6000009709F497C026E3DC011D922A95E9F744
:102D700082E190E0909399048093980486E090E03B
:102D800090939D0480939C0480919704882341F044
:102D900061E086E00E94C00160E086E00E9474016C
:102DA000EAE2F1E0E491F0E0EE0FFF1FE65EFE4F95
:102DB000859194919093AA048093A904ECE0F1E0AA
:102DC000E491E093AB04CCE0D0E0D0938F04C093C7
:102DD0008E048AE090E090939104809390048BE0BD
:102DE00090E0909393048093920484E090E0909319
:102DF00095048093940461E08CE00E94C00161E03E
:102E0000809190040E94C00161E0809192040E9430
:102E1000C00161E0809192040E947401D0938F04FC
:102E2000C0938E04EEE4F4E08EE894E011928E17E5
:102E30009F07E1F7D0E0C0E0809194049091950461
:102E4000C817D90784F540E06FE0CE010E94E8087A
:102E50008091940490919504C817D9072CF447E009
:102E60006BE0CE010E94E80840E069E0CE010E94DC
:102E7000E808CE010E946A0B809194049091950419
:102E8000C817D9072CF440E06CE0CE010E94E80896
:102E90002196D2CF10929B0410929A04109299041A
:102EA000109298046BCF10920D0410920C04EEE077
:102EB000F4E080E3DF011D928A95E9F710925F0349
:102EC00010926003109262031092610310926303E8
:102ED00010926403109265031092660310926703C8
:102EE000109269031092680310926A0310926B03A8
:102EF00010926C0310926D0310926E031092700387
:102F000010926F0310927103109272031092730368
:102F10001092740310927503109277031092760347
:102F2000109278031092790310927A0310927B0327
:102F300010927C03109281031092820310928303FB
:102F400010928403109285031092860310928F03CF
:102F50001092900310929103109292031092930397
:102F60001092940310929D0310929E031092A3035B
:102F70001092A4031092A5031092A6031092AB0323
:102F80001092AC031092B1031092B2031092B303EB
:102F90001092B4031092B9031092BA031092BF03B7
:102FA0001092C0031092C1031092C2031092C70383
:102FB0001092C8031092CD031092CE031092CF034B
:102FC0001092D0031092D5031092D6031092DB0317
:102FD0001092DC031092DD031092DE031092E303E3
:102FE0001092E40382E08093F4031092F5031092B0
:102FF000F6031092F7031092F9031092F80310925F
:10300000FB031092FA031092FC031092FD0310923E
:10301000FE031092FF03109200041092010410921C
:1030200002041092030410920404109205041092FA
:1030300006041092070410920804109209041092DA
:103040000A0410920B041092E5030E942D030E94C3
:103050002D0360935B0370935C0380935D039093F7
:103060005E031092C3041092C4041092C50410921F
:10307000C6041092C7041092C8041092C90410929A
:10308000CA041092CB041092CC041092CD0410927A
:10309000CE041092CF041092D5041092D404DF9184
:1030A000CF910895CF93DF93CDB7DEB7C256D10944
:1030B0000FB6F894DEBF0FBECDBF789484B58260A2
:1030C00084BD84B5816084BD85B5826085BD85B5CC
:1030D000816085BD80916E00816080936E0010924A
:1030E00081008091810082608093810080918100C5
:1030F0008160809381008091800081608093800056
:103100008091B10084608093B1008091B0008160B3
:103110008093B00080917A00846080937A008091DF
:103120007A00826080937A0080917A008160809337
:103130007A0080917A00806880937A001092C100B2
:1031400060E08EE00E94C00160E08FE00E94C0015C
:1031500060E080E10E94C00160E085E10E94C00162
:1031600061E087E00E94C00160E087E00E94740196
:1031700085E10E94F101BC01990F880B990B611543
:1031800071058105910511F00E94FF2780919C0433
:1031900090919D0497FD08C061E00E94C00160E02D
:1031A00080919C040E94740181E08093970410E058
:1031B00000E08091940490919504081719072CF46D
:1031C00041E06CE0C8010E94E80868E070E0C801D6
:1031D0000E94B00BC8010E946A0B0F5F1F4F0430A2
:1031E000110539F70E947D0581E08093410289E64F
:1031F0008093630210924202109264026BE68FE4A5
:1032000093E00E94300560E08FE493E00E94300577
:1032100081E00E948D0680913F02909140020097CC
:1032200011F00E94DF2A86E090E00E94432A8C0180
:1032300088E6D8018C938FE493E012969C938E934A
:10324000119713961C92139780E290E015969C9329
:103250008E9314971093400200933F020E947D05C5
:1032600081E0F8018383C8010E949B074EE853E088
:1032700068EE73E080E090E00E9439034BE953E090
:1032800068E572E080E090E00E94390348EA53E08C
:103290006AEF70E080E090E00E943903E091C202A2
:1032A000F091C30202E00083E091BE02F091BF0200
:1032B0001082E091C002F091C1028FEC80831092E5
:1032C000CA02E091C602F091C70216E01083E091B5
:1032D000C402F091C502808180618083E091C402C4
:1032E000F091C502808188608083E091C402F091F2
:1032F000C502808180688083E091C402F091C5029C
:1033000080818F7D808384E690E0A0E0B0E08093B0
:10331000D0049093D104A093D204B093D30410921C
:10332000C3048093CC049093CD04A093CE04B093B7
:10333000CF040E942D036093C8047093C904809346
:10334000CA049093CB0482EB92E09093AD048093F7
:10335000AC041092C2042EE72093AE049FEF90932A
:10336000AF041093B0048FEE8093B7042093B80499
:103370009093B9041093BA048093C10419E0109398
:10338000B1041092B2041092B30484E08093B404A8
:103390000E94C8000E94001164E170E080E090E0AB
:1033A0000E94FB021093B1041092B2041092B30475
:1033B0000093B4040E94C8000E94001110E000E0D5
:1033C000C8010E942F0868EC70E080E090E00E9445
:1033D000FB02B80181E090E00E94C0070F5F1F4F21
:1033E0000430110569F74CE1E42EF12CB80183E0BB
:1033F00090E00B3011052CF0B701601B710B82E0DF
:1034000090E00E94C00762E370E080E090E00E94DC
:10341000FB020F5F1F4F0231110541F710E000E082
:1034200048E0602F812F0E941C0A69E170E080E073
:1034300090E00E94FB020F5F063091F71F5F14308F
:1034400071F768EE73E080E090E00E94FB0203E019
:1034500010E00031110519F0C8010E942F080F5F1C
:103460001F4F02311105A9F790E080E00E94920BF6
:1034700081E090E00E94920B82E090E00E94920B2B
:1034800083E090E00E94920B84E18093040110920B
:103490002F020E9495109E012F5F3F4FA2963FAFD3
:1034A0002EAFA2970EE014E0D8018D919C91892B4C
:1034B00089F10E942D036B017C01F80184819581C3
:1034C000A681B781B701A601481B590B6A0B7B0B7C
:1034D00080859185A285B385481759076A077B07C0
:1034E000C8F00190F081E02DD80112968D919C9149
:1034F0000995882309F455C0F80184859585892BA1
:1035000009F44FC021E030E035872487C482D5829A
:10351000E682F782005F1F4FF4E00E331F0720F2B0
:103520000E942D030EE014E0D8018D919C91892B0F
:1035300009F049C0005F1F4FB4E00E331B07A0F332
:103540000E942D039091DA018091D9012091F6011A
:10355000222309F458C0992309F44BC0811109C0F2
:103560006BE070E088E090E00E94C00781E080930B
:10357000D9018091F501882311F40C9417276FE08D
:1035800070E082E090E00E94C00780912F028111DC
:1035900096C28091DF01882309F440C00E949510F3
:1035A00056C0F80111821082138212821482158291
:1035B0001682178210861186128613861586148647
:1035C00017861686A7CF0E942D03F801C480D580E8
:1035D000E680F7806C197D098E099F09C084D1842B
:1035E000E284F3846C157D058E059F0508F4A2CF57
:1035F000A7CF882309F4BDCF6BE070E087E090E0AF
:103600000E94C007B6CF992331F0882309F4B1CFC7
:103610001092D901AECF8111ACCFEECF0E94350808
:103620008093040190910301891729F091E0909310
:1036300002018093030190910201992341F08B30A4
:1036400009F439C208F029C28A3009F42EC28091E7
:103650002E02813021F490E080E00E9418148091C5
:103660002E028C3009F0B0C04EE762E070E090E0CE
:1036700080E00E94210A4EE763E070E090E080E085
:103680000E94210A4EE764E070E090E080E00E9432
:10369000210A4EE765E070E090E080E00E94210A98
:1036A00010921702109218021092190210921A0228
:1036B00010921B0210921C0210921D0210921E0208
:1036C00010921F02109220021092210210922202E8
:1036D0000E945F0A60ED77E080E090E00E94FB02CC
:1036E00001E010E0F12CE12C4EE7B701C8010E9487
:1036F000210A63E070E080E090E00E94FB024CE76A
:10370000B701C8010E94210A63E070E080E090E008
:103710000E94FB0248E7B701C8010E94210A63E04A
:1037200070E080E090E00E94FB0240E7B701C80132
:103730000E94210A63E070E080E090E00E94FB02BA
:1037400040E6B701C8010E94210A63E070E080E012
:1037500090E00E94FB0240E4B701C8010E94210AE8
:1037600063E070E080E090E00E94FB0240E0B7017F
:10377000C8010E94210A63E070E080E090E00E94AE
:10378000FB0240E0B701C8010E94210A63E070E03B
:1037900080E090E00E94FB02FFEFEF1AFF0A26E0B4
:1037A000E216F10409F0A0CF0F5F1F4F043011059E
:1037B00009F098CF60E170E087E090E00E94C007D8
:1037C00010922E0210922F0280912E028D3009F05D
:1037D00072C50E943508809304018091F501811122
:1037E0008AC063E070E081E090E00E94C0076FE073
:1037F00070E082E090E00E94C00786E080932B0298
:1038000082E380932D0289E180932C0286E090E090
:103810000E94E00960E082E390E00E944B0A60E0D1
:1038200089E190E00E94370A8EE390E0A0E0B0E0EA
:103830008093170290931802A0931902B0931A0272
:1038400010921B0210921C0210921D0210921E0276
:1038500010921F0210922002109221021092220256
:103860000E945F0A0E942D030091F1011091F20164
:103870002091F3013091F4016017710782079307DB
:1038800050F40E942D036093F1017093F201809334
:10389000F3019093F4010E942D03C090F101D090A8
:1038A000F201E090F301F090F4016C197D098E09AA
:1038B0009F09643F71408105910510F00E942D031E
:1038C0000E942D036C197D098E099F09683E734083
:1038D0008105910580F06FE070E090E080E00E944B
:1038E000B00B0E942D036093F1017093F20180935D
:1038F000F3019093F40111E08091F501909104019E
:103900009E3009F061C4811161C40E942D03C090F2
:10391000F101D090F201E090F301F090F4016C1508
:103920007D058E059F0550F40E942D036093F101E3
:103930007093F2018093F3019093F4010E942D03A0
:10394000C090F101D090F201E090F301F090F40109
:103950006C197D098E099F09643F714081059105AD
:1039600010F00E942D030E942D036C197D098E0911
:103970009F09683E73408105910580F06FE070E01B
:1039800090E080E00E94B00B0E942D036093F10153
:103990007093F2018093F3019093F4010E942D0340
:1039A000C090ED01D090EE01E090EF01F090F001B9
:1039B0006C157D058E059F0550F40E942D036093C4
:1039C000ED017093EE018093EF019093F0010E945E
:1039D0002D03C090ED01D090EE01E090EF01F0904A
:1039E000F0016C197D098E099F09683E73408105BD
:1039F000910598F08091EB019091EC0101969093E4
:103A0000EC018093EB010E942D036093ED01709314
:103A1000EE018093EF019093F0018091EB01909182
:103A2000EC0102970CF468CF61E070E087E090E071
:103A30000E94C00762E070E087E090E00E94C0074B
:103A400070E060E087E090E00E94C00763E070E013
:103A500087E090E00E94C00790E080E00E946A0B3F
:103A600081E090E00E946A0B82E090E00E946A0B85
:103A700083E090E00E946A0B6CE271E080E090E0ED
:103A80000E94FB021093F501109204016CED75E0A9
:103A900080E090E00E94FB022FCF8E3071F08131E8
:103AA00009F0D5CD1092E00103C081E080932F0290
:103AB00010920201CCCD82E0F9CF83E0F7CF8130C4
:103AC00009F0F1C062E070E083E090E00E94C0077E
:103AD0000E94FB07F090E001F1100E9408080E948C
:103AE0003508182F8093040180910301181303C037
:103AF0001092020145C081E08093020110930301FE
:103B0000F7FE43C0113109F040C08F2D8E778093AE
:103B1000E00162E070E081E090E00E94C00740E0D8
:103B200070E060E090E080E00E94210A40E061E007
:103B300070E090E080E00E94210A109202018091E2
:103B40000201882309F499C0103109F085C0109250
:103B50002F028EE090E00E942F0862E070E081E08A
:103B600090E00E94C00710922302109202018091FF
:103B70002D02811165C060E090E080E00E944B0A58
:103B80008FE090E00E942F0862CD1F30C1F61092A6
:103B9000020130912D022AE0832F622F0E94092A10
:103BA00090932502309324028091DB010091DC0187
:103BB000829F000D112400932D02802F90E08452EB
:103BC000924039F010922C0260E090E080E00E9478
:103BD000370A0531E9F08DED800F8330C8F00233EC
:103BE000B9F00F7EA9F08F2D81688093E00190914C
:103BF0002402809125022AE0929F800D1124809357
:103C00002D0262E070E081E090E00E94C00797CF53
:103C10008DE090E00E942F088EE090E00E942F0837
:103C200062E070E081E090E00E94C0071092230201
:103C300010922F021092E00181E08093DF017FCF8C
:103C4000209124028091250290E060E03AE0239FD9
:103C5000800D911D112492CF82E01B3019F01E308F
:103C600061F483E080932F021092230262E070E0FF
:103C700081E090E00E94C0073BCF1A3008F080CF6F
:103C800000912302033008F07BCFE02FF0E0E552F3
:103C9000FE4F1083412F602F80E00E941C0A0F5FAF
:103CA0000093230225CF823009F0C5C070E060E0A8
:103CB00083E090E00E94C0070E94FB071091E001A2
:103CC00011110E9408080E94350880930401909108
:103CD0000301891327C010920201809102018823F9
:103CE00009F44ECF40910401403109F082C0109296
:103CF0002F028EE090E00E942F0870E060E081E0EB
:103D000090E00E94C007109223021092020180915D
:103D10002C0260E090E0811102C090E080E00E94FF
:103D2000370A2ECF91E0909302018093030117FF91
:103D30000FC0813169F41092E00170E060E081E031
:103D400090E00E94C0078DE090E00E942F08C3CF52
:103D50008F3019F61092020130912C022AE0832F45
:103D6000622F0E94092A9093E4013093E30140916D
:103D7000DD018091DE01429F800D112480932C0291
:103D80004FEE480F4230E8F08823D9F0482F4F7BA0
:103D90004232B9F08630A9F0843299F08B3289F042
:103DA000843479F0329F900D112490932C02126884
:103DB0001093E00170E060E081E090E00E94C007B5
:103DC0008CCF8DE090E00E942F088EE090E00E9462
:103DD0002F0870E060E081E090E00E94C007109240
:103DE0002F02109223021092E00181E08093DF0104
:103DF00074CF4A3039F481E080932F0270E060E0A4
:103E00000C942D2783E04E30B9F34A3008F0B8CE39
:103E100010912302133008F0B3CEE12FF0E0E3520B
:103E2000FE4F408364E0610F80E00E941C0A1F5F28
:103E300010932302A5CE833009F076C061E070E0D4
:103E400085E090E00E94C0070E94FB071091E0010E
:103E500011110E9408080E94350880930401909176
:103E60000301891709F444CE91E0909302018093F5
:103E7000030117FF10C0813171F41B771093E0012B
:103E800061E070E081E090E00E94C0078DE090E08A
:103E90000E942F082DCE8F3009F0D5C71092020155
:103EA00030912B029091E1018091E2014AE0949FD0
:103EB000800D112480932B028531A1F0833291F083
:103EC0008E3381F09BEB980F923060F08F7E51F033
:103ED00014681093E00161E070E081E090E00E94DE
:103EE000C0074ECE2AE0832F622F0E94092A329FFC
:103EF000900D112490932B028DE090E00E942F08EA
:103F00008EE090E00E942F0861E070E081E090E098
:103F10000E94C00710922F02109223021092E0011B
:103F200081E08093DF012CCE843009F007C18FE05F
:103F300090E00E942F0803E010E00330110581F4A7
:103F400063E070E081E090E00E94C00727E130E08C
:103F5000201B310B44E664E684E60E94240807C077
:103F60000B3011050CF481C70D3011057CF362E3B1
:103F700070E080E090E00E94FB020F5F1F4F023173
:103F80001105D9F610E000E048E0602F812F0E9473
:103F90001C0A69E170E080E090E00E94FB020F5F84
:103FA000063091F71F5F143071F76CED75E080E01B
:103FB00090E00E94FB0284E292E080932D02A3EE47
:103FC000B1E0A0932C0204E010E090E080E00E94B9
:103FD0006A0B6EE070E087E090E00E94C0076DE041
:103FE00070E087E090E00E94C00764EF71E080E03D
:103FF00090E00E94FB0280912B02811190C048E06A
:1040000063E00E941C0A48E062E080E00E941C0A13
:1040100080912D02811187C048E060E00E941C0A57
:1040200048E061E080E00E941C0A48E064E080E033
:104030000E941C0A48E065E080E00E941C0A6EE0D5
:1040400070E082E090E00E94C0076DE070E082E0E6
:1040500090E00E94C00764EF71E080E090E00E9471
:10406000FB020150110909F0B0CF03E010E0980104
:1040700040E060E080E00E9424080F5F1F4F0B309B
:104080001105A9F70031110531F0980140E060E019
:1040900080E00E9424080F5F1F4F0231110591F745
:1040A00090E080E00E946A0B81E090E00E946A0B41
:1040B00082E090E00E946A0B83E090E00E946A0B2D
:1040C00068EE73E080E090E00E94FB0262E070E046
:1040D00081E090E00E94C00770E060E081E090E045
:1040E0000E94C00761E070E081E090E00E94C0079C
:1040F00080912B0290E00E94460D80912D0260E09D
:1041000090E00E944B0A80912C0260E090E00E94B7
:10411000370A84E18093040110922F023FCA90E095
:104120000E94460D75CF60E090E00E944B0A80919E
:104130002C0260E090E00E94370A81CF853081F444
:1041400067E070E083E090E00E94C00764EF71E0F8
:1041500080E090E00E94FB02F0E0E0E0099577CA81
:10416000863009F074CA81E090E00E94920B82E0F0
:1041700090E00E94920B83E090E00E94920B64E634
:1041800070E080E090E00E94FB0290E080E00E94FE
:10419000460D82E390E00E94A40989E190E00E942C
:1041A00068094EE350E060E070E081E090E00E943A
:1041B000BC0B0E9435080E9779F26AEF70E080E040
:1041C00090E00E94FB02F5CF882361F06FE070E081
:1041D00082E090E00E94C00763E070E087E090E03A
:1041E0000E94C00734E1F32E0EE21EE0809104012C
:1041F0008E3009F060C08091F501882309F45BC01E
:104200000E942D038090E7019090E801A090E901C1
:10421000B090EA01681579058A059B0550F40E9463
:104220002D036093E7017093E8018093E901909377
:10423000EA010E942D038090E7019090E801A09090
:10424000E901B090EA01681979098A099B09683E79
:1042500073408105910598F08091E5019091E60108
:1042600001969093E6018093E5010E942D036093EF
:10427000E7017093E8018093E9019093EA0180914E
:10428000E5019091E60102970CF4B0CF1092F50190
:1042900010920401F0922D0200932B026CED75E058
:1042A00080E090E00E94FB020E94321210932E02E6
:1042B0000E9495109BCF80912E02893089F481E075
:1042C00090E00E94181480E090E0892B09F4EAC87D
:1042D0000E941A04882309F4DEC80E940000DBC88B
:1042E0008B3009F02DC10E942D030091FD0110912A
:1042F000FE012091FF0130910002601771078207D3
:10430000930750F40E942D036093FD017093FE010A
:104310008093FF01909300020E942D030091FD0104
:104320001091FE012091FF0130910002601B710B82
:10433000820B930B683E73408105910508F47DC0A4
:104340008091FB019091FC0101969093FC01809378
:10435000FB01CC976CF08091F9019091FA010196E4
:104360009093FA018093F9011092FC011092FB01E5
:104370008091F9019091FA01CC976CF08091F7014E
:104380009091F80101969093F8018093F7011092B3
:10439000FA011092F9010E942D036093FD017093C0
:1043A000FE018093FF01909300028091F7019091AC
:1043B000F801092E000CAA0BBB0B809317029093F7
:1043C0001802A0931902B0931A028091F9019091FA
:1043D000FA01092E000CAA0BBB0B80931B029093D1
:1043E0001C02A0931D02B0931E02C090FB01D0904E
:1043F000FC010D2C000CEE08FF08C0921F02D092A9
:104400002002E0922102F09222020E945F0A4AE01A
:10441000C701B601F7FE0BC08DE20E949D0466271E
:104420007727CB016C197D098E099F094AE00E940C
:104430004A1081E591E00E943D100E942D030091F9
:104440005B0310915C0320915D0330915E03601764
:1044500071078207930750F40E942D0360935B035A
:1044600070935C0380935D0390935E030E942D0321
:1044700000915B0310915C0320915D0330915E031A
:10448000601B710B820B930B683C710581059105D4
:1044900008F419CF0E942D0360935B0370935C03B3
:1044A00080935D0390935E038091F60181110BCFA1
:1044B0000E94B02724E130E040E050E00E94032950
:1044C0006B017C012AE0C20ED11CE11CF11C8601AB
:1044D0000F30110571F0C6018F7E049751F0013144
:1044E000110539F023E030E040E060E00A311105C9
:1044F00024F023E030E040E066E980E00E942408F8
:104500000930110579F0E894C4F833E0C316D104FA
:1045100049F00B31110531F00630110519F00F305B
:10452000110541F421E130E04AE56AE58AE50E949F
:104530002408C9CE21E130E040E060E080E0F7CF20
:10454000823009F05FC0CE0101960E94400F8E813B
:1045500090E020910502309106022817390774F483
:1045600090930602809305020E942D03609301023E
:104570007093020280930302909304020E942D0321
:104580000091010210910202209103023091040275
:10459000601B710B820B930B2AE030E040E050E08F
:1045A0000E943529CA01B90124E630E040E050E01C
:1045B0000E9435298B01CB016AE070E00E94152A28
:1045C000081B190B4C8150E070E060E081E090E046
:1045D0000E94BC0B4D8150E070E060E082E090E012
:1045E0000E94BC0B8E81A80194E6899F400D511D4D
:1045F0001124052E000C660B770B83E090E00E94DF
:10460000BC0B61CE833009F061C160E170E082E0F3
:1046100090E00E94C00761E087E00E94740164E1BD
:1046200070E080E090E00E94FB0282EB92E00E944A
:104630000E04181619062CF482EB92E00E94EC038B
:10464000F4CF82EB92E00E940E0418161906CCF704
:1046500066E070E080E090E00E94FB0210E000E085
:1046600082EB92E00E940E0418161906BCF482EB4D
:1046700092E00E94EC03E1E0F0E0EC0FFD1FE00FA0
:10468000F11F80838BEF9EE00197F1F70F5F1F4FC3
:10469000083411052CF307E410E0E2CF4091230227
:1046A000FF24F394F40E0E890053110BEBA1E05399
:1046B000FF0B8EA98053990BAAE0A89F9001A99F98
:1046C000300D11248DA98053990BB4E6B89FB00129
:1046D000B99F700D1124260F371F6FA96053770BF8
:1046E000620F731FF09223024A3008F08FC08B894B
:1046F0008053990B28EEC22E23E0D22E8C9D900180
:104700008D9D300D9C9D300D11248C898053990B0B
:10471000B89FA001B99F500D1124420F531F8D89DE
:104720008053990BA89F9001A99F300D1124240F4D
:10473000351F200F311F8F8D8053990B40E157E2B9
:10474000849F8001859F100D949F100D112448A116
:104750004053550B4C9DC0014D9D900D5C9D900D9F
:104760001124800F911F49A14053550BB49F800124
:10477000B59F100D1124800F911F4AA14053550B76
:10478000A49F8001A59F100D1124800F911F8E0FF3
:104790009F1F49E1D42EDF1410F4109223024D8D97
:1047A0004E3419F03195219531094AA5453419F057
:1047B000919581959109032E000C440B550B209384
:1047C0001702309318024093190250931A02092ECF
:1047D000000CAA0BBB0B80931B0290931C02A093AE
:1047E0001D02B0931E02CB01770FAA0BBB0B809367
:1047F0001F0290932002A0932102B093220260E056
:1048000087E00E9474010E945F0A5DCD888D80530D
:10481000990B28EE33E0829FA001839F500D929F59
:10482000500D112480E197E2089F9001099F300DFF
:10483000189F300D1124420F531F098D0053110B87
:10484000B09F9001B19F300D1124240F351F4A8D68
:104850004053550BA49F8001A59F100D1124200FDC
:10486000311F4B8D4053550B240F351F0DA10053A5
:10487000110B58EEC52E53E0D52E0C9DA0010D9DB9
:10488000500D1C9D500D1124E89F8001E99F100DD3
:10489000F89F100D1124400F511F8EA18053990BCA
:1048A000B89FF001B99FF00D11244E0F5F1F8FA12B
:1048B0008053990BA89F8001A99F100D1124400FD0
:1048C000511FE8A5E053FF0BCA0161CF853009F005
:1048D000A3C1CE01865A9F4F0E94400F6B962FAC0A
:1048E0006B976C96CFAC6C97A396CFAEA3976D9653
:1048F0003FAC6D976E960FAD6E9710E06F964FAC14
:104900006F97E42CF12CA0968FACA097C82CD12CDB
:10491000809104018F3011F124E6829E4001112420
:10492000B12CA12C512C712C612C809104018F3061
:1049300009F440C00E94350880930401909103015E
:104940008917D9F0809303018C3069F40F5F1F4FF2
:104950000831110594F010E000E00FC00E94350806
:1049600080930401D5CF8D3099F70150110908319A
:1049700011058CF70F3F1007B1F0A801012E000CB4
:10498000660B770B81E090E00E94BC0BB301A201A3
:1049900082E090E00E94BC0BB501A40183E090E0AE
:1049A0000E94BC0BC2CF07E110E0E7CF0E943508A0
:1049B00080930401809104018F30C1F32801012EFE
:1049C000000C66087708809104018F3009F441C01B
:1049D0000E94350880930401909103018917D9F052
:1049E000809303018C3051F44FEFE41AF40A5CE336
:1049F000E516F10484F0F12CE12C0DC08D30B9F7EF
:104A000081E0E81AF1089CE3E916F104A4F7AFEF9E
:104A1000EA16FA06B1F0B301A20181E090E00E942B
:104A2000BC0BA7010F2C000C660B770B82E090E00B
:104A30000E94BC0BB501A40183E090E00E94BC0B76
:104A4000C2CF9BE3E92EF12CE6CF0E94350880937C
:104A50000401809104018F30C1F34801110FAA08AD
:104A6000BB082701FF0C66087708809104018F308E
:104A700009F443C00E94350880930401909103011A
:104A80008917E1F0809303018C3051F4BFEFCB1A0A
:104A9000DB0AECE3CE16D1048CF0D12CC12C0EC075
:104AA0008D3009F0CAC1F1E0CF1AD1082CE3C2164B
:104AB000D1049CF73FEFC316D306D9F0B501A4018A
:104AC00081E090E00E94BC0BB301A20182E090E083
:104AD0000E94BC0B84E68C9DA0018D9D500D11247D
:104AE000052E000C660B770B83E090E00E94BC0B58
:104AF000BCCF8BE3C82ED12CE1CF65962FAE659746
:104B0000A3969FADA39766969FAF669767963FAEB5
:104B1000679768960FAF68976996EFAE69976A9640
:104B2000CFAE6A9786E0A296AEADBFADA2971D92BA
:104B30008A95E9F72AE08C2D622F0E94092A982F86
:104B4000990F890F880FC80ECA828E2D0E94092ADC
:104B5000982F990F890F880FE80EEB82802F0E9403
:104B6000092A982F990F890F880F080F0C83832D1E
:104B70000E94092A982F990F890F880F380E3E82BC
:104B8000A3968FADA3970E94092A982F880F890FAB
:104B9000880FA396CFACA3978C0D8F83822D0E9494
:104BA000092A982F880F890F880F820D8887809196
:104BB0003F0290914002DC0114962D913C91159793
:104BC0002830310590F02C9131E030934102209350
:104BD0006302109242021092640221E048E050E029
:104BE000BE016F5F7F4F0E947D0782E080932E029F
:104BF00041E060E080E00E941C0A46E061E080E065
:104C00000E941C0A80E180932D0281E0809324029F
:104C100086E08093250257CB8E3019F40E94321221
:104C200052CB8A3079F480E490E00E94E00984E07D
:104C300090E00E94071268EE73E080E090E00E942E
:104C4000FB0241CB873009F0B3C040910501509180
:104C50000601052E000C660B770B81E090E00E94A8
:104C6000BC0B61E070E087E090E00E94C00780919B
:104C700004018F3009F479C0EE24E3940FE010E0D2
:104C8000809104018F3009F47DC00E942D03809033
:104C9000270290902802A0902902B0902A029B013E
:104CA000AC01281939094A095B0949015A0138E55B
:104CB000831632E09306A104B104E8F06093270262
:104CC000709328028093290290932A0280912602F1
:104CD000882309F44FC010922602F090260280919A
:104CE0002D026F2D90E00E944B0A80912C026F2DB7
:104CF00090E00E94370A0E94350880930401909149
:104D00000301891729F12091050130910601809353
:104D100003018C3091F52F5F3F4F309306012093B4
:104D200005018091050190910601409734F041E022
:104D300050E0509306014093050180910501909148
:104D400006011816190624F01093060100930501B8
:104D50004091050150910601052E000C660B770B62
:104D600081E090E00E94BC0B8BCF0E9435088093BD
:104D700004017DCFE0922602B0CF8D3091F6215014
:104D80003109CBCF88E080932E0280E180932D0201
:104D900082E680932C0261E070E081E090E00E9466
:104DA000C00780910501909106010E94460D8BCAB3
:104DB000883009F088CA00910501109106018091A0
:104DC0002D0260E090E00E944B0A80912C0260E08E
:104DD00090E00E94370AC8010E94071210922E022A
:104DE00010922D0210922C0210922B0260E090E0A3
:104DF00080E00E944B0A60E090E080E00E94370A69
:104E000090E080E00E94460D61E070E081E090E07B
:104E10000E94C00781E090E00E94920B82E090E047
:104E20000E94920B83E090E00E94920B4CCA8FE0AC
:104E300090E00E942F080C94C51A8CE3C816D10488
:104E40000CF02BCE3BCE8031B9F410922F028EE0C5
:104E500090E00E942F0861E070E081E090E00E9405
:104E6000C007109223020C94781D980140E064E67C
:104E700084E60E9424086AC88A3011F40C94FB1E50
:104E80008A3010F00C94C01D10912302123010F0E3
:104E90000C94C01DE12FF0E0EF51FE4F808362E0E3
:104EA000610F482F0C94141F80919F049091A004CF
:104EB0000E94DF2A80919C0490919D0497FD03C07D
:104EC00060E00C94C00108958F929F92AF92BF92C0
:104ED000CF92DF92EF92FF92CF93DF93EC01688144
:104EE00079818A819B81611571058105910521F484
:104EF00064E279ED8BE597E02DE133EF41E050E09E
:104F00000E94032949015A019B01AC01A7EAB1E4BF
:104F10000E9422296B017C01ACEEB4EFA501940143
:104F20000E943029C60ED71EE81EF91EF7FE06C0E5
:104F300081E0C81AD108E10880E8F80AC882D9825D
:104F4000EA82FB82C701B6019F77DF91CF91FF9084
:104F5000EF90DF90CF90BF90AF909F908F9008958B
:104F60008F929F92AF92BF92CF92DF92EF92FF9279
:104F700060910701709108018091090190910A01E7
:104F8000611571058105910521F464E279ED8BE5E8
:104F900097E02DE133EF41E050E00E940329490101
:104FA0005A019B01AC01A7EAB1E40E9422296B01DE
:104FB0007C01ACEEB4EFA50194010E943029C60E2D
:104FC000D71EE81EF91EF7FE06C081E0C81AD108F8
:104FD000E10880E8F80AC0920701D0920801E09247
:104FE0000901F0920A01C701B6019F77FF90EF9087
:104FF000DF90CF90BF90AF909F908F900895609377
:105000000701709308018093090190930A010895A4
:10501000E89409C097FB3EF4909580957095619552
:105020007F4F8F4F9F4F9923A9F0F92F96E9BB2708
:105030009395F695879577956795B795F111F8CF84
:10504000FAF4BB0F11F460FF1BC06F5F7F4F8F4FEF
:105050009F4F16C0882311F096E911C0772321F0E5
:105060009EE8872F762F05C0662371F096E8862F7D
:1050700070E060E02AF09A95660F771F881FDAF7D4
:10508000880F9695879597F908950E9458280C9453
:10509000C9280E94BB2838F00E94C22820F095231E
:1050A00011F00C94B2280C94B82811240C94FD280B
:1050B0000E94DA2870F3959FC1F3950F50E0551FB9
:1050C000629FF001729FBB27F00DB11D639FAA275D
:1050D000F00DB11DAA1F649F6627B00DA11D661FAC
:1050E000829F2227B00DA11D621F739FB00DA11DCD
:1050F000621F839FA00D611D221F749F3327A00D87
:10510000611D231F849F600D211D822F762F6A2F22
:1051100011249F5750409AF0F1F088234AF0EE0F87
:10512000FF1FBB1F661F771F881F91505040A9F7B4
:105130009E3F510580F00C94B2280C94FD285F3FEF
:10514000E4F3983ED4F3869577956795B795F795F0
:10515000E7959F5FC1F7FE2B880F911D9695879568
:1051600097F9089597F99F6780E870E060E00895E7
:105170009FEF80EC089500240A941616170618066F
:105180000906089500240A9412161306140605064B
:105190000895092E0394000C11F4882352F0BB0FDC
:1051A00040F4BF2B11F460FF04C06F5F7F4F8F4F3F
:1051B0009F4F089557FD9058440F551F59F05F3F7A
:1051C00071F04795880F97FB991F61F09F3F79F029
:1051D00087950895121613061406551FF2CF4695AB
:1051E000F1DF08C0161617061806991FF1CF86952D
:1051F0007105610508940895E894BB276627772711
:10520000CB0197F90895052E97FB1EF400940E9498
:105210001A2957FD07D00E94352907FC03D04EF408
:105220000C941A2950954095309521953F4F4F4F3A
:105230005F4F089590958095709561957F4F8F4F42
:105240009F4F08950E945729A59F900DB49F900DE0
:10525000A49F800D911D11240895B7FF0C9422295D
:105260000E942229821B930B0895A1E21A2EAA1BE9
:10527000BB1BFD010DC0AA1FBB1FEE1FFF1FA21706
:10528000B307E407F50720F0A21BB30BE40BF50B03
:10529000661F771F881F991F1A9469F7609570958C
:1052A000809590959B01AC01BD01CF010895A29F0F
:1052B000B001B39FC001A39F700D811D1124911DEA
:1052C000B29F700D811D1124911D08955058BB2768
:1052D000AA270E947E290C94C9280E94BB2838F076
:1052E0000E94C22820F039F49F3F19F426F40C9450
:1052F000B8280EF4E095E7FB0C94B228E92F0E9441
:10530000DA2858F3BA17620773078407950720F065
:1053100079F4A6F50C94FC280EF4E0950B2EBA2F28
:10532000A02D0B01B90190010C01CA01A0011124AB
:10533000FF27591B99F0593F50F4503E68F11A1657
:10534000F040A22F232F342F4427585FF3CF4695E8
:1053500037952795A795F0405395C9F77EF41F160A
:10536000BA0B620B730B840BBAF09150A1F0FF0FD4
:10537000BB1F661F771F881FC2F70EC0BA0F621FC0
:10538000731F841F48F4879577956795B795F795B0
:105390009E3F08F0B0CF9395880F08F09927EE0F45
:1053A0009795879508950E94DA296894B1110C9415
:1053B000FD2808950E94E22888F09F5798F0B92FA1
:1053C0009927B751B0F0E1F0660F771F881F991F3A
:1053D0001AF0BA95C9F714C0B13091F00E94FC28B8
:1053E000B1E008950C94FC28672F782F8827B85FC8
:1053F00039F0B93FCCF3869577956795B395D9F792
:105400003EF490958095709561957F4F8F4F9F4F9B
:105410000895991B79E004C0991F961708F0961B10
:10542000881F7A95C9F78095089597FB072E16F483
:10543000009407D077FD09D00E942F2A07FC05D0E1
:105440003EF4909581959F4F0895709561957F4F9B
:105450000895EE0FFF1F0590F491E02D0994AA1B0B
:10546000BB1B51E107C0AA1FBB1FA617B70710F04F
:10547000A61BB70B881F991F5A95A9F78095909581
:10548000BC01CD0108950F931F93CF93DF9382301A
:10549000910510F482E090E0E091D804F091D904F5
:1054A00030E020E0B0E0A0E0309799F4211531051C
:1054B00009F44AC0281B390B24303105D8F58A81FC
:1054C0009B816115710589F1FB0193838283FE0144
:1054D00011C0408151810281138148175907E0F0C2
:1054E0004817590799F4109761F012960C93129788
:1054F00013961C933296CF01DF91CF911F910F919C
:1055000008950093D8041093D904F4CF21153105E0
:1055100051F04217530738F0A901DB019A01BD0190
:10552000DF01F801C1CFEF01F9CF9093D904809347
:10553000D804CDCFFE01E20FF31F81939193225047
:10554000310939832883D7CF2091D6043091D704ED
:10555000232B41F420910D0130910E013093D7049B
:105560002093D60420910B0130910C0121153105B7
:1055700041F42DB73EB740910F0150911001241B0B
:10558000350BE091D604F091D704E217F307A0F4AD
:105590002E1B3F0B2817390778F0AC014E5F5F4F89
:1055A0002417350748F04E0F5F1F5093D7044093E0
:1055B000D604819391939FCFF0E0E0E09CCFCF930E
:1055C000DF930097E9F0FC01329713821282A091D9
:1055D000D804B091D904ED0130E020E01097A1F497
:1055E00020813181820F931F2091D6043091D704FE
:1055F0002817390709F061C0F093D704E093D60467
:10560000DF91CF910895EA01CE17DF07E8F54A81CF
:105610005B819E0141155105B1F7E901FB83EA83E6
:1056200049915991C40FD51FEC17FD0761F4808192
:1056300091810296840F951FE90199838883828165
:1056400093819B838A83F0E0E0E012968D919C9198
:1056500013970097B9F52D913C911197CD010296C2
:10566000820F931F2091D6043091D7042817390751
:1056700039F6309751F51092D9041092D804B093AE
:10568000D704A093D604BCCFD383C2834081518179
:10569000840F951FC817D90761F44E5F5F4F88814B
:1056A0009981480F591F518340838A819B8193833D
:1056B00082832115310509F0B0CFF093D904E0932E
:1056C000D8049ECFFD01DC01C0CF13821282D7CF58
:1056D00010E0CDE9D0E004C0FE010E94292A219605
:0A56E000CE39D107C9F7F894FFCFC7
:1056EA0001010114140B00010000000000DA04801B
:1056FA0000000000005004B003DD03A2040E04EC15
:10570A000300040000000030050305D904C204D2D6
:10571A00044E01C304636173652073776974636817
:10572A0020646973706C617920646563696D616C6A
:10573A00000D0A0053656E742000537461636B3A5E
:02574A0000005D
:00000001FF
