:100000000C949E000C94C6000C94C6000C94C60080
:100010000C94C6000C94C6000C94C6000C94C60048
:100020000C94C6000C94C6000C94C6000C94C60038
:100030000C94C6000C94C6000C94C6000C94C60028
:100040000C946A140C94C6000C94DA140C94B41436
:100050000C94C6000C94C6000C94C6000C94C60008
:100060000C940C150C94C60000000000240027001E
:100070002A0000000008000201000003040700003D
:100080000000000000007E306D79335B5F707F7B85
:10009000771F0D3D4F4700000000000000000000EA
:1000A0000000000000000000000000000000000050
:1000B0000000800180007E306D79335B5F707F7B54
:1000C00000000000000000771F0D3D4F4700370083
:1000D00000000E00000067000000000000000000AB
:1000E00000000000000800771F0D3D4F470037005B
:1000F00000000E00151D6700000000000000000059
:1001000000000000000001020408102040800102ED
:10011000040810200102040810200000000025003F
:1001200028002B0004040404040404040202020254
:1001300002020303030303032B164B2711241FBEE4
:10014000CFEFD8E0DEBFCDBF11E0A0E0B1E0E8ED39
:10015000F6E502C005900D92A434B107D9F724E06A
:10016000A4E4B1E001C01D92AE3BB207E1F710E09C
:10017000CDE9D0E004C02197FE010E94202ACC39AD
:10018000D107C9F70E9447180C945F2B0C9400000C
:10019000E0E9F4E083819481890F9927991F2581F3
:1001A000820F911D2681280F392F311D8781280F3D
:1001B000311D8085820F932F911D91958195910915
:1001C0009187828708954F925F926F927F928F926C
:1001D0009F92AF92BF92FF9220917C0430917D0458
:1001E0008217930708F043C02B0166247724852EDD
:1001F000962EA72EBB24B82DA42F20918204F42C78
:10020000222391F0E22FF0E0E49DD001E59DB00DB6
:10021000F49DB00D1124FB2E289D40011124B92D11
:10022000249F90011124A32FE0918804209183043E
:100230003091840450918504E51323C0FC01EE0F36
:10024000FF1F8E0F9F1F820F931FE0918504E80F01
:10025000F92FF11DF082E0918604E80FF92FF11DCE
:10026000B08320918704820F911DFC01A083FF9031
:10027000BF90AF909F908F907F906F905F904F90C6
:100280000895880F991F880F991F820F931FE80FF9
:10029000F92FF11D1082D9CF08950895909122026F
:1002A000809121022FEF3FEF981748F4E92FF0E0FB
:1002B000E159FD4F208130E09F5F90932202C901F8
:1002C000089590912202809121022FEF3FEF98171D
:1002D00048F4E92FF0E0E159FD4F208130E09F5FC5
:1002E00090932202C901089590E0FC01EE58FF4F5F
:1002F0002491FC01EA5FFE4F3491FC01EC5DFE4F5E
:10030000E491EE23C9F0222339F0233001F1A8F45F
:10031000213019F1223029F1F0E0EE0FFF1FE65EE7
:10032000FE4FA591B4918FB7F894EC91611126C05E
:1003300030953E233C938FBF08952730A9F0283095
:10034000C9F0243049F7809180008F7D03C08091EF
:1003500080008F7780938000DFCF84B58F7784BD56
:10036000DBCF84B58F7DFBCF8091B0008F778093FA
:10037000B000D2CF8091B0008F7DF9CF3E2BDACF85
:10038000CF93DF9390E0FC01EA5FFE4F24918C5DF8
:100390009E4FFC0184918823D1F090E0880F991F33
:1003A000FC01E859FF4FA591B491FC01E65EFE4FB8
:1003B000C591D49161110EC09FB7F8948C91E22F32
:1003C000E0958E238C932881E223E8839FBFDF9101
:1003D000CF9108958FB7F894EC91E22BEC938FBFF7
:1003E000F6CF8E50806480937C0080917A00806488
:1003F00080937A0080917A0086FDFCCF809178000E
:100400009091790008953FB7F894809119029091E6
:100410001A02A0911B02B0911C0226B5A89B05C030
:100420002F3F19F00196A11DB11D3FBFBA2FA92F73
:10043000982F8827BC01CD01620F711D811D911D70
:1004400042E0660F771F881F991F4A95D1F70895DC
:100450000F931F93CF93DF93CDB7DEB729970FB6D6
:10046000F894DEBF0FBECDBF8091830490918404C9
:10047000892B09F47CC00E94030200918904109129
:100480008A0420918B0430918C04601771078207D5
:10049000930740F46093890470938A0480938B04DB
:1004A00090938C040091890410918A0420918B040C
:1004B00030918C04601B710B820B930B6C3271407A
:1004C00081059105C0F2F89480917E0490917F049B
:1004D0009A838983E0918304F0918404DF0111966B
:1004E0008081898790917A04E0918D04F0918E0447
:1004F00080918F04992309F445C09081982B9887A7
:100500009081809589238F838F818C8388E08B8372
:1005100058856F8149853B812C8189819A815083DF
:1005200047FD252F3A952083262F39F0441F00C020
:1005300000006083000000C0F2CF38E04D9160837E
:100540000000019761F7F0938E04E0938D044987D2
:100550003B832C839A83898378940E94030260935F
:10056000890470938A0480938B0490938C04299659
:100570000FB6F894DEBF0FBECDBFDF91CF911F91B4
:100580000F9108959081982B988790818095892369
:100590008F838F818E8388E08D8358856F81498515
:1005A0003D812E8189819A81508347FD252F00C08E
:1005B00000C0208300C000C000C000C000C0608335
:1005C0000000262F3A9541F0441F000000C000C0F3
:1005D00000C000C000C0E8CF38E04D9100C060838B
:1005E00000C0019709F7F0938E04E0938D044987CA
:1005F0003D832E83AFCF8F929F92AF92BF92CF92C7
:10060000DF92EF92FF924B015C010E9403026B01AB
:100610007C010E9403026C197D098E099F09683EC6
:10062000734081059105A8F321E0821A9108A10881
:10063000B10888EEC80E83E0D81EE11CF11C8114BD
:100640009104A104B10429F7FF90EF90DF90CF90BF
:10065000BF90AF909F908F9008952FB7F8946091BE
:1006600015027091160280911702909118022FBF07
:100670000895CF92DF92EF92FF92CF93DF936B01B9
:100680007C01EA010E942D03AB01BC018091F203C1
:100690009091F303892BA9F08091020490910304B7
:1006A000892BB1F18091120490911304892B99F157
:1006B00090E080E0DF91CF91FF90EF90DF90CF90BE
:1006C0000895E2EFF3E08091F0039091F103019639
:1006D00011F481E090E09093F1038093F003809116
:1006E000F0039091F10397878687D183C0831382AB
:1006F00012824483558366837783C086D186E286DF
:10070000F38621E030E0358724878E279F27D2CFDC
:10071000E2E0F4E0D8CFE2E1F4E0D5CF90914401FB
:1007200021E09227909344018091DA0182278093FF
:10073000DA0181E008959091450121E0922790939C
:1007400045018091950282278093950281E008956A
:100750008091BC0191E089278093BC0181E00895DC
:10076000AF92BF92CF92DF92EF92FF920F931F93BF
:10077000CF93DF936C017B018B01040F151FEB01FD
:100780005E01AE18BF08C017D10759F06991D601B4
:10079000ED91FC910190F081E02DC6010995892B26
:1007A00079F7C501DF91CF911F910F91FF90EF90E5
:1007B000DF90CF90BF90AF900895FC01538D448D92
:1007C000252F30E0842F90E0821B930B541710F0FC
:1007D000CF96089501970895FC01918D828D981709
:1007E00061F0A28DAE0FBF2FB11D5D968C91928DE1
:1007F0009F5F9F73928F90E008958FEF9FEF089512
:10080000FC01918D828D981731F0828DE80FF11DDA
:10081000858D90E008958FEF9FEF0895FC01918DF5
:10082000228D892F90E0805C9F4F821B91098F73EE
:100830009927089586E992E00E940E0421E0892B11
:1008400009F420E0822F089580E090E0892B29F0C0
:100850000E941A0481110C9400000895FC01A48DDB
:10086000A80FB92FB11DA35ABF4F2C91848D90E0D2
:1008700001968F739927848FA689B7892C93A089B5
:10088000B1898C91837080648C93938D848D98133F
:1008900006C00288F389E02D80818F7D80830895D2
:1008A000EF92FF920F931F93CF93DF93EC0181E0C0
:1008B000888F9B8D8C8D98131AC0E889F989808167
:1008C00085FF15C09FB7F894EE89FF896083E8899A
:1008D000F98980818370806480839FBF81E090E08C
:1008E000DF91CF911F910F91FF90EF900895F62E19
:1008F0000B8D10E00F5F1F4F0F731127E02E8C8DB3
:100900008E110CC00FB607FCFACFE889F9898081F7
:1009100085FFF5CFCE010E942E04F1CFEB8DEC0FB9
:10092000FD2FF11DE35AFF4FF0829FB7F8940B8F14
:10093000EA89FB8980818062CFCF682F86E992E0C7
:100940000C945004CF93DF93EC01888D8823B9F089
:10095000AA89BB89E889F9898C9185FD03C08081CA
:1009600086FD0DC00FB607FCF7CF8C9185FFF2CF47
:10097000808185FFEDCFCE010E942E04E9CFDF916B
:10098000CF9108950895E091220280912102E81705
:1009900030F4F0E0E159FD4F808190E008958FEF51
:1009A0009FEF08958091210290912202891B990B5B
:1009B000089590E080E0089520919801260F332754
:1009C000331F21323105ECF420918F02FC0190E0BD
:1009D00080E0243069F082E00895A091980121918F
:1009E000AC0148585E4FA40FB52FB11D2C93019652
:1009F000861798F380919801680F6093980180E0C2
:100A0000089581E00895CF92DF92EF92FF920F93C5
:100A10001F93CF93DF937C01CB018A0120912502A4
:100A2000222389F0EB016B01C40ED51ECC15DD0528
:100A300069F06991D701ED91FC910190F081E02D71
:100A4000C7010995F3CF642F0E94DC04C801DF9130
:100A5000CF911F910F91FF90EF90DF90CF9008956D
:100A6000CF93DF931F92CDB7DEB769832091250224
:100A70002223F9F020914802203258F021E030E0A2
:100A8000FC013383228390E080E00F90DF91CF91CF
:100A9000089580912602E82FF0E0E95DFD4F9981ED
:100AA00090838F5F809326028093480281E090E0DC
:100AB000ECCF61E0CE0101960E94DC04F7CF1092EA
:100AC0008F0281E080936E021092690261E082E100
:100AD0000E94740161E083E10E947401E9EBF0E09F
:100AE00080818E7F808380818D7F808388E4809366
:100AF000B80085E48093BC00089510922202109201
:100B0000210210922602109248020E945F058CE496
:100B100091E09093200280931F028DE491E09093E6
:100B20001E0280931D020895CF93DF9391E090936E
:100B300077018823B9F0C091B800D091BA008091B4
:100B4000BC008A7B8093BC0060E082E10E9474015B
:100B500060E083E10E9474010E945F05D093BA00B7
:100B6000C093B800DF91CF9108958F929F92AF927A
:100B7000BF92CF92DF92EF92FF920F931F93CF938A
:100B8000DF93D82FC62F142F613208F09CC00E942B
:100B900003026B017C0180918F0281116FC081E0A3
:100BA00080938F0210936E029FEF90936D021092CC
:100BB0006C029C0F90936B0280936A0280916A0290
:100BC000DD0FD82BD0936A0280916902813009F041
:100BD0007CC0109269020E9403026B017C0180912B
:100BE0006A028093BB008091910290919202A09141
:100BF0009302B0919402892B8A2B8B2BA1F00E9437
:100C0000030200919102109192022091930230917F
:100C100094026C197D098E099F090617170728078A
:100C2000390708F44CC08091BC0083FDD8CF85EC17
:100C30008093BC000E9403026B017C0180918F02B3
:100C4000813009F444C080916C028C1710F4C0917B
:100C50006C02E9E4F2E0AFE6B2E080E08C1359C048
:100C60008C2FDF91CF911F910F91FF90EF90DF902C
:100C7000CF90BF90AF909F908F90089580919102F8
:100C800090919202A0919302B0919402892B8A2BA9
:100C90008B2B09F480CF0E940302809091029090E8
:100CA0009202A0909302B09094026C197D098E0973
:100CB0009F0986169706A806B90608F06CCF8091A2
:100CC00090020E949405C0E0CBCF85EEB1CF809119
:100CD000910290919202A0919302B0919402892B7B
:100CE0008A2B8B2B09F4AACF0E9403020091910258
:100CF0001091920220919302309194026C197D0917
:100D00008E099F09061717072807390708F096CF9D
:100D1000D6CF91919D938F5FA1CF8F929F92AF92EB
:100D2000BF92CF92DF92EF92FF920F931F93CF93D8
:100D3000DF93D0914802D13208F0D7C0182FC0916C
:100D400047020E9403026B017C0180918F02811196
:100D50006BC082E080938F0210936E028FEF8093BE
:100D60006D0210926C02D0936B02A7E2B2E0E9E44C
:100D7000F2E080E0D81391C010926A0280916A027A
:100D8000CC0FC82BC0936A0280916902813009F0B0
:100D900088C0109269020E9403026B017C0180915D
:100DA0006A028093BB008091910290919202A0917F
:100DB0009302B0919402892B8A2B8B2BA1F00E9475
:100DC00003020091910210919202209193023091BE
:100DD00094026C197D098E099F09061717072807C9
:100DE000390708F442C08091BC0083FDD8CF85EC60
:100DF0008093BC000E9403026B017C0180918F02F2
:100E0000823009F450C080916D028F3F09F46FC0A9
:100E100080916D02803209F46CC080916D02803344
:100E200009F469C084E026C08091910290919202F9
:100E3000A0919302B0919402892B8A2B8B2B09F4F9
:100E400084CF0E9403028090910290909202A09021
:100E50009302B09094026C197D098E099F09861641
:100E60009706A806B90608F070CF809190020E94FC
:100E7000940585E0109226021092480210922502F5
:100E8000DF91CF911F910F91FF90EF90DF90CF9066
:100E9000BF90AF909F908F9008959D9191938F5F99
:100EA00069CF85EEA5CF8091910290919202A09199
:100EB0009302B0919402892B8A2B8B2B09F49ECF3D
:100EC0000E940302009191021091920220919302DC
:100ED000309194026C197D098E099F090617170736
:100EE0002807390708F08ACFC0CF81E0C3CF80E060
:100EF000C1CF82E0BFCF83E0BDCF1F93CF93DF93FD
:100F0000EA01122FDC0111968D919C91DC01ED918B
:100F1000FC910280F381E02D0995C817D90729F4C7
:100F2000812F0E948D0691E0811190E0892FDF9141
:100F3000CF911F910895CF93DF93EC018B8188238C
:100F4000A1F0888191E0909325028093470210924E
:100F500026021092480281E00E948D0691E08111E4
:100F600090E0892FDF91CF9108950E947D0581E067
:100F70008B83CE010E949B07982F8111E2CFF1CF86
:100F80009B01029740E054E660E070E087309105F5
:100F900080F4FC01E253F84F0C94202AD507DE07B9
:100FA000E307E807ED07F207F60744E654E664E6D0
:100FB00070E0C9010E94E3000C94280240E054E66E
:100FC00064E670E0F6CF40E055EA6FEF70E0F1CFF5
:100FD00044E650E060E070E0ECCF40E050E064E6D2
:100FE00070E0E7CF40E050E0BA01E3CF42E352E3E4
:100FF00062E370E0DECF8091DA016EE070E0811193
:1010000004C082E090E00C94C00787E090E0FBCF42
:10101000CF936DE070E082E090E00E94C007C09145
:10102000C301C1FF06C070E060E083E090E00E9471
:10103000C007C0FF07C062E070E083E090E0CF919E
:101040000C94C007CF910895962F50E070E060E0B7
:10105000592B682BC9010E94E3000C9428029C01C3
:1010600040E060E080E00C9424088091110283321B
:1010700031F484E0809313021092C2010895843207
:1010800011F485E0F7CF853239F480911002863073
:1010900089F310921202F0CF823321F48DE0809315
:1010A0001202EACF803181F580911002843111F46F
:1010B0008EE0F5CF813111F481E0F1CF823111F46E
:1010C00089E0EDCF823271F41092E0011092DF01DD
:1010D0001092DE011092DD011092DC011092DB0112
:1010E0008BE0DDCF843211F482E0D9CF8B3241F432
:1010F00083E0809312021092C201109207020895B9
:10110000843439F68AE0CBCF853119F6809110020C
:10111000843211F485E0C3CF853211F486E0BFCF6D
:10112000823609F0B6CF87E0BACF0F931F93CF93E3
:10113000DF938EE00E94F1018C018FE00E94F101AB
:10114000EC0180E10E94F101033A23E012075CF018
:10115000C33A23E0D20784F0833A23E0920764F095
:1011600084E190E05AC0013E11050CF45BC00237E7
:1011700021E012070CF459C00E3F21E012070CF4D5
:1011800057C00A3822E012070CF455C0063123E09C
:1011900012070CF453C0023A13400CF452C0C83C7E
:1011A000D1050CF451C0CA3421E0D2070CF44FC071
:1011B000C73C21E0D2070CF44DC0C13422E0D20775
:1011C0000CF44BC0CC3B22E0D2070CF449C0C7332F
:1011D00023E0D2070CF447C0C23AD3400CF446C017
:1011E000813E91050CF445C0823721E092070CF452
:1011F00043C08E3F21E092070CF441C08A3822E0C0
:1012000092070CF43FC0863123E09207F4F1823A52
:1012100093400CF0A5CF81E190E0DF91CF911F9139
:101220000F9108958AE090E0F8CF8CE090E0F5CF40
:1012300087E090E0F2CF88E090E0EFCF89E090E0A7
:10124000ECCF82E190E0E9CF8BE090E0E6CF8DE05B
:1012500090E0E3CF84E090E0E0CF85E090E0DDCF68
:1012600086E090E0DACF8EE090E0D7CF8FE090E09C
:10127000D4CF90E080E0D1CF81E090E0CECF82E08B
:1012800090E0CBCF83E090E0C8CF80E190E0C5CF85
:10129000CF92DF92EF92FF920F931F93CF93DF9342
:1012A00000D0CDB7DEB769834A83880F991F0091BC
:1012B000780410917904000F111FE2E2F4E09F011D
:1012C000225234402017310714F41192F8CF2981AB
:1012D000FC01EE5DFB4F21838A81808360E0809179
:1012E00076040E9474011016110604F501501109CC
:1012F000F801EE5DFB4FE080D0907404C090720462
:1013000088E0F82E6E2D661F6627661F8C2D0E94C2
:101310007401EE0C61E08D2D0E94740160E08D2D52
:101320000E947401FA94F110EDCFDDCF61E080915D
:1013300076040F900F90DF91CF911F910F91FF9046
:10134000EF90DF90CF900C947401E0917804F091CD
:1013500079048E179F07DCF468307105C4F44031BE
:10136000B0F4DC0133E0AA0FBB1F3A95E1F7E42F9C
:10137000F0E0EA57FF4F449121114068AE5DBB4F4A
:10138000A60FB71F50964C936F5F0C9448090895B1
:101390000F931F93CF93DF93EC0101970997A0F46C
:1013A00020E040E064E070E090E080E00E94A50969
:1013B00020E04C2F65E070E090E080E0DF91CF917D
:1013C0001F910F910C94A509CA30D105C4F02AE0F1
:1013D00030E0CE01B9010E940C2A8C01CE01801BA5
:1013E000910BB9010E940C2A462F20E064E070E0C6
:1013F00090E080E00E94A50920E0402FDBCFDF9144
:10140000CF911F910F9108950F931F93CF93DF9367
:10141000EC0101970997A0F420E040E070E060E063
:1014200090E080E00E94A50920E04C2F61E070E090
:1014300090E080E0DF91CF911F910F910C94A5096E
:10144000CA30D105C4F02AE030E0CE01B9010E94D3
:101450000C2A8C01CE01801B910BB9010E940C2A31
:10146000462F20E070E060E090E080E00E94A50957
:1014700020E0402FDBCFDF91CF911F910F91089596
:101480000F931F93CF93DF93EC0101970997A0F47B
:1014900020E040E062E070E090E080E00E94A5097A
:1014A00020E04C2F63E070E090E080E0DF91CF918E
:1014B0001F910F910C94A509CA30D105C4F02AE000
:1014C00030E0CE01B9010E940C2A8C01CE01801BB4
:1014D000910BB9010E940C2A462F20E062E070E0D7
:1014E00090E080E00E94A50920E0402FDBCFDF9153
:1014F000CF911F910F91089570E020E090E00C943F
:10150000A50920917804309179048217930774F427
:10151000FC0123E0EE0FFF1F2A95E1F7EE5DFB4F84
:10152000E60FF71F408B6F5F0C9448090895611117
:1015300002C0009771F440E064E070E090E080E069
:101540000E94810A40E065E070E090E080E00C9449
:10155000810A0C94C809611102C0009771F440E03F
:1015600070E060E090E080E00E94810A40E061E08D
:1015700070E090E080E00C94810A0C94040ACF9211
:10158000DF92EF92FF920F931F93CF93DF9386E446
:10159000E82E81E0F82EF701108211821282138268
:1015A000148215821682379621E0EE37F207A1F7F2
:1015B000EBEEF1E0A6E4B1E081E04081518162818F
:1015C000738177FF20C070956095509541955F4F6E
:1015D0006F4F7F4F40835183628373838C9340812D
:1015E000518162817381403A96E8590791E0690719
:1015F00071055CF0405A564861407109408351833F
:1016000062837383ECCF1C92EACF91E040815181D9
:1016100062817381403127E25207610571056CF0E8
:1016200011969C931197405157426109710940836B
:101630005183628373839F5FE9CF91E04081518141
:1016400062817381483E23E05207610571056CF0A9
:1016500012969C931297485E53406109710940832A
:101660005183628373839F5FE9CF91E04081518111
:101670006281738144365105610571056CF01396E2
:101680009C93139744565109610971094083518312
:10169000628373839F5FEACF91E0408151816281D1
:1016A00073814A305105610571056CF014969C9365
:1016B00014974A505109610971094083518362832B
:1016C00073839F5FEACF91E0408151816281738192
:1016D00014161506160617066CF415969C931597A6
:1016E00041505109610971094083518362837383B9
:1016F0009F5FEACF3496179691E0A737B90709F0B4
:101700005CCF01E010E0D12CC12CD0E0C0E02097EC
:1017100021F5F701848D44E2813009F044E770E05F
:1017200060E0C8010E94810A2196C630D10579F790
:101730002FEFC21AD20A0F5F1F4F87E0E80EF11C8D
:1017400093E0C916D10409F7DF91CF911F910F9152
:10175000FF90EF90DF90CF90089580911202833038
:1017600089F4F2E0CF16D10469F4C330D10551F405
:1017700021E04091730163E070E083E090E00E941B
:10178000A509D2CF20E0F701EC0FFD1F448DBE016B
:10179000C801F5CFEF92FF921F93CF93DF93209173
:1017A00078043091790482179307B4F4EC0123E0B4
:1017B000880F991F2A95E1F79C012E5C3B4F790118
:1017C00011E0F70111927F0140E0612FCE010E94EC
:1017D00048091F5F1930A9F7DF91CF911F91FF9042
:1017E000EF9008950C94CA0B2091780430917904FD
:1017F00082179307A4F4E42F440FFF0BEA57FF4F1F
:101800004491FC0123E0EE0FFF1F2A95E1F7EE5D06
:10181000FB4FE60FF71F408B6F5F0C94480908954C
:10182000462F2091780430917904821793071CF495
:101830006AE00C94480908954F925F926F927F92EC
:10184000AF92BF92CF92DF92EF92FF920F931F93CE
:10185000CF93DF938C012A013B0177FE4EC0CC244D
:10186000DD247601C418D508E608F70844E270E0E4
:1018700060E00E94810AD701C6010197A109B10960
:101880000997A105B10508F046C0BC2CA12C412C3C
:10189000512C3201D0E0C0E020E04B2D65E070E03B
:1018A000C8010E94A50920E04C2F64E070E0C80147
:1018B0000E94A50920E04D2F63E070E0C8010E945E
:1018C000A50920E0442D62E070E0C8010E94A5094E
:1018D00020E04A2D61E070E0C801DF91CF911F91B7
:1018E0000F91FF90EF90DF90CF90BF90AF907F90DF
:1018F0006F905F904F900C94A50944E770E060E012
:101900000E94810A411451046104710409F419C14F
:1019100073016201B0CFD701C6010A97A109B109CD
:101920008A359105A105B10508F059C03AE0432E6A
:10193000512C612C712CC701B601A30192010E94A8
:10194000FA28B62EA7019601261B370B480B590B18
:10195000CA01B901A30192010E94FA28C22FA12C49
:10196000412C512C3201D0E080EAC81686E8D80616
:1019700081E0E806F1040CF48FCF40E070E060E015
:10198000C8010E94810A40E261E070E0C8010E9443
:10199000F40B41E362E070E0C8010E94F40B43E302
:1019A00063E070E0C8010E94F40B40E364E070E083
:1019B000C8010E94F40B45E365E070E0C801DF91C7
:1019C000CF911F910F91FF90EF90DF90CF90BF903C
:1019D000AF907F906F905F904F900C94F40BD70175
:1019E000C60184569109A109B10984389340A10523
:1019F000B10508F52AE0422E512C612C712CC7014B
:101A0000B601A30192010E94FA28B62ECA01B901BB
:101A1000A30192010E94FA28C62FC701B60124E64D
:101A200030E040E050E00E94FA28D22FA12C412C57
:101A3000512C320199CFD701C601885E9340A1098C
:101A4000B10988329342A105B10568F59AE0492EA3
:101A5000512C612C712CC701B601A30192010E9487
:101A6000FA28B62ECA01B901A30192010E94FA28F0
:101A7000C62FC701B60124E630E040E050E00E94E6
:101A8000FA28CA01B901A30192010E94FA28D62FAF
:101A9000C701B60128EE33E040E050E00E94FA288A
:101AA0002901A12C61CFD701C60180519742A1091C
:101AB000B10980399F45A140B105D8F58AE0482E8B
:101AC000512C612C712CC701B601A30192010E9417
:101AD000FA28B62ECA01B901A30192010E94FA2880
:101AE000C62FC701B60124E630E040E050E00E9476
:101AF000FA28CA01B901A30192010E94FA28D62F3F
:101B0000C701B60128EE33E040E050E00E94FA2819
:101B1000CA01B901A30192010E94FA282B01C70151
:101B2000B60120E137E240E050E00E94FA28A22E00
:101B30001BCFA12C412C512C3201D0E0C0E0B12CA4
:101B400013CFA12CD0E0C0E0B12CA6CE009771F449
:101B500040E062E070E090E080E00E94810A40E0B6
:101B600063E070E090E080E00C94810A0C94400AFD
:101B70002F923F924F925F926F927F928F929F929D
:101B8000AF92BF92CF92DF92EF92FF920F931F938B
:101B9000CF93DF93CDB7DEB72B970FB6F894DEBFA8
:101BA0000FBECDBF1C0160E170E087E090E00E94B5
:101BB000C00781E08093250289E680934702109256
:101BC0002602109248026BE383E393E00E94300503
:101BD00080E00E948D0641E06EE089E60E94B50536
:101BE00010922202809321020E94610189830E9447
:101BF0006101E12CF980E82AF92A0E9461018983B8
:101C00000E94610100E01981082B192B0E946101DB
:101C1000D82E0E946101DA82198229813A81282B0B
:101C2000392B3B872A870E9461010E9461010E9433
:101C300061018F830E9461019A8389830E946101FF
:101C400088870E9461019C838B830E946101898740
:101C50000E9461019E838D839701285C3109032EC8
:101C6000000C440B550B305C4F4F5F4FA4EBB0E0C2
:101C70000E94192920E030E840E050E00E94FA2854
:101C80002A55310941095109263A8FEF38070CF4DA
:101C90000AC12B35310514F02AE530E0B901330FC4
:101CA000880B990B0E9401284B015C019801285C6C
:101CB0003109032E000C440B550B305C4F4F5F4F26
:101CC000A4EBB0E00E94192920E030E840E050E0A9
:101CD0000E94FA28DA01C9018A559109A109B109BE
:101CE000863A2FEF92070CF4E5C0BC018B359105C5
:101CF00014F06AE570E0072E000C880B990B0E9427
:101D000001286B017C018A859B85885C91099C0177
:101D1000990F440B550B305C4F4F5F4FA4EBB0E075
:101D20000E94192920E030E840E050E00E94FA28A3
:101D3000DA01C9018A559109A109B109863A2FEF43
:101D400092070CF4BEC0BC018B35910514F06AE516
:101D500070E0072E000C880B990B0E9401282B01C4
:101D60003C0160E170E087E090E00E94C0072A94A7
:101D7000232809F0ADC080E09F8129813A81822B20
:101D8000932B63E870E00E940C2A6E5F7F4F072E52
:101D9000000C880B990B0E9401289B01AC010E944A
:101DA0005E292AE939E949E15EEB0E943C2820E0FE
:101DB00030E048EC52E40E943C280E94CA29AB0162
:101DC000770F660B770B81E090E00E941C0C80E09F
:101DD00098852B813C81822B932B63E870E00E94D5
:101DE0000C2A072E000C880B990B0E9401289B01DE
:101DF000AC010E945E292AE939E949E15EEB0E94C3
:101E00003C2820E030E048EC52E40E943C280E944C
:101E1000CA29AB01770F660B770B82E090E00E9436
:101E20001C0C80E099852D813E81822B932B63E8E9
:101E300070E00E940C2A072E000C880B990B0E9460
:101E400001289B01AC010E945E292AE939E949E198
:101E50005EEB0E943C2820E030E048EC52E40E9417
:101E60003C280E94CA29AB01770F660B770B83E0F1
:101E700090E02B960FB6F894DEBF0FBECDBFDF917A
:101E8000CF911F910F91FF90EF90DF90CF90BF9077
:101E9000AF909F908F907F906F905F904F903F900A
:101EA0002F900C941C0C812C912C24EBA22E22EC54
:101EB000B22EFCCEC12CD12C94EBE92E92ECF92E53
:101EC00022CF412C512C84EB682E82EC782E49CF06
:101ED000A501940160E070E080E090E40E945D293B
:101EE00020E030E048EC52E40E943C280E94CA29DD
:101EF000AB01770F660B770B81E090E00E941C0C22
:101F000020E030E040E450E4C701B6010E945E29C1
:101F100020E030E048EC52E40E943C280E94CA29AC
:101F2000AB01770F660B770B82E090E00E941C0CF0
:101F3000A301920160E070E0CB010E945D298BCF8C
:101F40004F925F926F927F928F929F92AF92BF92C9
:101F5000CF92DF92EF92FF920F931F93CF93DF9375
:101F600000D000D000D01F92CDB7DEB78C0119820F
:101F7000A0902302B0902402D50114968D919C91DB
:101F80001597892B09F45CC08C9191E09093250200
:101F900080934702109226021092480220E041E00E
:101FA00050E0BE016F5F7F4FC5010E947D0788230F
:101FB00009F446C0D12CC12CB7E06B2E712CF50171
:101FC000848195817301EC18FD088E159F0508F436
:101FD0007C0141E0C3018E199F09C816D90608F497
:101FE00040E06E2DD5018C910E94B5051092220221
:101FF000809321028E151F0419F588248394912C57
:102000008C0E9D1E8C0C9D1C2401C4018419950905
:102010008E159F0570F4F50181819281DC01ED91AF
:10202000FC910284F385E02D0995F40181934F0121
:10203000ECCFCE0CDF1CF7E0CF16D10408F4BFCFF5
:10204000E981EF77FA81FB804D815E818F81282FB6
:1020500030E094E0359527959A95E1F7922F990F06
:10206000990F291B220F280FD8012C93852F90E060
:1020700024E0959587952A95E1F7982F990F990F68
:10208000891B880F850F11968C931197642F70E030
:1020900034E0759567953A95E1F7862F880F880F9C
:1020A000681B660F640F12966C9312974F2D50E0C9
:1020B00064E0559547956A95E1F7842F880F880F5E
:1020C000481B440F4F0D13964C9313972F2F30E05E
:1020D00074E0359527957A95E1F7822F880F880F60
:1020E000281B220F2F0F14962C9314978E2F90E0FD
:1020F000F4E095958795FA95E1F7982F990F990F48
:10210000891B880F8E0F15968C93C80127960FB6E2
:10211000F894DEBF0FBECDBFDF91CF911F910F911D
:10212000FF90EF90DF90CF90BF90AF909F908F90F7
:102130007F906F905F904F900895FC010190002078
:10214000E9F73197AF01481B590BBC0186E992E0D2
:102150000C94B0038F929F92AF92BF920F931F93F4
:10216000CF93DF93CDB7DEB7A1970FB6F894DEBF5C
:102170000FBECDBF19A2423008F44AE08E010F5DB8
:102180001F4F842E912CB12CA12CA50194010E94EB
:102190002C29E62FB901CA01EA30F4F4E05DD80138
:1021A000EE938D01232B242B252B79F790E080E0F3
:1021B000109719F0CD010E949D10A1960FB6F894CA
:1021C000DEBF0FBECDBFDF91CF911F910F91BF90AA
:1021D000AF909F908F900895E95CE1CF682F70E0F9
:1021E00090E080E040E10C94AA10AF92BF92CF92B1
:1021F000DF92EF92FF920F931F93CF93DF93809123
:10220000900490919104DC01ED91FC910190F0819A
:10221000E02D609192040995809190049091910431
:10222000DC01ED91FC910190F081E02D609193042F
:1022300009958091900490919104DC01ED91FC91BD
:102240000190F081E02D60919404099580919004B3
:1022500090919104DC01ED91FC910190F081E02DD1
:102260006091950409958091900490919104DC010E
:10227000ED91FC910190F081E02D6091960409951B
:102280008091900490919104DC01ED91FC9101907A
:10229000F081E02D609197040995809190049091D0
:1022A0009104DC01ED91FC910190F081E02D6091B1
:1022B000980409958091900490919104DC01ED912E
:1022C000FC910190F081E02D609199040995809135
:1022D000900490919104DC01ED91FC910190F081CA
:1022E000E02D60919A040995809190049091910459
:1022F000DC01ED91FC910190F081E02D60919B0457
:1023000009958091A604882309F46BC084E391E0C9
:102310000E949D10A0909204B0909304C0909404E9
:10232000D0909504E0909604F09097040091980462
:1023300010919904D0919A04C0919B048AE391E092
:102340000E949D1081E491E00E949D108A2D0E94C0
:10235000EE1080E20E949D048B2D0E94EE1080E220
:102360000E949D048C2D0E94EE1080E20E949D042C
:102370008D2D0E94EE1080E20E949D048E2D0E9401
:10238000EE1080E20E949D048F2D0E94EE1080E2EC
:102390000E949D04802F0E94EE1080E20E949D0406
:1023A000812F0E94EE1080E20E949D048D2F0E94DA
:1023B000EE1080E20E949D048C2F0E94EE1081E4BA
:1023C00091E00E949D1081E491E0DF91CF911F91F7
:1023D0000F91FF90EF90DF90CF90BF90AF900C9453
:1023E0009D10DF91CF911F910F91FF90EF90DF90A3
:1023F000CF90BF90AF9008950F931F93CF93DF932B
:10240000182F092FC0E9D4E086E08D831E821F8239
:102410008FE088870E94C8000E94F51064E170E098
:1024200080E090E00E94FB0283E08D831E820F8398
:1024300018870E94C8000E94F51068EE73E080E0E3
:1024400090E0DF91CF911F910F910C94FB02CF92FE
:10245000DF92EF92FF92CF93DF936FE070E090E016
:1024600080E00E94100C6FE070E087E090E00E9436
:10247000C00768EE73E080E090E00E94FB0285E018
:1024800090E00E94FC1161E170E082E090E00E9427
:10249000C00768EE73E080E090E00E94FB0264E019
:1024A00070E083E090E00E94C00768EE73E080E097
:1024B00090E00E94FB0260E170E082E090E00E9408
:1024C000C00768EE73E080E090E00E94FB0266E0E7
:1024D00070E083E090E00E94C00768EE73E080E067
:1024E00090E00E94FB026FE070E082E090E00E94CA
:1024F000C00768EE73E080E090E00E94FB0268E0B5
:1025000070E083E090E00E94C00768EE73E080E036
:1025100090E00E94FB026DE070E082E090E00E949B
:10252000C00761E170E087E090E00E94C00764E0CE
:1025300070E087E090E00E94C00760E170E087E013
:1025400090E00E94C00766E070E087E090E00E94A3
:10255000C0076FE070E087E090E00E94C00768E08D
:1025600070E087E090E00E94C0076DE070E087E0D7
:1025700090E00E94C007D0E0C0E0C430D10509F46B
:102580005BC00E942D03C090D501D090D601E09091
:10259000D701F090D8016C157D058E059F0550F48C
:1025A0000E942D036093D5017093D6018093D701CB
:1025B0009093D8010E942D03C090D501D090D601F0
:1025C000E090D701F090D8016C197D098E099F0920
:1025D000643F71408105910588F00E942D036C19BC
:1025E0007D098E099F09683E73408105910530F48D
:1025F00067E070E083E090E00E94C0070E942D0336
:102600006C197D098E099F09683E7340810591050B
:1026100008F4B3CF67E070E087E090E00E94C00765
:102620000E942D036093D5017093D6018093D7014A
:102630009093D8012196A1CF70E060E081E090E016
:102640000E94C00764EF71E080E090E00E94FB020E
:1026500061E070E081E090E00E94C00764EF71E00B
:1026600080E090E00E94FB0262E070E081E090E098
:102670000E94C00764EF71E080E090E00E94FB02DE
:1026800063E070E081E090E00E94C00764EF71E0D9
:1026900080E090E00E94FB021092D9016FE070E0B0
:1026A00087E090E00E94C00780910F0290E00E94B6
:1026B000A60D8091110260E090E00E94AB0A80912B
:1026C000100260E090E00E94970A1092FB011092C5
:1026D000FC011092FD011092FE0184EB90E0A0E05D
:1026E000B0E08093FF0190930002A0930102B093A9
:1026F000020210920302109204021092050210923C
:1027000006020E94BF0A44E270E060E081E090E0CF
:102710000E94810A68E97AE380E090E00E94FB026F
:1027200063E070E087E090E00E94C00710920F0223
:1027300084E28093100280E18093110290E080E0B7
:102740000E94A60D60E084E290E00E94970A60E09B
:1027500080E190E00E94AB0A82E080931202DF9158
:10276000CF91FF90EF90DF90CF900C943508CF92EF
:10277000DF92EF92FF92CF93DF93809100019091CF
:1027800095029923F1F1882309F440C010920001C9
:102790000E94A72721E330E040E050E00E94FA28A1
:1027A0006B017C012FEFC21AD20AE20AF20AE6019B
:1027B00063E070E0CF30D10519F0C931D105B1F433
:1027C00081E090E00E94C007E894C3F881E1C81658
:1027D000D10491F461E170E082E090E0DF91CF916B
:1027E000FF90EF90DF90CF900C94C00787E090E0CF
:1027F0000E94C007619771F361E170E087E090E0AB
:10280000EDCF811103C081E080930001DF91CF9172
:10281000FF90EF90DF90CF900895CF93DF93EC017E
:1028200060E170E087E090E00E94C00780910101C4
:1028300090919502992359F0882389F01092010113
:102840000E94B713CE01DF91CF910C94B80D811186
:1028500006C00E94B71381E080930101F3CFDF919E
:10286000CF91089585ED8093BC0080919102909165
:102870009202A0919302B09194020796A11DB11DFE
:1028800023E0B695A795979587952A95D1F720913E
:10289000BC0024FD03C010928F0208954091910264
:1028A000509192026091930270919402452B462BB5
:1028B000472B69F30097A105B10541F02AE22A955B
:1028C000F1F700C00197A109B109E1CF8091900211
:1028D0000C9494051F920F920FB60F9211242F9310
:1028E0003F938F939F93AF93BF93809115029091E5
:1028F0001602A0911702B09118023091140223E041
:10290000230F2D3758F50196A11DB11D20931402F8
:102910008093150290931602A0931702B0931802A9
:102920008091190290911A02A0911B02B0911C0291
:102930000196A11DB11D8093190290931A02A093D4
:102940001B02B0931C02BF91AF919F918F913F9159
:102950002F910F900FBE0F901F90189526E8230F10
:102960000296A11DB11DD2CF1F920F920FB60F92EA
:1029700011242F933F934F935F936F937F938F9384
:102980009F93AF93BF93EF93FF9386E992E00E94EA
:102990002E04FF91EF91BF91AF919F918F917F9105
:1029A0006F915F914F913F912F910F900FBE0F90BC
:1029B0001F9018951F920F920FB60F9211242F930C
:1029C0008F939F93EF93FF93E091A602F091A7025C
:1029D0008081E091AC02F091AD0282FD1BC090813C
:1029E0008091AF028F5F8F732091B002821741F008
:1029F000E091AF02F0E0EA56FD4F958F8093AF0271
:102A0000FF91EF919F918F912F910F900FBE0F909B
:102A10001F9018958081F4CF1F920F920FB60F92DE
:102A200011242F933F934F935F936F937F938F93D3
:102A30009F93AF93BF93EF93FF938091B900887FEB
:102A4000803609F44AC0F0F5883209F4A7C018F5B9
:102A5000803109F49BC0B8F4882309F4F9C08830A8
:102A600009F494C0FF91EF91BF91AF919F918F9125
:102A70007F916F915F914F913F912F910F900FBE7A
:102A80000F901F901895883109F488C0803251F753
:102A900080936D0214C0803409F49DC040F48033EB
:102AA000B9F38833F9F680936D0285ECB0C08035B8
:102AB00009F485C0883509F496C0883499F60E94D7
:102AC0003214D0CF883909F48CC038F5883729F012
:102AD00050F4883611F0803729F683E080938F0216
:102AE0001092BA0157C0883809F47BC0803919F0B8
:102AF000803809F0B7CF8091BA01803208F071C0F8
:102B0000E091BA0181E08E0F8093BA018091BB0001
:102B1000F0E0E656FE4F80833DC0803B39F0E0F4A4
:102B2000803A09F479C0883A09F09CCF84E0809318
:102B30008F021092990110929801E0911F02F0917A
:102B4000200209958091980181110FC081E0809346
:102B500098011092780109C0803C09F4A6CF883C06
:102B600009F4A3CF883B09F07DCFE091990181E082
:102B70008E0F80939901F0E0E858FE4F808180939A
:102B8000BB00909199018091980129C080916A02BF
:102B90008093BB0085EC8093BC0064CF90916C0265
:102BA00080916B02981758F5E0916C0281E08E0FCE
:102BB00080936C02F0E0E75BFD4F8081E9CFE0910C
:102BC0006C0281E08E0F80936C028091BB00F0E07C
:102BD000E75BFD4F808390916C0280916B029817A8
:102BE000C8F285E8D8CFE0916C0281E08E0F809327
:102BF0006C028091BB00F0E0E75BFD4F8083809129
:102C00006E0281115CCF81E08093690284EA809337
:102C1000BC0010928F0226CF85EC8093BC001092EE
:102C20008F028091BA01803230F4E091BA01F0E075
:102C3000E656FE4F10826091BA0170E0E0911D02ED
:102C4000F0911E028AE991E009951092BA010ACF2B
:102C500010926D0234CFCF93DF93109299021092AD
:102C6000980288EE93E0A0E0B0E080939A029093FF
:102C70009B02A0939C02B0939D0224E131E030932B
:102C800097022093960225EC30E03093A302209324
:102C9000A20224EC30E03093A5022093A40220ECA1
:102CA00030E03093A7022093A60221EC30E030936D
:102CB000A9022093A80222EC30E03093AB022093CB
:102CC000AA0226EC30E03093AD022093AC021092C1
:102CD000AF021092B0021092B1021092B2021092A2
:102CE0003603109235038093370390933803A093F3
:102CF0003903B0933A0386E291E0909334038093D2
:102D0000330310927B041092820410928904109273
:102D10008A0410928B0410928C0481E080938804C2
:102D2000809385041092860492E0909387048093A8
:102D30007A0486E390E090937F0480937E040E945F
:102D40003A2A9093840480938304009709F497C0EF
:102D500026E3DC011D922A95E9F782E190E0909349
:102D60007D0480937C0486E090E0909381048093BE
:102D7000800480917B04882341F061E086E00E941A
:102D8000C00160E086E00E947401EAE2F1E0E491B3
:102D9000F0E0EE0FFF1FE65EFE4F85919491909359
:102DA0008E0480938D04ECE0F1E0E491E0938F04D5
:102DB000CCE0D0E0D0937304C09372048AE090E03A
:102DC00090937504809374048BE090E09093770463
:102DD0008093760484E090E0909379048093780463
:102DE00061E08CE00E94C00161E0809174040E9467
:102DF000C00161E0809176040E94C00161E0809191
:102E000076040E947401D0937304C0937204E2E3C9
:102E1000F4E082E794E011928E179F07E1F7D0E08B
:102E2000C0E08091780490917904C817D90784F59F
:102E300040E06FE0CE010E944809809178049091B3
:102E40007904C817D9072CF447E06BE0CE010E9443
:102E5000480940E069E0CE010E944809CE010E9485
:102E6000CA0B8091780490917904C817D9072CF483
:102E700040E06CE0CE010E9448092196D2CF10922A
:102E80007F0410927E0410927D0410927C046BCF1C
:102E90001092F1031092F003E2EFF3E080E3DF0120
:102EA0001D928A95E9F71092430310924403109201
:102EB0004603109245031092470310924803109264
:102EC000490310924A0310924B0310924D03109243
:102ED0004C0310924E0310924F0310925003109225
:102EE0005103109252031092540310925303109204
:102EF00055031092560310925703109258031092E4
:102F0000590310925B0310925A0310925C031092C3
:102F10005D0310925E0310925F03109260031092A3
:102F20006503109266031092670310926803109273
:102F3000690310926A031092730310927403109243
:102F40007503109276031092770310927803109213
:102F500081031092820310928703109288031092CB
:102F6000890310928A0310928F031092900310929B
:102F70009503109296031092970310929803109263
:102F80009D0310929E031092A3031092A40310922B
:102F9000A5031092A6031092AB031092AC031092FB
:102FA000B1031092B2031092B3031092B4031092C3
:102FB000B9031092BA031092BF031092C00310928B
:102FC000C1031092C2031092C7031092C80382E09B
:102FD0008093D8031092D9031092DA031092DB0386
:102FE0001092DD031092DC031092DF031092DE03D7
:102FF0001092E0031092E1031092E2031092E303B7
:103000001092E4031092E5031092E6031092E70396
:103010001092E8031092E9031092EA031092EB0376
:103020001092EC031092ED031092EE031092EF0356
:103030001092C9030E942D030E942D0360933F0349
:103040007093400380934103909342031092A7042E
:103050001092A8041092A9041092AA041092AB0432
:103060001092AC041092AD041092AE041092AF0412
:103070001092B0041092B1041092B2041092B304F2
:103080001092B9041092B804DF91CF910895CF93B4
:10309000DF93CDB7DEB7C256D1090FB6F894DEBFC5
:1030A0000FBECDBF789484B5826084BD84B5816045
:1030B00084BD85B5826085BD85B5816085BD809103
:1030C0006E00816080936E0010928100809181007B
:1030D0008260809381008091810081608093810073
:1030E000809180008160809380008091B100846035
:1030F0008093B1008091B00081608093B000809196
:103100007A00846080937A0080917A008260809354
:103110007A0080917A00816080937A0080917A00B1
:10312000806880937A001092C10060E08EE00E9477
:10313000C00160E08FE00E94C00160E080E10E9479
:10314000C00160E085E10E94C00161E087E00E946B
:10315000C00160E087E00E94740185E10E94F101F6
:10316000BC01990F880B990B6115710581059105BB
:1031700011F00E94F627809180049091810497FDC0
:1031800008C061E00E94C00160E0809180040E945C
:10319000740181E080937B0410E000E0809178046A
:1031A00090917904081719072CF441E06CE0C801EC
:1031B0000E94480968E070E0C8010E94100CC80134
:1031C0000E94CA0B0F5F1F4F0430110539F70E9490
:1031D0007D0581E08093250289E680934702109265
:1031E0002602109248026BE683E393E00E943005CA
:1031F00060E083E393E00E94300581E00E948D0649
:103200008091230290912402009711F00E94D62A07
:1032100086E090E00E943A2A8C0188E6D8018C93DF
:1032200083E393E012969C938E93119713961C92CE
:10323000139780E290E015969C938E9314971093C9
:103240002402009323020E947D0581E0F80183831C
:10325000C8010E949B074EE853E068EE73E080E0EF
:1032600090E00E9439034BE953E068E572E080E0AA
:1032700090E00E94390348EA53E06AEF70E080E092
:1032800090E00E943903E091A602F091A70202E0CB
:103290000083E091A202F091A3021082E091A402C7
:1032A000F091A5028FEC80831092AE02E091AA0209
:1032B000F091AB0216E01083E091A802F091A90210
:1032C000808180618083E091A802F091A9028081D1
:1032D00088608083E091A802F091A90280818068D3
:1032E0008083E091A802F091A90280818F7D808384
:1032F00084E690E0A0E0B0E08093B4049093B5043D
:10330000A093B604B093B7041092A7048093B004BE
:103310009093B104A093B204B093B3040E942D0320
:103320006093AC047093AD048093AE049093AF04AB
:1033300086E992E090939104809390041092A60401
:103340002EE7209392049FEF90939304109394049C
:103350008FEE80939B0420939C0490939D04109384
:103360009E048093A50419E010939504109296048E
:103370001092970484E0809398040E94C8000E94F1
:10338000F51064E170E080E090E00E94FB02109391
:1033900095041092960410929704009398040E944A
:1033A000C8000E94F51010E000E0C8010E942F083C
:1033B00068EC70E080E090E00E94FB02B80181E0E0
:1033C00090E00E94C0070F5F1F4F0430110569F79E
:1033D0004CE1E42EF12CB80183E090E00B301105B4
:1033E0002CF0B701601B710B82E090E00E94C007D7
:1033F00062E370E080E090E00E94FB020F5F1F4FED
:103400000231110541F710E000E048E0602F812F04
:103410000E947C0A69E170E080E090E00E94FB027B
:103420000F5F063091F71F5F143071F768EE73E09D
:1034300080E090E00E94FB0203E010E00031110503
:1034400019F0C8010E942F080F5F1F4F02311105AC
:10345000A9F790E080E00E94F20B81E090E00E94EA
:10346000F20B82E090E00E94F20B83E090E00E9479
:10347000F20B84E180930301109213020E9435083D
:103480009E012F5F3F4FA2963FAF2EAFA29702EF54
:1034900013E0D8018D919C91892B89F10E942D0315
:1034A0006B017C01F80184819581A681B781B70108
:1034B000A601481B590B6A0B7B0B80859185A28561
:1034C000B385481759076A077B07C8F00190F08158
:1034D000E02DD80112968D919C910995882309F4CD
:1034E00059C0F80184859585892B09F453C021E0E2
:1034F00030E035872487C482D582E682F782005F78
:103500001F4FF4E002321F0720F20E942D0302EF4A
:1035100013E0D8018D919C91892B09F04DC0005F7B
:103520001F4FB4E002321B07A0F30E942D039091BD
:10353000BC018091BB012091DA01222309F45CC017
:10354000992309F44FC0811109C06BE070E088E055
:1035500090E00E94C00781E08093BB018091D90177
:10356000882311F40C94C1266FE070E082E090E0B3
:103570000E94C0078091130281119CC280911202A7
:10358000811164C08091C201882309F440C00E9467
:1035900035085CC0F80111821082138212821482F5
:1035A000158216821782108611861286138615865A
:1035B000148617861686A3CF0E942D03F801C480B7
:1035C000D580E680F7806C197D098E099F09C0843B
:1035D000D184E284F3846C157D058E059F0508F483
:1035E0009ECFA3CF882309F4B9CF6BE070E087E0CA
:1035F00090E00E94C007B2CF992331F0882309F4EC
:10360000ADCF1092BB01AACF8111A8CFEECF809190
:10361000BD0181110E9408080E9495088093030152
:1036200090910201891729F091E09093C60180934F
:1036300002019091C601992389F08E3009F438C2B5
:1036400008F02AC28A50823008F42CC280911202FB
:10365000813021F490E080E00E940D1480911202EC
:103660008C3009F0B0C04EE762E070E090E080E09E
:103670000E94810A4EE763E070E090E080E00E94E3
:10368000810A4EE764E070E090E080E00E94810AE9
:103690004EE765E070E090E080E00E94810A1092C1
:1036A000FB011092FC011092FD011092FE0110929C
:1036B000FF01109200021092010210920202109279
:1036C00003021092040210920502109206020E9458
:1036D000BF0A60ED77E080E090E00E94FB0201E02D
:1036E00010E0F12CE12C4EE7B701C8010E94810ADD
:1036F00063E070E080E090E00E94FB024CE7B701DD
:10370000C8010E94810A63E070E080E090E00E94BE
:10371000FB0248E7B701C8010E94810A63E070E03C
:1037200080E090E00E94FB0240E7B701C8010E94E0
:10373000810A63E070E080E090E00E94FB0240E6D6
:10374000B701C8010E94810A63E070E080E090E068
:103750000E94FB0240E4B701C8010E94810A63E0B5
:1037600070E080E090E00E94FB0240E0B701C801F9
:103770000E94810A63E070E080E090E00E94FB021A
:1037800040E0B701C8010E94810A63E070E080E078
:1037900090E00E94FB02FFEFEF1AFF0A26E0E2161C
:1037A000F10409F0A0CF0F5F1F4F0430110509F09D
:1037B00098CF60E170E087E090E00E94C00710922F
:1037C000120210921302809112028D3009F01DC571
:1037D0000E949508809303018091D90181118AC0CC
:1037E00063E070E081E090E00E94C0076FE070E06D
:1037F00082E090E00E94C00786E080930F0282E39F
:103800008093110289E18093100286E090E00E948B
:10381000400A60E082E390E00E94AB0A60E089E148
:1038200090E00E94970A8EE390E0A0E0B0E08093E1
:10383000FB019093FC01A093FD01B093FE01109257
:10384000FF011092000210920102109202021092E7
:1038500003021092040210920502109206020E94C6
:10386000BF0A0E942D030091D5011091D60120912D
:10387000D7013091D801601771078207930750F480
:103880000E942D036093D5017093D6018093D701D8
:103890009093D8010E942D03C090D501D090D601FD
:1038A000E090D701F090D8016C197D098E099F092D
:1038B000643F71408105910510F00E942D030E9424
:1038C0002D036C197D098E099F09683E734081059F
:1038D000910580F06FE070E090E080E00E94100CB5
:1038E0000E942D036093D5017093D6018093D70178
:1038F0009093D80111E08091D901909103019E30FD
:1039000009F00CC481110CC40E942D03C090D50194
:10391000D090D601E090D701F090D8016C157D05CC
:103920008E059F0550F40E942D036093D50170937E
:10393000D6018093D7019093D8010E942D03C090A7
:10394000D501D090D601E090D701F090D8016C1944
:103950007D098E099F09643F71408105910510F032
:103960000E942D030E942D036C197D098E099F0969
:10397000683E73408105910580F06FE070E090E053
:1039800080E00E94100C0E942D036093D50170937B
:10399000D6018093D7019093D8010E942D03C09047
:1039A000D101D090D201E090D301F090D4016C15F8
:1039B0007D058E059F0550F40E942D036093D10173
:1039C0007093D2018093D3019093D4010E942D0370
:1039D000C090D101D090D201E090D301F090D401F9
:1039E0006C197D098E099F09683E73408105910518
:1039F00098F08091CF019091D00101969093D001E1
:103A00008093CF010E942D036093D1017093D20166
:103A10008093D3019093D4018091CF019091D001F4
:103A200002970CF468CF61E070E087E090E00E94BC
:103A3000C00762E070E087E090E00E94C00770E09D
:103A400060E087E090E00E94C00763E070E087E0FC
:103A500090E00E94C00790E080E00E94CA0B81E0E5
:103A600090E00E94CA0B82E090E00E94CA0B83E0C3
:103A700090E00E94CA0B6CE271E080E090E00E944E
:103A8000FB021093D901109203016CED75E080E008
:103A900090E00E94FB022FCF813109F0D7CD109228
:103AA000BD0103C081E0809313021092C601CECD08
:103AB00083E0F9CF813009F0EBC062E070E083E091
:103AC00090E00E94C0070E94FB07F090C301F11034
:103AD0000E9408080E949508182F80930301809186
:103AE0000201181303C01092C60143C081E0809305
:103AF000C60110930201F7FE41C0113109F03EC02A
:103B00008F2D8E778093C30162E070E081E090E0BA
:103B10000E94C00740E070E060E090E080E00E941A
:103B2000810A40E061E070E090E080E00E94810A5C
:103B30001092C6018091C601882309F493C0103108
:103B400009F081C0109213028EE090E00E942F08CD
:103B500062E070E081E090E00E94C0071092C60130
:103B600080911102811163C060E090E080E00E94CA
:103B7000AB0A8FE090E00E942F0868CD1F30D1F68D
:103B80001092C601309111022AE0832F622F0E9409
:103B9000002A90930902309308028091BE0100919F
:103BA000BF01829F000D112400931102802F90E02D
:103BB0008850924039F01092100260E090E080E06E
:103BC0000E94970A0531E9F08DED800F8330C8F02F
:103BD0000233B9F00F7EA9F08F2D81688093C30165
:103BE00090910802809109022AE0929F800D112491
:103BF0008093110262E070E081E090E00E94C007D3
:103C000099CF8DE090E00E942F088EE090E00E9416
:103C10002F0862E070E081E090E00E94C0071092FF
:103C200013021092C30181E08093C20183CF2091DF
:103C300008028091090290E060E03AE0239F800D45
:103C4000911D112494CF82E01B3019F01E3051F4E5
:103C500083E08093130262E070E081E090E00E94D4
:103C6000C00741CF1A3008F084CF0091070203301B
:103C700008F07FCFE02FF0E0E254FE4F1083412F99
:103C8000602F80E00E947C0A0F5F009307022BCF19
:103C9000823009F092C070E060E083E090E00E9422
:103CA000C0070E94FB071091C30111110E94080870
:103CB0000E9495088093030190910201891709F4ED
:103CC00012CF91E09093C6018093020117FF10C0BC
:103CD000813171F41D771093C30170E060E081E0E1
:103CE00090E00E94C0078DE090E00E942F08FBCE7C
:103CF0008F3011F00C94CD261092C6013091100235
:103D00002AE0832F622F0E94002A9093C8013093EB
:103D1000C7014091C0018091C101429F800D1124D3
:103D2000809310024FEE480F4230E8F08823D9F01C
:103D3000482F4F7B4232B9F08630A9F0843299F097
:103D40008B3289F0843479F0329F900D1124909356
:103D5000100212681093C30170E060E081E090E00F
:103D60000E94C00706CF8DE090E00E942F088EE0F1
:103D700090E00E942F0870E060E081E090E00E94F7
:103D8000C00710921302109207021092C30181E043
:103D90008093C201EECE60E090E080E00E94970A3E
:103DA000E8CE8091C601882309F4E3CE83E08093B6
:103DB000130270E060E00C941B27833009F05EC0B2
:103DC00061E070E085E090E00E94C0070E94FB0780
:103DD0001091C30111110E9408080E949508809358
:103DE000030190910201891709F47DCE91E090932F
:103DF000C6018093020117FF08C0813131F41B779F
:103E00001093C30161E070E06ACF8F3011F00C9421
:103E100011271092C60130910F029091C401809138
:103E2000C5015AE0959F800D112480930F028531C2
:103E300081F0833271F08E3361F09BEB980F9230FA
:103E400040F08F7E31F014681093C30161E070E0A0
:103E500085CF2AE0832F622F0E94002A329F900D87
:103E6000112490930F028DE090E00E942F088EE0C5
:103E700090E00E942F0861E070E07FCF843009F06D
:103E800007C18FE090E00E942F0803E010E00330AC
:103E9000110581F463E070E081E090E00E94C007CA
:103EA00027E130E0201B310B44E664E684E60E9403
:103EB000240807C00B3011050CF4C5C70D301105DF
:103EC0007CF362E370E080E090E00E94FB020F5F11
:103ED0001F4F02311105D9F610E000E048E0602FD5
:103EE000812F0E947C0A69E170E080E090E00E94EE
:103EF000FB020F5F063091F71F5F143071F76CED16
:103F000075E080E090E00E94FB0288E092E0809300
:103F10001102A7ECB1E0A093100204E010E090E0E1
:103F200080E00E94CA0B6EE070E087E090E00E94A3
:103F3000C0076DE070E087E090E00E94C00764EF8A
:103F400071E080E090E00E94FB0280910F028111FD
:103F500090C048E063E00E947C0A48E062E080E0B4
:103F60000E947C0A80911102811187C048E060E0C4
:103F70000E947C0A48E061E080E00E947C0A48E000
:103F800064E080E00E947C0A48E065E080E00E94F6
:103F90007C0A6EE070E082E090E00E94C0076DE075
:103FA00070E082E090E00E94C00764EF71E080E082
:103FB00090E00E94FB020150110909F0B0CF03E02C
:103FC00010E0980140E060E080E00E9424080F5F6C
:103FD0001F4F0B301105A9F70031110531F0980181
:103FE00040E060E080E00E9424080F5F1F4F023134
:103FF000110591F790E080E00E94CA0B81E090E00B
:104000000E94CA0B82E090E00E94CA0B83E090E01D
:104010000E94CA0B68EE73E080E090E00E94FB0211
:1040200062E070E081E090E00E94C00770E060E034
:1040300081E090E00E94C00761E070E081E090E0E4
:104040000E94C00780910F0290E00E94A60D80910F
:10405000110260E090E00E94AB0A8091100260E0E3
:1040600090E00E94970A84E180930301109213026A
:104070008ECA90E00E94A60D75CF60E090E00E948D
:10408000AB0A8091100260E090E00E94970A81CF15
:10409000853081F467E070E083E090E00E94C00723
:1040A00064EF71E080E090E00E94FB02F0E0E0E06D
:1040B0000995CCCA863009F0C9CA81E090E00E9417
:1040C000F20B82E090E00E94F20B83E090E00E940D
:1040D000F20B64E670E080E090E00E94FB0290E06A
:1040E00080E00E94A60D82E390E00E94040A89E12C
:1040F00090E00E94C8094EE350E060E070E081E08B
:1041000090E00E941C0C0E9495080E9779F26AEFCD
:1041100070E080E090E00E94FB02F5CF882361F020
:104120006FE070E082E090E00E94C00763E070E022
:1041300087E090E00E94C00734E1F32E0EE21EE01B
:10414000809103018E3009F060C08091D9018823ED
:1041500009F45BC00E942D038090CB019090CC01AC
:10416000A090CD01B090CE01681579058A059B0518
:1041700050F40E942D036093CB017093CC01809387
:10418000CD019093CE010E942D038090CB019090A1
:10419000CC01A090CD01B090CE01681979098A09AF
:1041A0009B09683E73408105910598F08091C90193
:1041B0009091CA0101969093CA018093C9010E940F
:1041C0002D036093CB017093CC018093CD0190932C
:1041D000CE018091C9019091CA0102970CF4B0CF31
:1041E0001092D90110920301F092110200930F0274
:1041F0006CED75E080E090E00E94FB020E942712C7
:10420000109312020E9435089BCF809112028930D0
:1042100089F481E090E00E940D1480E090E0892B09
:1042200009F435C90E941A04882309F429C90E9497
:10423000000026C98B3009F02DC10E942D0300918A
:10424000E1011091E2012091E3013091E401601756
:1042500071078207930750F40E942D036093E101D8
:104260007093E2018093E3019093E4010E942D0397
:104270000091E1011091E2012091E3013091E4010C
:10428000601B710B820B930B683E73408105910597
:1042900008F47DC08091DF019091E0010196909338
:1042A000E0018093DF01CC976CF08091DD0190916B
:1042B000DE0101969093DE018093DD011092E00112
:1042C0001092DF018091DD019091DE01CC976CF0BE
:1042D0008091DB019091DC0101969093DC01809349
:1042E000DB011092DE011092DD010E942D0360932C
:1042F000E1017093E2018093E3019093E4018091E6
:10430000DB019091DC01092E000CAA0BBB0B809302
:10431000FB019093FC01A093FD01B093FE018091FD
:10432000DD019091DE01092E000CAA0BBB0B8093DE
:10433000FF0190930002A0930102B0930202C0908B
:10434000DF01D090E0010D2C000CEE08FF08C092B8
:104350000302D0920402E0920502F09206020E944B
:10436000BF0A4AE0C701B601F7FE0BC08DE20E940A
:104370009D0466277727CB016C197D098E099F095B
:104380004AE00E94AA1081E491E00E949D100E94E0
:104390002D0300913F031091400320914103309180
:1043A0004203601771078207930750F40E942D03A0
:1043B00060933F03709340038093410390934203C3
:1043C0000E942D0300913F0310914003209141036F
:1043D00030914203601B710B820B930B683C71059B
:1043E0008105910508F419CF0E942D0360933F03C6
:1043F0007093400380934103909342038091DA01CC
:1044000081110BCF0E94A72724E130E040E050E06B
:104410000E94FA286B017C012AE0C20ED11CE11C2B
:10442000F11C86010F30110571F0C6018F7E0497D3
:1044300051F00131110539F023E030E040E060E057
:104440000A31110524F023E030E040E066E980E025
:104450000E9424080930110579F0E894C4F833E08B
:10446000C316D10449F00B31110531F006301105A6
:1044700019F00F30110541F421E130E04AE56AE519
:104480008AE50E942408C9CE21E130E040E060E0E6
:1044900080E0F7CF823009F05FC0CE0101960E9424
:1044A000A00F8E8190E02091E9013091EA01281758
:1044B000390774F49093EA018093E9010E942D0377
:1044C0006093E5017093E6018093E7019093E80122
:1044D0000E942D030091E5011091E6012091E70172
:1044E0003091E801601B710B820B930B2AE030E0E6
:1044F00040E050E00E942C29CA01B90124E630E0D6
:1045000040E050E00E942C298B01CB016AE070E072
:104510000E940C2A081B190B4C8150E070E060E0EF
:1045200081E090E00E941C0C4D8150E070E060E062
:1045300082E090E00E941C0C8E81A80194E6899F85
:10454000400D511D1124052E000C660B770B83E0E6
:1045500090E00E941C0C61CE833009F061C160E1E3
:1045600070E082E090E00E94C00761E087E00E9476
:10457000740164E170E080E090E00E94FB0286E953
:1045800092E00E940E04181619062CF486E992E0B7
:104590000E94EC03F4CF86E992E00E940E04181604
:1045A0001906CCF766E070E080E090E00E94FB0224
:1045B00010E000E086E992E00E940E041816190649
:1045C000BCF486E992E00E94EC03E1E0F0E0EC0F3D
:1045D000FD1FE00FF11F80838BEF9EE00197F1F745
:1045E0000F5F1F4F083411052CF307E410E0E2CFF2
:1045F00040910702FF24F394F40E0E890053110B2F
:10460000EBA1E053FF0B8EA98053990BAAE0A89F62
:104610009001A99F300D11248DA98053990BB4E608
:10462000B89FB001B99F700D1124260F371F6FA9D5
:104630006053770B620F731FF09207024A3008F045
:104640008FC08B898053990B28EEC22E23E0D22E87
:104650008C9D90018D9D300D9C9D300D11248C8979
:104660008053990BB89FA001B99F500D1124420FA0
:10467000531F8D898053990BA89F9001A99F300DDE
:104680001124240F351F200F311F8F8D8053990B5C
:1046900040E157E2849F8001859F100D949F100D8B
:1046A000112448A14053550B4C9DC0014D9D900DC8
:1046B0005C9D900D1124800F911F49A14053550B13
:1046C000B49F8001B59F100D1124800F911F4AA146
:1046D0004053550BA49F8001A59F100D1124800FFE
:1046E000911F8E0F9F1F49E1D42EDF1410F41092FA
:1046F00007024D8D4E3419F03195219531094AA5A7
:10470000453419F0919581959109032E000C440BC5
:10471000550B2093FB013093FC014093FD01509316
:10472000FE01092E000CAA0BBB0B8093FF01909396
:104730000002A0930102B0930202CB01770FAA0BF3
:10474000BB0B8093030290930402A0930502B093E5
:10475000060260E087E00E9474010E94BF0A5DCDFE
:10476000888D8053990B28EE33E0829FA001839FB0
:10477000500D929F500D112480E197E2089F900107
:10478000099F300D189F300D1124420F531F098DC2
:104790000053110BB09F9001B19F300D1124240FD5
:1047A000351F4A8D4053550BA49F8001A59F100DC6
:1047B0001124200F311F4B8D4053550B240F351FF3
:1047C0000DA10053110B58EEC52E53E0D52E0C9DB4
:1047D000A0010D9D500D1C9D500D1124E89F8001DE
:1047E000E99F100DF89F100D1124400F511F8EA14D
:1047F0008053990BB89FF001B99FF00D11244E0F13
:104800005F1F8FA18053990BA89F8001A99F100D56
:104810001124400F511FE8A5E053FF0BCA0161CFDF
:10482000853009F0A3C1CE01865A9F4F0E94A00F88
:104830006B962FAC6B976C96CFAC6C97A396CFAE64
:10484000A3976D963FAC6D976E960FAD6E9710E087
:104850006F964FAC6F97E42CF12CA0968FACA0977D
:10486000C82CD12C809103018F3011F124E6829E57
:1048700040011124B12CA12C512C712C612C809160
:1048800003018F3009F440C00E9495088093030112
:10489000909102018917D9F0809302018C3069F45C
:1048A0000F5F1F4F0831110594F010E000E00FC0BA
:1048B0000E94950880930301D5CF8D3099F7015060
:1048C0001109083111058CF70F3F1007B1F0A8014D
:1048D000012E000C660B770B81E090E00E941C0C0F
:1048E000B301A20182E090E00E941C0CB501A4017A
:1048F00083E090E00E941C0CC2CF07E110E0E7CFFC
:104900000E94950880930301809103018F30C1F3C9
:104910002801012E000C66087708809103018F3072
:1049200009F441C00E94950880930301909102010F
:104930008917D9F0809302018C3051F44FEFE41ABB
:10494000F40A5CE3E516F10484F0F12CE12C0DC0CF
:104950008D30B9F781E0E81AF1089CE3E916F1041B
:10496000A4F7AFEFEA16FA06B1F0B301A20181E0B5
:1049700090E00E941C0CA7010F2C000C660B770B1B
:1049800082E090E00E941C0CB501A40183E090E05D
:104990000E941C0CC2CF9BE3E92EF12CE6CF0E94B3
:1049A000950880930301809103018F30C1F3480182
:1049B000110FAA08BB082701FF0C66087708809131
:1049C00003018F3009F443C00E94950880930301CE
:1049D000909102018917E1F0809302018C3051F42B
:1049E000BFEFCB1ADB0AECE3CE16D1048CF0D12C4E
:1049F000C12C0EC08D3009F0CAC1F1E0CF1AD10828
:104A00002CE3C216D1049CF73FEFC316D306D9F0AE
:104A1000B501A40181E090E00E941C0CB301A20149
:104A200082E090E00E941C0C84E68C9DA0018D9D8C
:104A3000500D1124052E000C660B770B83E090E0DF
:104A40000E941C0CBCCF8BE3C82ED12CE1CF659605
:104A50002FAE6597A3969FADA39766969FAF669777
:104A600067963FAE679768960FAF68976996EFAE07
:104A700069976A96CFAE6A9786E0A296AEADBFAD53
:104A8000A2971D928A95E9F72AE08C2D622F0E9449
:104A9000002A982F990F890F880FC80ECA828E2D71
:104AA0000E94002A982F990F890F880FE80EEB8239
:104AB000802F0E94002A982F990F890F880F080FC6
:104AC0000C83832D0E94002A982F990F890F880F3D
:104AD000380E3E82A3968FADA3970E94002A982F8E
:104AE000880F890F880FA396CFACA3978C0D8F8367
:104AF000822D0E94002A982F880F890F880F820D1F
:104B000088878091230290912402DC0114962D91D4
:104B10003C9115972830310590F02C9131E030937D
:104B2000250220934702109226021092480221E0AB
:104B300048E050E0BE016F5F7F4F0E947D0782E03A
:104B40008093120241E060E080E00E947C0A46E02F
:104B500061E080E00E947C0A80E18093110281E0A4
:104B60008093080286E08093090257CB8E3019F4B7
:104B70000E94271252CB8A3079F480E490E00E94A0
:104B8000400A84E090E00E94FC1168EE73E080E04F
:104B900090E00E94FB0241CB873009F0B3C0409106
:104BA000040150910501052E000C660B770B81E086
:104BB00090E00E941C0C61E070E087E090E00E94B1
:104BC000C007809103018F3009F479C0EE24E3948B
:104BD0000FE010E0809103018F3009F47DC00E9446
:104BE0002D0380900B0290900C02A0900D02B090CB
:104BF0000E029B01AC01281939094A095B094901D8
:104C00005A0138E5831632E09306A104B104E8F0B6
:104C100060930B0270930C0280930D0290930E022E
:104C200080910A02882309F44FC010920A02F09082
:104C30000A02809111026F2D90E00E94AB0A8091D0
:104C400010026F2D90E00E94970A0E9495088093B1
:104C5000030190910201891729F1209104013091FB
:104C60000501809302018C3091F52F5F3F4F309307
:104C70000501209304018091040190910501409762
:104C800034F041E050E050930501409304018091DD
:104C90000401909105011816190624F010930501DE
:104CA000009304014091040150910501052E000C70
:104CB000660B770B81E090E00E941C0C8BCF0E946A
:104CC0009508809303017DCFE0920A02B0CF8D302A
:104CD00091F621503109CBCF88E08093120280E118
:104CE0008093110282E68093100261E070E081E01F
:104CF00090E00E94C00780910401909105010E94FC
:104D0000A60D8BCA883009F088CA00910401109161
:104D100005018091110260E090E00E94AB0A809151
:104D2000100260E090E00E94970AC8010E94FC1106
:104D300010921202109211021092100210920F02A1
:104D400060E090E080E00E94AB0A60E090E080E0EC
:104D50000E94970A90E080E00E94A60D61E070E05A
:104D600081E090E00E94C00781E090E00E94F20B99
:104D700082E090E00E94F20B83E090E00E94F20B50
:104D80004CCA8FE090E00E942F080C94BA1A8CE372
:104D9000C816D1040CF02BCE3BCE803109F05AC09E
:104DA000109213028EE090E00E942F0870E060E005
:104DB00081E090E00E94C007109207021092C601A5
:104DC00080911002882311F40C94CB1E2091C7010E
:104DD0008091C80190E060E04AE0249F800D911D21
:104DE00011240C94CE1E8E3011F40C94D11E8A30F6
:104DF00010F00C94B91D10910702123010F00C94B1
:104E0000B91DE12FF0E0E054FE4F808364E0610FB4
:104E1000482F80E00E947C0A1F5F109307020C94C9
:104E2000731D8031E1F4109213028EE090E00E9435
:104E30002F0861E070E081E090E00E94C0071092CE
:104E400007020C94731D980140E064E684E60E941A
:104E5000240826C88A3039F681E00C94D71E8A309F
:104E6000D9F38A3010F00C94B91D1091070212305A
:104E700010F00C94B91DE12FF0E0EC53FE4F80834D
:104E800062E0610F482F80E00E947C0A1F5F109350
:104E900007020C94B91D80918304909184040E94B0
:104EA000D62A809180049091810497FD03C060E030
:104EB0000C94C00108958F929F92AF92BF92CF92AF
:104EC000DF92EF92FF92CF93DF93EC0168817981BB
:104ED0008A819B81611571058105910521F464E248
:104EE00079ED8BE597E02DE133EF41E050E00E9452
:104EF000FA2849015A019B01AC01A7EAB1E40E94DA
:104F000019296B017C01ACEEB4EFA50194010E945C
:104F10002729C60ED71EE81EF91EF7FE06C081E03F
:104F2000C81AD108E10880E8F80AC882D982EA8262
:104F3000FB82C701B6019F77DF91CF91FF90EF9081
:104F4000DF90CF90BF90AF909F908F9008958F92F9
:104F50009F92AF92BF92CF92DF92EF92FF926091B9
:104F60000601709107018091080190910901611576
:104F700071058105910521F464E279ED8BE597E0F7
:104F80002DE133EF41E050E00E94FA2849015A0137
:104F90009B01AC01A7EAB1E40E9419296B017C01D5
:104FA000ACEEB4EFA50194010E942729C60ED71ECE
:104FB000E81EF91EF7FE06C081E0C81AD108E10814
:104FC00080E8F80AC0920601D0920701E092080139
:104FD000F0920901C701B6019F77FF90EF90DF9033
:104FE000CF90BF90AF909F908F90089560930601EF
:104FF0007093070180930801909309010895E89444
:1050000009C097FB3EF490958095709561957F4F10
:105010008F4F9F4F9923A9F0F92F96E9BB279395BE
:10502000F695879577956795B795F111F8CFFAF4CE
:10503000BB0F11F460FF1BC06F5F7F4F8F4F9F4FFF
:1050400016C0882311F096E911C0772321F09EE85D
:10505000872F762F05C0662371F096E8862F70E0C3
:1050600060E02AF09A95660F771F881FDAF7880F9D
:105070009695879597F908950E944F280C94C0281B
:105080000E94B22838F00E94B92820F0952311F030
:105090000C94A9280C94AF2811240C94F4280E9495
:1050A000D12870F3959FC1F3950F50E0551F629F73
:1050B000F001729FBB27F00DB11D639FAA27F00D71
:1050C000B11DAA1F649F6627B00DA11D661F829F98
:1050D0002227B00DA11D621F739FB00DA11D621F7D
:1050E000839FA00D611D221F749F3327A00D611D9A
:1050F000231F849F600D211D822F762F6A2F11247C
:105100009F5750409AF0F1F088234AF0EE0FFF1FAE
:10511000BB1F661F771F881F91505040A9F79E3F05
:10512000510580F00C94A9280C94F4285F3FE4F317
:10513000983ED4F3869577956795B795F795E7955B
:105140009F5FC1F7FE2B880F911D9695879597F964
:10515000089597F99F6780E870E060E008959FEFF9
:1051600080EC089500240A941616170618060906FE
:10517000089500240A9412161306140605060895CD
:10518000092E0394000C11F4882352F0BB0F40F455
:10519000BF2B11F460FF04C06F5F7F4F8F4F9F4F95
:1051A000089557FD9058440F551F59F05F3F71F017
:1051B0004795880F97FB991F61F09F3F79F087957E
:1051C0000895121613061406551FF2CF4695F1DF07
:1051D00008C0161617061806991FF1CF8695710597
:1051E000610508940895E894BB2766277727CB01CB
:1051F00097F90895052E97FB1EF400940E9411293B
:1052000057FD07D00E942C2907FC03D04EF40C94C4
:10521000112950954095309521953F4F4F4F5F4F45
:10522000089590958095709561957F4F8F4F9F4F12
:1052300008950E944E29A59F900DB49F900DA49FA4
:10524000800D911D11240895B7FF0C9419290E9417
:105250001929821B930B0895A1E21A2EAA1BBB1BCE
:10526000FD010DC0AA1FBB1FEE1FFF1FA217B30732
:10527000E407F50720F0A21BB30BE40BF50B661F48
:10528000771F881F991F1A9469F76095709580950C
:1052900090959B01AC01BD01CF010895A29FB00183
:1052A000B39FC001A39F700D811D1124911DB29F5A
:1052B000700D811D1124911D08955058BB27AA27F8
:1052C0000E9475290C94C0280E94B22838F00E94D0
:1052D000B92820F039F49F3F19F426F40C94AF2834
:1052E0000EF4E095E7FB0C94A928E92F0E94D12841
:1052F00058F3BA17620773078407950720F079F40B
:10530000A6F50C94F3280EF4E0950B2EBA2FA02DE1
:105310000B01B90190010C01CA01A0011124FF2762
:10532000591B99F0593F50F4503E68F11A16F0405D
:10533000A22F232F342F4427585FF3CF469537955C
:105340002795A795F0405395C9F77EF41F16BA0B21
:10535000620B730B840BBAF09150A1F0FF0FBB1FCF
:10536000661F771F881FC2F70EC0BA0F621F731F18
:10537000841F48F4879577956795B795F7959E3F75
:1053800008F0B0CF9395880F08F09927EE0F979506
:10539000879508950E94D1296894B1110C94F4283E
:1053A00008950E94D92888F09F5798F0B92F99271F
:1053B000B751B0F0E1F0660F771F881F991F1AF000
:1053C000BA95C9F714C0B13091F00E94F328B1E04A
:1053D00008950C94F328672F782F8827B85F39F049
:1053E000B93FCCF3869577956795B395D9F73EF499
:1053F00090958095709561957F4F8F4F9F4F089541
:10540000991B79E004C0991F961708F0961B881F16
:105410007A95C9F78095089597FB072E16F40094A6
:1054200007D077FD09D00E94262A07FC05D03EF45C
:10543000909581959F4F0895709561957F4F089540
:10544000EE0FFF1F0590F491E02D0994AA1BBB1BE2
:1054500051E107C0AA1FBB1FA617B70710F0A61B74
:10546000B70B881F991F5A95A9F780959095BC0195
:10547000CD0108950F931F93CF93DF938230910551
:1054800010F482E090E0E091BC04F091BD0430E0C3
:1054900020E0B0E0A0E0309799F42115310509F43F
:1054A0004AC0281B390B24303105D8F58A819B81ED
:1054B0006115710589F1FB0193838283FE0111C09F
:1054C000408151810281138148175907E0F0481744
:1054D000590799F4109761F012960C93129713964E
:1054E0001C933296CF01DF91CF911F910F910895B8
:1054F0000093BC041093BD04F4CF2115310551F085
:105500004217530738F0A901DB019A01BD01DF0101
:10551000F801C1CFEF01F9CF9093BD048093BC0493
:10552000CDCFFE01E20FF31F8193919322503109F9
:1055300039832883D7CF2091BA043091BB04232B21
:1055400041F420910C0130910D013093BB04209364
:10555000BA0420910A0130910B012115310541F463
:105560002DB73EB740910E0150910F01241B350B12
:10557000E091BA04F091BB04E217F307A0F42E1BEC
:105580003F0B2817390778F0AC014E5F5F4F2417A7
:10559000350748F04E0F5F1F5093BB044093BA0489
:1055A000819391939FCFF0E0E0E09CCFCF93DF9386
:1055B0000097E9F0FC01329713821282A091BC049B
:1055C000B091BD04ED0130E020E01097A1F42081FE
:1055D0003181820F931F2091BA043091BB042817A8
:1055E000390709F061C0F093BB04E093BA04DF917E
:1055F000CF910895EA01CE17DF07E8F54A815B8174
:105600009E0141155105B1F7E901FB83EA834991F8
:105610005991C40FD51FEC17FD0761F4808191816A
:105620000296840F951FE901998388838281938173
:105630009B838A83F0E0E0E012968D919C91139712
:105640000097B9F52D913C911197CD010296820FEB
:10565000931F2091BA043091BB042817390739F6FB
:10566000309751F51092BD041092BC04B093BB0466
:10567000A093BA04BCCFD383C28340815181840FED
:10568000951FC817D90761F44E5F5F4F88819981D4
:10569000480F591F518340838A819B819383828362
:1056A0002115310509F0B0CFF093BD04E093BC049F
:1056B0009ECFFD01DC01C0CF13821282D7CF10E054
:1056C000CDE9D0E004C0FE010E94202A2196CE3907
:0856D000D107C9F7F894FFCFE0
:1056D800010114140B00010000000000BE0480004A
:1056E800000000005004B003DD03A2040E04EC0324
:1056F80000040000000030050305D904C204D204E8
:105708004E01C30453656E742000537461636B3A91
:04571800000D0A0076
:00000001FF
